:100000000C943E080C9466080C9466080C946608E0
:100010000C9466080C9466080C9466080C946608A8
:100020000C9466080C9466080C9466080C94660898
:100030000C9466080C9466080C9466080C94660888
:100040000C9477190C9466080C94E7190C94C11958
:100050000C9466080C9466080C9466080C94660868
:100060000C9466080C9466084E414E494E4954590A
:10007000494E46CDCCCC3D0AD7233C17B7D1387773
:10008000CC2B329595E6241FB14F0A000020410089
:1000900000C84200401C4620BCBE4CCA1B0E5AAED3
:1000A000C59D747561727400693263006164630098
:1000B00070776D006F75740000000000230026004B
:1000C00029007B2274223A227374617274227D00AB
:1000D0007B2274223A2273746F70227D002C22726C
:1000E00077223A227722002C227277223A22722239
:1000F0000061636B007B2274223A22616464722285
:100100002C2276223A007472616365004120746586
:1001100078742076616C7565206973206D697373DE
:10012000696E672069747320636C6F73696E6720F2
:1001300071756F74652E0041207465787420766146
:100140006C756520636F6E7461696E7320616E20DB
:10015000756E6B6E6F776E206573636170652E00D0
:1001600041205C7520657363617065206E65656410
:100170007320666F7572206865782064696769749A
:10018000732E004120746578742076616C7565204B
:10019000636F6E7461696E73206120636F6E747239
:1001A0006F6C206368617261637465722E00412018
:1001B0006E756D6265722068617320612062616492
:1001C000206578706F6E656E742E0041206E756DBF
:1001D00062657220686173206E6F2064696769745C
:1001E000732061667465722074686520646F742E74
:1001F0000041206E756D626572206973206E6F74A8
:10020000207772697474656E20636F7272656374AF
:100210006C792E0041206E756D62657220697320C5
:10022000637574206F66662E00556E657870656321
:1002300074656420776F72642E2055736520747224
:1002400075652C2066616C7365206F72206E756C0D
:100250006C2E00457870656374656420272C272018
:100260006F72206120636C6F73696E6720627261C8
:10027000636B65742E00546865206C696E6520653B
:100280006E6473206265666F7265207468652063B2
:100290006C6F73696E6720627261636B65742E00A8
:1002A000457870656374656420273A272061667419
:1002B00065722061206B65792E00457870656374E6
:1002C00065642061206B657920696E20646F7562BA
:1002D0006C652071756F7465732E00556E6578704E
:1002E0006563746564206368617261637465722E0E
:1002F000006E756C6C0066616C7365007472756578
:100300000054686520726571756573742069732087
:100310006E657374656420746F6F20646565706CBE
:10032000792E00412076616C7565206973206D69B6
:100330007373696E672E005C752530347800223047
:10034000782530325822007D0A0070696E006D7386
:1003500067006572726F7200FFFF3F0000000000CF
:1003600030413620616E642041372061726520691A
:100370006E707574206F6E6C792E205468657920CC
:1003800063616E6E6F74206472697665206120739C
:1003900069676E616C206F72206265207573656499
:1003A00020617320493243206C696E65732E0069A9
:1003B0006E7075745F6F6E6C79005468697320702D
:1003C000696E206973207573656420627920746892
:1003D000652055534220636F6E6E656374696F6E5E
:1003E000206F722074686520646562756720707282
:1003F0006F62652E20546865206167656E74206C9D
:10040000656176657320697420616C6F6E652E007E
:1004100072657365727665645F70696E0044302042
:10042000616E642044312063617272792074686562
:100430002073657269616C206C696E6B20746F202B
:1004400074686520636F6D70757465722E205573C6
:10045000696E67207468656D20776F756C642063C2
:1004600075742074686520636F6E6E656374696F60
:100470006E2E00756172745F70696E0054686973E6
:100480002070696E20697320776972656420746FCB
:100490002074686520666C617368206D656D6F728D
:1004A000792E205573696E6720697420776F756C9B
:1004B000642063726173682074686520626F617282
:1004C000642E00666C6173685F70696E00546869C1
:1004D000732070696E206E756D62657220646F6541
:1004E00073206E6F74206578697374206F6E20744A
:1004F00068652041726475696E6F204E616E6F2E63
:10050000006261645F70696E00696E006E756C6C8C
:10051000006D7600687A0064757479007365740004
:100520006C6576656C006C6576656C007B226D6F22
:100530006465223A000300000000007D0A00617239
:100540006475696E6F2D6E616E6F00626F617264AB
:1005500000302E32002C22766572223A0062702D15
:100560006167656E74000A7B226576656E74223A57
:1005700022626F6F74222C226167656E74223A00CA
:1005800061726475696E6F2D6E616E6F00626F616E
:1005900072640068656170467265650041546D65FE
:1005A000676133323850006368697000302E320062
:1005B0007665720062702D6167656E7400616765B3
:1005C0006E7400000000000102030405060708091C
:1005D0000A0B0C0D0E0F10111213141570696E73A7
:1005E0000022737472617070696E67223A7B0075C5
:1005F0006E636F6E6669726D6564006C6576656CBE
:10060000730065787465726E616C00666F756E64F8
:100610000061646472006275735F6572726F72006C
:100620006572726F720054686520493243206275AA
:10063000732073746F7070656420726573706F6E71
:1006400064696E672E20534441206F722053434CDF
:10065000206D61792062652068656C64206C6F771D
:100660002C2073686F727465642C206F72206D6922
:100670007373696E672070756C6C2D757020726570
:10068000736973746F72732E006D7367007B2274CD
:10069000223A2272657374617274227D0066616C05
:1006A00073650074727565002C22646972223A22A7
:1006B0007222002C22646972223A2277220061633E
:1006C0006B007B2274223A2264617461222C2276B0
:1006D000223A006275735F6572726F7200657272A2
:1006E0006F72006461746100726561645F66616964
:1006F0006C65640073686F72745F72656164005446
:1007000068652064657669636520616E73776572DC
:1007100065642069747320616464726573732C204E
:100720006275742072656164696E67207468652003
:100730007265676973746572206661696C65642EA1
:1007400020546865207265676973746572206D61F5
:1007500079206E6F74206578697374206F6E2074D1
:10076000686973206465766963652C206F722074F4
:10077000686520627573206973206E6F6973792EC6
:10078000006D7367006572726F720061646472005D
:100790006E61636B4174006D7367006E61636B0023
:1007A0006572726F72004E6F2064657669636520B2
:1007B000616E737765726564206174206164647230
:1007C0006573732030782530326C582E204368656D
:1007D000636B2074686520776972696E672C20747A
:1007E000686520706F77657220616E64207468653B
:1007F00020616464726573732E0064617461002209
:1008000072656722206D75737420626520612072A5
:1008100065676973746572206E756D6265722066B6
:10082000726F6D2022307830302220746F20223099
:10083000784646222C20666F72206578616D706C58
:1008400065202230784430222E006261645F61723C
:100850006773006C656E00226164647222206D759E
:100860007374206265206120372D626974204932DB
:100870004320616464726573732066726F6D202219
:10088000307830382220746F202230783737222C8D
:1008900020666F72206578616D706C6520223078FB
:1008A0003736222E006261645F6172677300726581
:1008B0006700616464720000C03F6269747300661F
:1008C000756C6C5363616C654D76006E6F6D696E0F
:1008D000616C0072656600726177006D76006E6F04
:1008E000745F61646300546869732070696E2028C6
:1008F0002564292063616E6E6F74206D6561737568
:10090000726520766F6C746167652E205573652063
:10091000616E20616E616C6F672070696E2C20665D
:100920006F72206578616D706C652041302E0070AB
:10093000696E006E6F745F70776D00687A0054683E
:10094000652050574D2064726976657220636F751B
:100950006C64206E6F742073746172742077697494
:10096000682074686973206672657175656E637955
:100970002E00546869732070696E2063616E6E6F1B
:1009800074206D616B6520612050574D207369673D
:100990006E616C2E205069636B20612050574D2092
:1009A00070696E20286F6E2041726475696E6F20C9
:1009B000626F61726473207468657920617265206A
:1009C0006D61726B6564207E292E002264757479D6
:1009D00022206D75737420626520612070657263DA
:1009E000656E746167652066726F6D203020746F6C
:1009F000203130302E006261645F6172677300687D
:100A00007A0064757479002273746F7022206D759A
:100A100073742062652074727565206F7220666140
:100A20006C73652E006261645F617267730073743A
:100A30006F700073746F700070696E00226C657661
:100A4000656C22206D757374206265203020284CFF
:100A50004F5729206F722031202848494748292EB6
:100A6000006261645F61726773006C6576656C003B
:100A70006C6576656C0070696E00546869732070EF
:100A8000696E2063616E206F6E6C79206D65617395
:100A900075726520766F6C746167652028697420B3
:100AA000686173206E6F206469676974616C206986
:100AB0006E707574292E20557365207468652061E9
:100AC000646320636F6D6D616E642E00616E616C96
:100AD0006F675F6F6E6C79006C6576656C0070692E
:100AE0006E00546869732070696E2069732070729B
:100AF0006F647563696E6720612050574D2073697C
:100B0000676E616C2E2053746F7020697420666963
:100B1000727374202870776D20776974682022734F
:100B2000746F70223A7472756529206F7220736534
:100B30006E642072657365745F70696E732E0070E9
:100B4000696E5F627573790070696E00687A007211
:100B5000656C65617365640072657365745F706967
:100B60006E730073747265616D5F73746F70007380
:100B7000747265616D006770696F5F7265616400B2
:100B80006770696F5F77726974650070776D006177
:100B90006463006932635F72656164006932635F38
:100BA0007363616E0070756C6C75705F636865630C
:100BB0006B00737472617070696E670070696E7338
:100BC0000068656C6C6F00546865726520697320FD
:100BD00065787472612074657874206166746572DA
:100BE0002074686520636C6F73696E6720277D27AA
:100BF0002E00546865207265717565737420697381
:100C0000206E6F742076616C6964204A534F4E2EBB
:100C100000457870656374656420272C27206F7207
:100C200020277D2720616674657220612076616CC3
:100C300075652E00546865206C696E6520656E646C
:100C400073206265666F72652074686520636C6FDF
:100C500073696E6720277D272E00546865207265B2
:100C600071756573742068617320746F6F206D6196
:100C70006E79206669656C64732E004578706563D3
:100C800074656420273A27206166746572206120AC
:100C90006B65792E0045787065637465642061200A
:100CA0006B657920696E20646F75626C6520717563
:100CB0006F7465732E0041207265717565737420C1
:100CC0006D7573742062652061204A534F4E206F0A
:100CD000626A6563742074686174207374617274ED
:100CE00073207769746820277B272E00546865205D
:100CF0006167656E7420646F6573206E6F74206B1E
:100D00006E6F77207468697320636F6D6D616E64B8
:100D10002E204B6E6F776E20636F6D6D616E647306
:100D20003A2068656C6C6F2C2070696E732C207390
:100D30007472617070696E672C2070756C6C757060
:100D40005F636865636B2C206932635F7363616EF8
:100D50002C206932635F726561642C206164632CAE
:100D60002070776D2C206770696F5F77726974658A
:100D70002C206770696F5F726561642C20737472D8
:100D800065616D2C2073747265616D5F73746F7033
:100D90002C2072657365745F70696E732E00756EBA
:100DA0006B6E6F776E5F636D6400636D64002263CA
:100DB0006D6422206D75737420626520746578748B
:100DC0002C20666F72206578616D706C65202268DA
:100DD000656C6C6F222E006261645F6172677300E4
:100DE000546865207265717565737420686173203D
:100DF0006E6F2022636D64222E204578616D706CC9
:100E0000653A207B226964223A312C22636D642288
:100E10003A2268656C6C6F227D006261645F61726A
:100E2000677300636D640022696422206D757374BA
:100E300020626520612077686F6C65206E756D6239
:100E400065722E006261645F61726773006964009D
:100E50006964006261645F6A736F6E005468652044
:100E600072657175657374206C696E652069732095
:100E70006C6F6E676572207468616E203139312045
:100E8000636861726163746572732E00746F6F5F63
:100E90006C6F6E67007D7D0A002C2270696E732274
:100EA0003A7B007B2273747265616D223A747275AD
:100EB000652C2274223A0000000000240027002A3A
:100EC0000000000000250028002B00040404040496
:100ED00004040402020202020203030303030301E7
:100EE00002040810204080010204081020010204BE
:100EF00008102000000008000201000003040700A1
:100F000000000000000000687A0053444120616E38
:100F1000642053434C206D75737420626520747790
:100F20006F20646966666572656E742070696E73A1
:100F30002E006261645F617267730073636C00739B
:100F40006461006261645F617267730022255322ED
:100F5000206D75737420626520612070696E206E4B
:100F6000756D6265722C20666F72206578616D7098
:100F70006C652025642E006261645F617267730096
:100F80002270696E732220697320656D7074792EEA
:100F90002047697665206174206C65617374206FE9
:100FA0006E652070696E206E756D6265722E0062CE
:100FB00061645F61726773002270696E7322206DD5
:100FC0007573742062652061206C697374206F668C
:100FD0002070696E206E756D626572732C20666F6D
:100FE00072206578616D706C65205B25642C2564CA
:100FF0005D2E006261645F6172677300546F6F20E1
:101000006D616E792070696E7320696E206F6E65F8
:1010100020726571756573742E20546865206C6943
:101020006D69742069732025642E0070696E7300E9
:101030006261645F617267730022255322206D75BF
:10104000737420626520612077686F6C65206E750F
:101050006D6265722066726F6D20256C6420746FFE
:1010600020256C642E002C226F6B223A006E756C6A
:101070006C007B226964223A0000EA2611241FBE1C
:10108000CFEFD8E0DEBFCDBF11E0A0E0B1E0E8E9EE
:10109000FFE502C005900D92AC32B107D9F724E00C
:1010A000ACE2B1E001C01D92AF38B207E1F718E041
:1010B000CEE3D8E004C02197FE010E94BB2FCD33C0
:1010C000D107C9F70E94191A0C94CA2F0C9400007A
:1010D000833081F028F4813099F08230A9F00895AE
:1010E0008730A9F08830C9F08430B1F48091800055
:1010F0008F7D03C0809180008F778093800008955A
:1011000084B58F7784BD089584B58F7DFBCF8091A2
:10111000B0008F778093B00008958091B0008F7DEC
:10112000F9CF1F93CF93DF93282F30E0F901ED50D3
:10113000F14F8491F901E152F14FD491F901E55356
:10114000F14FC491CC23A9F0162F81110E94680899
:10115000EC2FF0E0EE0FFF1FEF53F14FA591B4918C
:101160008FB7F894EC91111108C0D095DE23DC9371
:101170008FBFDF91CF911F910895DE2BF8CFCF93D2
:10118000DF9390E0FC01E152F14F24918553914FA0
:10119000FC0184918823D1F090E0880F991FFC0115
:1011A000E954F14FA591B491FC01EF53F14FC59172
:1011B000D49161110EC09FB7F8948C91E22FE09505
:1011C0008E238C932881E223E8839FBFDF91CF9108
:1011D00008958FB7F894EC91E22BEC938FBFF6CF84
:1011E0003FB7F8948091130290911402A0911502D8
:1011F000B091160226B5A89B05C02F3F19F00196A5
:10120000A11DB11D3FBFBA2FA92F982F8827BC0160
:10121000CD01620F711D811D911D42E0660F771F88
:10122000881F991F4A95D1F70895AF92BF92CF9228
:10123000DF92EF92FF920F931F93CF93DF936C0196
:101240007B018B01040F151FEB015E01AE18BF0877
:10125000C017D10759F06991D601ED91FC91019029
:10126000F081E02DC6010995892B79F7C501DF9141
:10127000CF911F910F91FF90EF90DF90CF90BF9093
:10128000AF900895FC01538D448D252F30E0842FBD
:1012900090E0821B930B541710F0CF96089501979E
:1012A0000895FC01918D828D981761F0A28DAE0F8B
:1012B000BF2FB11D5D968C91928D9F5F9F73928F12
:1012C00090E008958FEF9FEF0895FC01918D828D3E
:1012D000981731F0828DE80FF11D858D90E008950B
:1012E0008FEF9FEF0895FC01918D228D892F90E063
:1012F000805C9F4F821B91098F73992708958CEE14
:1013000093E00E94730921E0892B09F420E0822FE9
:10131000089580E090E0892B29F00E947F098111D7
:101320000C9400000895FC01A48DA80FB92FB11DE5
:10133000A35ABF4F2C91848D90E001968F7399270B
:10134000848FA689B7892C93A089B1898C918370E9
:1013500080648C93938D848D981306C00288F389E2
:10136000E02D80818F7D80830895EF92FF920F930F
:101370001F93CF93DF93EC0181E0888F9B8D8C8D41
:1013800098131AC0E889F989808185FF15C09FB735
:10139000F894EE89FF896083E889F98980818370F8
:1013A000806480839FBF81E090E0DF91CF911F91A7
:1013B0000F91FF90EF900895F62E0B8D10E00F5FC8
:1013C0001F4F0F731127E02E8C8D8E110CC00FB69E
:1013D00007FCFACFE889F989808185FFF5CFCE0136
:1013E0000E949309F1CFEB8DEC0FFD2FF11DE35A15
:1013F000FF4FF0829FB7F8940B8FEA89FB898081B9
:101400008062CFCF682F8CEE93E00C94B509CF9318
:10141000DF93EC01888D8823B9F0AA89BB89E8891C
:10142000F9898C9185FD03C0808186FD0DC00FB6C2
:1014300007FCF7CF8C9185FFF2CF808185FFEDCF40
:10144000CE010E949309E9CFDF91CF910895FB016E
:101450008E3008F08E508770806480937C0080917D
:101460007A00806480937A0080917A0086FDFCCFB8
:101470002091780030917900DA012D933C93A8E80F
:10148000B3E10E94072E7E5F8F4F9F4F2AE0969513
:101490008795779567952A95D1F7608371838283C5
:1014A000938308959C014631510561057105B8F497
:1014B000DB01CA0163E0B595A795979587956A9575
:1014C000D1F7820F931FFC01849190E0477055275C
:1014D00002C0959587954A95E2F78170089580E05E
:1014E0000895CF92DF92EF92FF92CF93663171050C
:1014F0008105910550F061E075E08DEC94E0CF91AD
:10150000FF90EF90DF90CF900895C42F6B017C0186
:10151000BC01A60188E593E00E94520A882359F392
:10152000B701A6018BE593E00E94520A882329F0B7
:1015300063EC74E08CE794E0E2CFB701A60185E3A9
:1015400095E00E94520A882329F063E774E08DE158
:1015500094E0D5CFB701A60183EC95E00E94520A32
:101560002AEB33E040E154E0811106C0C11107C00D
:1015700030E020E050E040E0BA01C901C0CFB7013F
:10158000A6018EE593E00E94520A21E633E04FEA7D
:1015900053E08111F1CFECCFCF92DF92EF92FF9227
:1015A0006B017C01BC01A60188E593E00E94520A10
:1015B000811106C080E0FF90EF90DF90CF900895FA
:1015C000B701A6018BE593E00E94520A8111F2CF88
:1015D000B701A60185E395E00E94520A8111EACF86
:1015E000B701A60183EC95E00E94520A91E0892799
:1015F000E2CFCF92DF92EF92FF926B017C01BC01B0
:10160000A60188E593E00E94520A811102C080E0A1
:101610000FC0B701A60187EB98E00E94520A882309
:10162000B1F381E094E1C916D104E104F1047CF343
:10163000FF90EF90DF90CF900895CF92DF92EF92DE
:10164000FF921F93CF93DF938631910550F010E006
:10165000812FDF91CF911F91FF90EF90DF90CF907E
:101660000895EC016C01990FEE08FF08C701B6015F
:101670000E94CC0A882359F3C701B6010E94F90AD7
:101680008111E5CF8BE08C9FF0018D9FF00D11242F
:10169000E95EFD4F808111E0811119C010E060E02A
:1016A0008C2F0E94BF088BE08C9FF0018D9FF00D66
:1016B0001124E95EFD4F108211821382148215827B
:1016C000168217821086118612861282C1CF82304E
:1016D00029F460E08C2F0E949108E1CF8130F9F667
:1016E000F8CF682F8CEE93E00C94B509CF93DF937D
:1016F000EC01FE016491662339F08CEE93E00E94C8
:10170000B5092196892BA9F7DF91CF910895811111
:1017100004C08DE996E00C94760B83EA96E0FBCF4B
:1017200087E493E00C94760BDC01ED91FC9111972A
:1017300012964D915C911397E417F50738F4808168
:101740008D3291F43196E417F50770F014968D916F
:101750009C911597892B31F484E192E015969C9326
:101760008E93149780E008958081803341F4319600
:10177000E417F507E8F0ED93FC9381E008958153B9
:10178000893068F49F01F9012F5F3F4F80818053BA
:101790008A3070F4F90124173507A8F3ECCF1496BA
:1017A0008D919C911597892BE9F681EF91E0D6CF29
:1017B00080818E3249F5CF0101968417950720F478
:1017C000218120532A3048F014968D919C911597D1
:1017D000892B41F68BEC91E0C1CFFC010196208171
:1017E00020532A3088F4FC0148175907B1F7C3CFBA
:1017F000FC010196208120532A3008F0BCCFFC0167
:1018000084179507A8F3B7CF80818F7D853409F0C1
:10181000B2CFCF0101968417950778F421812B323E
:1018200011F02D3229F4CF0102968417950728F480
:10183000FC01208120532A30D8F214968D919C917E
:101840001597892B09F08ECF8EEA91E087CFEF9222
:10185000FF920F931F93CF93DF93FC01208131817F
:101860002F5F3F4F31832083C281D381A081B1811B
:10187000AC17BD0708F075C08C918232B1F4DB0162
:101880002D933C9380819181BC01621B730BDA0123
:101890006D937C9301969183808381E0DF91CF915A
:1018A0001F910F91FF90EF900895803258F484813A
:1018B0009581892B11F080E0F1CF83E891E0958349
:1018C0008483F9CF8C3579F5CD010196918380839E
:1018D0008C179D0708F045C011968C91853749F506
:1018E00084E0E82EF12C808191818C010F5F1F4FE5
:1018F000118300830C171D0758F4DC0111968C919D
:1019000090ED980F9A3058F08F7D8154863038F0E2
:1019100084819581892B79F680E691E0D0CFB1E082
:10192000EB1AF10801F78081918101969183808300
:101930009DCF982F9F7B9232B1F38C35A1F38F32DC
:1019400091F3982F977F963671F3823761F384373E
:1019500051F384819581892B09F0ADCF87E391E024
:10196000AECF84819581892B09F0A5CF8CE091E0E1
:10197000A6CFDC0112962D913C911397ED91FC912D
:101980001197E217F30770F48081803231F097EFFE
:10199000980F923010F08D3029F431961196FC9307
:1019A000EE93ECCF0895CF93C091030161E08C2FAB
:1019B0000E94BF0860E08C2FCF910C94910860E0EA
:1019C000809105010C94BF080E94DF0C60E08091BB
:1019D00003010C94BF08809105019091060197FFC7
:1019E0000E94E40C8FEF9FEF90930401809303011A
:1019F00090930601809305010895CF93C09105014E
:101A000061E08C2F0E94BF0860E08C2FCF910C9476
:101A1000910880910101909102018230910538F086
:101A2000880F991F880F991F05970197F1F708955F
:101A300080910001811103C08CE20E94710B109211
:101A4000000108950E94180D80ED90E00C94760B33
:101A50000E94180D82EC90E00C94760BCF93DF93EC
:101A60009C013327F901ED50F14F8491F901E152C6
:101A7000F14FD491F901E553F14FC491CC23A1F07A
:101A800081110E946808EC2FF0E0EE0FFF1FE85470
:101A9000FF4FA591B491EC91ED2381E090E009F422
:101AA00080E0DF91CF91089580E090E0FACFCF926F
:101AB000DF92EF92FF92CF93DF93C0910301D09119
:101AC000040160E08C2F0E94BF080E94F0086B01A7
:101AD0007C01CE010E942E0D892BB1F40E94F008EA
:101AE0006C197D098E099F096135734C810591053B
:101AF00080F385E080932C0180E0DF91CF91FF900F
:101B0000EF90DF90CF90089581E0F7CFCF930E94C0
:101B1000FD0C0E94090D0E94570DC82F882391F0DB
:101B20000E94090D0E94DF0C0E94090D80910501A1
:101B3000909106010E942E0D892B21F484E0809360
:101B40002C01C0E08C2FCF910895EF92FF920F935C
:101B50001F93CF930E94DF0C0E94570DC82F811155
:101B600008C0C0E08C2FCF911F910F91FF90EF9094
:101B700008950E94090D0091050110910601C80108
:101B80000E942E0D892BF9F489E0E82EF12CC80172
:101B90000E942E0D892B71F40E94D30C0E94090D16
:101BA0000E94570D8823E9F20E94090D81E0E81A8E
:101BB000F10869F7C8010E942E0D892B21F484E0F9
:101BC00080932C01CECF0E94FD0C0E94090D0E9433
:101BD000D30C0E94090DC6CFCF93DF93D82F882353
:101BE000D9F00E94DF0C0E94090D0E94570DC82FEA
:101BF000882371F0DD2399F0809105019091060111
:101C00000E942E0D892B59F484E080932C01C0E0B2
:101C10008C2FDF91CF9108950E94FD0CE4CF0E949C
:101C2000090D0E94D30CF4CFEF92FF920F931F93F4
:101C3000CF93DF937B01C7E0D0E0082F10E0C8010D
:101C40000C2E02C0959587950A94E2F781700E9448
:101C5000EC0D811109C0C0E08C2FDF91CF911F9155
:101C60000F91FF90EF900895219748F70E94DF0CA5
:101C70000E94090D0E94570DC82F882361F380919F
:101C80000501909106010E942E0D8C010E94090D04
:101C90000E94D30C81E0012B09F080E0F7018083E2
:101CA000DBCF1F93CF93DF931F92CDB7DEB7182FF3
:101CB00010922C0119820E94A50D811108C00E946A
:101CC000E40C80912C01811113C084E011C0BE018D
:101CD0006F5F7F4F812F880F0E94140E882379F346
:101CE0000E94860D882359F38981811106C082E004
:101CF0000F90DF91CF911F91089580E0F9CF8F92DF
:101D00009F92AF92BF920F931F93CF93DF93CDB764
:101D1000DEB7A1970FB6F894DEBF0FBECDBF19A2F4
:101D2000423008F44AE08E010F5D1F4F842E912C43
:101D3000B12CA12CA50194010E94A32DE62FB9017D
:101D4000CA01EA3044F5E05DD801EE938D01232B02
:101D5000242B252B79F790E080E0109769F0FD01A6
:101D600001900020E9F73197AF014A1B5B0BBD01E1
:101D70008CEE93E00E941509A1960FB6F894DEBF91
:101D80000FBECDBFDF91CF911F910F91BF90AF904C
:101D90009F908F900895E95CD7CFFC0101900020BF
:101DA000E9F73197AF01481B590BBC018CEE93E06A
:101DB0000C9415090F931F93CF93DF93CDB7DEB724
:101DC00028970FB6F894DEBF0FBECDBF1F928F933A
:101DD0008EE393E09F938F931F9288E08F938E0101
:101DE0000F5F1F4F1F930F930E94BE29C8010E94CF
:101DF000CD0E0FB6F894DEBF0FBECDBF28960FB63E
:101E0000F894DEBF0FBECDBFDF91CF911F910F9130
:101E100008950F931F93CF93DF93CDB7DEB7289725
:101E20000FB6F894DEBF0FBECDBF8D3009F441C0B0
:101E30000CF5893009F442C08A30B1F1803208F0E3
:101E400042C01F928F9387E393E09F938F931F92DB
:101E500088E08F938E010F5F1F4F1F930F930E9497
:101E6000BE29C8010E94CD0E0FB6F894DEBF0FBE8A
:101E7000CDBF0FC0823239F08C3501F78CE50E945E
:101E8000020A8CE504C08CE50E94020A82E20E94EC
:101E9000020A28960FB6F894DEBF0FBECDBFDF91C1
:101EA000CF911F910F9108958CE50E94020A8EE652
:101EB000EECF8CE50E94020A82E7E9CF8CE50E9412
:101EC000020A84E7E4CF682F8CEE93E00E94B50904
:101ED000E0CFCF93DF93EC0182E20E94710B209759
:101EE00031F08991882319F00E94090FFACF82E21C
:101EF000DF91CF910C94710BCF93DF93EC0182E2D1
:101F00000E94710B209741F0FE018491882321F0FB
:101F10000E94090F2196F8CF82E2DF91CF910C94B5
:101F2000710BCF93DF93EC018CE20E94710BCE0119
:101F30000E947C0F8AE3DF91CF910C94710B86E0B5
:101F400091E00E94910F8BE50E94710B81E08093DC
:101F5000000108951F93CF93DF93182FD62FC42F1E
:101F60000E94180D85EF90E00E94760B812F0E9451
:101F7000DA0E8DED90E0DD2311F087EE90E00E9407
:101F8000760B81EF90E00E94910F8C2F0E94870BBF
:101F90008DE7DF91CF911F910C94710B4AE00C9467
:101FA0007F0ECF92DF92EF92FF9297FF0CC06B01F2
:101FB0007C018DE20E94020A66277727CB016C190B
:101FC0007D098E099F094AE0FF90EF90DF90CF9046
:101FD0000C947F0ECF92DF92EF92FF92CF93DF931C
:101FE000C82FC0907A03D0907B03E0907C03F090E0
:101FF0007D03D091790382E790E10E94760BDD2387
:1020000089F0C701B6010E94D10F86E690E10E94D7
:10201000760B8C2FDF91CF91FF90EF90DF90CF90D8
:102020000C94870B8DE690E10E94760BEECF81E059
:102030000E94EA0F0C94900B8F929F92AF92BF92E6
:10204000CF92DF92EF92FF920F931F93CF93DF9384
:1020500000D000D000D0CDB7DEB78C018CE295E087
:102060000E94760B8BE0809FF001819FF00D112480
:10207000E95EFD4FE081E15089E095E0E53038F41C
:10208000F0E0EE0FFF1FE95FFE4F808191810E941B
:102090007C0F2BE0209FC001219F900D11249C01FB
:1020A000295E3D4F7901F9018081813051F1D8F0ED
:1020B0008230F1F1833009F406C18DE70E94710B83
:1020C00026960FB6F894DEBF0FBECDBFDF91CF913D
:1020D0001F910F91FF90EF90DF90CF90BF90AF9046
:1020E0009F908F90089586E295E00E94910FC8011D
:1020F0000E942E0DBC01990F880B990B0E94D10FE5
:10210000DCCF80E295E00E94910FC8010E942E0D65
:10211000BC01990F880B990B0E94D10F8CE195E0BF
:102120000E94910FF701618170E090E080E0E6CFBE
:1021300087E195E00E94910FF701C380D480E5808C
:10214000F6808E2D880F8F2D881F8F3FB9F48CE07D
:1021500095E00E94760B84E195E00E94910F8BE060
:10216000809FF001819FF00D1124E95EFD4F678192
:102170007085818592850E94CE0F9FCFC701B601E1
:102180000E942B2F9B01AC01C701B6010E94EE29D2
:10219000811122C020E030E040E05FE4C701B601D9
:1021A0009F770E94EE2987FF17C0C701B6010E94E2
:1021B000F52E6B017C014AE0F7FE0BC08DE20E9418
:1021C000020A66277727CB016C197D098E099F09C2
:1021D0004AE00E947F0EBFCF20E030E0A901C70196
:1021E000B6010E94EE2987FF07C08DE20E94710BA5
:1021F000F7FAF094F7F8F094C701B6010E94FC2EAC
:102200004B015C010E94F3299B01AC01C701B6019F
:102210000E94162E20E030E04AE754E40E94542A3F
:102220000E94882F6B017C01F8EECF16F3E0DF06E9
:10223000E104F10458F02FEF821A920AA20AB20ABE
:1022400038EEC31A33E0D30AE108F1084AE0C501C9
:10225000B4010E947F0EC114D104E104F10409F419
:102260007ACF1C821B82C701B60124E630E040E031
:1022700050E00E94A32D205D29838AE0882E912CB6
:10228000A12CB12CC701B601A50194010E94A32D78
:10229000F62ECA01B901A50194010E94A32D605D2B
:1022A0006A8380E38F0D803349F08B838EE20E9436
:1022B000710BCE0101960E94CD0E4DCF1B82603373
:1022C000A9F71A82F3CFAE014B5F5F4FBE016F5F7C
:1022D0007F4FC8010E94270A81E195E00E94910F7B
:1022E00069817A818B819C8146CF8F929F92AF9238
:1022F000BF92CF92DF92EF92FF920F931F93CF93F3
:10230000DF93F82E4A015B01E90182E790E10E9428
:10231000760BFF20B1F1C501B4010E94D10F86E612
:1023200090E10E94760B8DE996E00E94760B82E5A3
:1023300093E00E94910FCE010E947C0F8EE493E007
:102340000E94910FC801EE2009F10E94690FD7FC8D
:102350000AC08AE493E00E94910FB601DD0C880B5D
:10236000990B0E94D10FDF91CF911F910F91FF9098
:10237000EF90DF90CF90BF90AF909F908F900C9494
:10238000900B8DE690E10E94760BC9CF0E947C0FE6
:10239000DECFCF92DF92EF920F931F938B016A01F2
:1023A000E9E7F3E04181528163817481E12C9C0172
:1023B00080810E9475111F910F91EF90DF90CF9057
:1023C0000895CF92DF92EF92FF920F931F93CF93D6
:1023D000DF938C01EB0169017A010E941D0BCE0194
:1023E0000E941D0B1093060100930501D093040178
:1023F000C0930301C114D104E104F104C9F060E207
:1024000071EA87E090E0A70196010E94A32D81E088
:1024100090E0A0E0B0E0211531054105510561F0E3
:10242000DA01C901853F21E09207A105B10520F03D
:1024300084EF91E0A0E0B0E090930201809301016D
:1024400060E0802F0E94910860E08C2F0E9491082C
:102450000E94E40C0631110550F48BE0809FF001DE
:10246000819FF00D1124E95EFD4F84E08083C63129
:10247000D10550F48BE08C9FF0018D9FF00D11245D
:10248000E95EFD4F84E0808381E0DF91CF911F9171
:102490000F91FF90EF90DF90CF900895CF92DF9251
:1024A000EF920F931F936B01E9E7F3E041815281B3
:1024B00063817481EE24E39409E013E09C01808140
:1024C0000E9475111F910F91EF90DF90CF900895AA
:1024D000CF92DF92EF920F931F93CC24CA94DC2CFF
:1024E000E12C8B019C0140E050E0BA0180E00E94A9
:1024F00075111F910F91EF90DF90CF900895CF93BA
:10250000DF93EC0182E20E94710BBE01DD0F880BAC
:10251000990B0E94D10F82E20E94710B8AE3DF9136
:10252000CF910C94710BEF92FF920F931F93CF9367
:10253000DF93CDB7DEB7AA970FB6F894DEBF0FBE14
:10254000CDBF8B017A01AB01BC01CE0101960E9487
:10255000C12F81E090E08C0F9D1F080F191FF8011B
:1025600010821AA619A6BE01675D7F4F0E94172729
:1025700029A53AA520173107C9F4282F220F292FA2
:10258000221F2F3F99F0F701608371838283938329
:1025900081E0AA960FB6F894DEBF0FBECDBFDF91E3
:1025A000CF911F910F91FF90EF90089580E0F1CFB0
:1025B0008F929F92AF92BF92CF92DF92EF92FF9253
:1025C0000F931F93CF93DF93EC016B01CB010E941C
:1025D0009D294C01FE01E459FF4FA080B1808E017E
:1025E000F12CE12CEA14FB044CF5F8018281938173
:1025F00088159905E9F4A401B601808191810E94B2
:102600008729892BA9F429E02E9DC0012F9D900DCB
:1026100011248C0F9D1FDF91CF911F910F91FF907F
:10262000EF90DF90CF90BF90AF909F908F900895E4
:10263000FFEFEF1AFF0A075F1F4FD4CF90E080E053
:10264000EACF4F925F926F927F928F929F92AF925A
:10265000BF92CF92DF92EF92FF920F931F93CF938F
:10266000DF93CDB7DEB7CA55D1090FB6F894DEBFF8
:102670000FBECDBF182F4B016A016BE270E18EE7F0
:1026800093E00E94D812FC01892B09F4E9C08085EF
:10269000853009F0E5C067961FAE1EAE67972481AE
:1026A0003581C901019663969FAF8EAF639786818E
:1026B00097810197280F391F65963FAF2EAF659719
:1026C000CE018F5A9F4F0E94B90C63962EAD3FAD3D
:1026D000639765968EAD9FAD65972817390708F00B
:1026E0008BC0CE0101967C0110E000E0CE018F5A34
:1026F0009F4F0E94B90C6396AEACBFAC63976596D2
:102700008EAD9FAD6597A816B90608F0A9C0F50172
:1027100080818D3221F080538A3008F0A1C0CE0133
:102720008F5A9F4F0E94940B882309F499C0639697
:102730006EAD7FAD63976A197B09CB0101978797CF
:1027400008F08EC0AE01495A5F4FC5010E94931236
:10275000882309F485C06B964CAC5DAC6EAC7FAC45
:102760006B97C301B2010E942B2F9B01AC01C301E7
:10277000B2010E94EE29811173C020E030E040E0F8
:102780005FECC301B2010E94EE2987FD69C020E021
:1027900030E040E05FE4C301B2010E94832F1816CD
:1027A0000CF45EC0C301B2010E94F52E0431110584
:1027B00009F4D2C00F5F1F4FF701619371938193AA
:1027C00091937F01CE018F5A9F4F0E94B90C63965F
:1027D000EEADFFAD639765968EAD9FAD6597E8173B
:1027E000F90708F05EC080818C32D1F5319663968E
:1027F000FFAFEEAF63977ACF111151C080E89FE031
:102800009F938F931F9280E78F9389E093E09F932C
:102810008F930E94BE296FEF7FEF87E79FE00E94B2
:102820004E120F900F900F900F900F900F90812FDE
:10283000C65ADF4F0FB6F894DEBF0FBECDBFDF9193
:10284000CF911F910F91FF90EF90DF90CF90BF90AD
:10285000AF909F908F907F906F905F904F90089572
:102860001F9283E18F931F9282E18F9388EB9FE009
:102870009F938F931F9280E78F9389E093E09F93BC
:102880008F930E94BE296FEF7FEF8FEA9FE00E9437
:102890004E120FB6F894DEBF0FBECDBF46C010E09B
:1028A00000E0F60111821082CE0101965C01F12C4C
:1028B000E12CE016F1060CF04DC0F501419051906D
:1028C000619071905F0140E0C301B2010E94710A02
:1028D0009B01672BD1F4F6018081918150E040E0AB
:1028E00020E0481759071CF521110CC0FA01EE0F22
:1028F000FF1FE80DF91D21E06081718164157505E8
:1029000009F020E04F5F5F4FECCFF0E14F16F7E2A8
:102910005F066104710420F044244A94542C32016F
:10292000A201BC01C9010E94C91110E080CF211190
:102930000DC09C012F5F3F4FF60131832083880F2C
:10294000991FF401E80FF91F51824082FFEFEF1A3F
:10295000FF0AAFCF11E06BCF1F9284E18F938CEF12
:102960009FE09F938F931F9280E78F9389E093E07E
:102970009F938F930E94BE296FEF7FEF83EF9FE0BD
:1029800086CF6F927F929F92AF92BF92CF92DF924B
:10299000EF92FF920F931F93CF93DF933A01590168
:1029A0000E94D812DC01892B79F480E0DF91CF916D
:1029B0001F910F91FF90EF90DF90CF90BF90AF905D
:1029C0009F907F906F90089518968C911897813002
:1029D00061F77301F0E0E0E050E040E016968D9181
:1029E0009C911797E817F90708F072C014960D919B
:1029F0001C91159798012E0F3F1FE9012881BF01F7
:102A00002C3599F46F5F7F4F6817790708F05CC029
:102A10009801260F371FE90128812E36E1F08CF44A
:102A2000223609F453C02636A1F04F5F5F4F4A1596
:102A30005B0509F4BACFF70121937F01FB013196C1
:102A4000CDCF243751F0253751F0223771F72DE0E3
:102A5000ECCF2CE0EACF2AE0E8CF29E0E6CF3596AC
:102A60006B0130E020E06F5F7F4F6817790750F50A
:102A70006801C60ED71EE6019880690124E0CC0CDF
:102A8000DD1C2A95E1F720ED290D2A3098F4292D37
:102A9000990C330B205331092C0D3D1D6B016E1722
:102AA0007F0709F7C90101978F37910508F4BDCF5A
:102AB0002FE3BBCF292D2062022E000C330B2755AC
:102AC0003109EACFB601EECFBF01AFCF28E0ADCFDD
:102AD000E301C40FD51F188281E068CFCF93DF9345
:102AE000EA010E94D812FC01892B81F08085823096
:102AF00069F466817781CB010197879738F4AE013D
:102B000084819581DF91CF910C94931280E0DF91C5
:102B1000CF910895AF92BF92CF92DF92EF92FF9242
:102B20001F93CF93DF9300D000D0CDB7DEB75A010B
:102B3000AE014F5F5F4F0E946E15182F882369F119
:102B4000C980DA80EB80FC80C701B6010E942B2F80
:102B50009B01AC01C701B6010E94EE2981112CC076
:102B600020E030E040E05FECC701B6010E94EE29B2
:102B700087FD22C020E030E040E05FE4C701B601FD
:102B80000E94832F1816C4F0C701B6010E94F52ECB
:102B9000F5016083718382839383812F0F900F905F
:102BA0000F900F90DF91CF911F91FF90EF90DF90EA
:102BB000CF90BF90AF90089510E0EFCF4F925F920B
:102BC0006F927F928F929F92AF92BF92CF92DF923D
:102BD000EF92FF920F931F93CF93DF93CDB7DEB7A2
:102BE00028970FB6F894DEBF0FBECDBF982E892E62
:102BF0004D835E836F83788728013901682F792F91
:102C00008EE793E00E94D812892B09F58D819E8171
:102C1000AF81B885F50180839183A283B38381E07E
:102C200028960FB6F894DEBF0FBECDBFDF91CF91CF
:102C30001F910F91FF90EF90DF90CF90BF90AF90DA
:102C40009F908F907F906F905F904F900895AE010E
:102C50004F5F5F4F692D782D8EE793E00E948A15B4
:102C60008823A9F049815A816B817C8144155505DF
:102C70006605770564F0C416D506E606F7063CF04F
:102C8000D5014D935D936D937C931397C9CFFF92BC
:102C9000EF92DF92CF927F926F925F924F928F92DC
:102CA0009F9289E390E19F938F931F9280E78F9388
:102CB00089E093E09F938F930E94BE296FEF7FEF8F
:102CC00080E390E10E944E120FB6F894DEBF0FBE73
:102CD000CDBF80E0A5CFCF92DF92EF92FF920F930E
:102CE0001F93CF93DF9300D000D0CDB7DEB7082F6E
:102CF000D92EC62E7A01AE014F5F5F4F682F792F14
:102D00008EE793E00E948A15182F81112BC01F9225
:102D100082E18F93DF920F938CE49FE09F938F93D8
:102D20001F9280E78F9389E093E09F938F930E9497
:102D3000BE296FEF7FEF83E49FE00E944E120FB633
:102D4000F894DEBF0FBECDBF812F0F900F900F9074
:102D50000F90DF91CF911F910F91FF90EF90DF9037
:102D6000CF90089569817A818B819C814C2D0E943E
:102D7000710ADC01CB01009791F049815A816B8186
:102D80007C814031E7E25E076105710518F04FEF85
:102D90005FEFBA01BD010E94C91110E0D5CF898152
:102DA0009A81F70191838083CFCF8F929F92AF92C8
:102DB000BF92CF92DF92EF92FF920F931F93CF9328
:102DC000DF9300D000D0CDB7DEB77C018B014A0184
:102DD000AC0161E08FE39FE00E946B16811112C08D
:102DE00080E00F900F900F900F90DF91CF911F9187
:102DF0000F91FF90EF90DF90CF90BF90AF909F909A
:102E00008F900895A80161E08BE39FE00E946B160C
:102E1000882331F3F70140815181F801808191814C
:102E20004817590739F46AE07FE082E39FE00E9487
:102E3000C911D6CFCE0101965C0180E4C82E82E490
:102E4000D82E8FE0E82EF12C08EE13E020E030E0E1
:102E500040EA56E861E070E087E09FE00E94DE15FE
:102E6000882309F4BECF49815A816B817C81F401AA
:102E70004083518362837383B4CFEF92FF920F93A9
:102E80001F93CF93DF93CDB7DEB762970FB6F89459
:102E9000DEBF0FBECDBF8C017B01BC018EE793E08E
:102EA0000E94D812009741F1FC0180858230A9F47C
:102EB000A701B8018EE793E00E948A15182F812F91
:102EC00062960FB6F894DEBF0FBECDBFDF91CF91F3
:102ED0001F910F91FF90EF900895813069F420E1E8
:102EE00030E0AE014F5F5F4FB8018EE793E00E9484
:102EF000C114182F811102C010E0E1CF898188230D
:102F0000D9F3803301F58A818F7D8835E1F48B8197
:102F1000882391F340E150E0CE010396FC0161E08B
:102F200021912223D1F030ED320F4031510591F43F
:102F30003A3070F02F7D215431E0263008F030E037
:102F4000361771F3D9CF4AE050E0CE010196E6CFB3
:102F5000312FF6CF3A3080F6E3CF1A8A198ABE01B4
:102F60006F5E7F4F0E946728E989FA8920812111CD
:102F7000C3CFF7016083718382839383A0CFCF9205
:102F8000DF92EF92FF920F931F93CF93DF93EC01A9
:102F90006B01CB010E949D297C01088119818A81E6
:102FA0009B81801B910B8E159F0538F0A701B60100
:102FB000C8010E948729892B51F08C819D81892B22
:102FC00021F489E292E09D838C8380E005C00E0DA0
:102FD0001F1D1983088381E0DF91CF911F910F910D
:102FE000FF90EF90DF90CF9008952F923F924F92F5
:102FF0005F926F927F928F929F92AF92BF92CF9289
:10300000DF92EF92FF920F931F93CF93DF9300D045
:1030100000D01F92CDB7DEB77C015B014A012901C8
:1030200038010E94B90CD701CD90DC90119712960F
:103030008D919C911397C816D90668F014968D91BE
:103040009C91892B11F080E013C083E293E0F7019B
:1030500095838483F8CFD6013C90B2E23B1220C026
:1030600081E0F4018083A801B201C7010E94270C0E
:103070000F900F900F900F900F90DF91CF911F91B5
:103080000F91FF90EF90DF90CF90BF90AF909F9007
:103090008F907F906F905F904F903F902F9008950A
:1030A000FBE73F1609F418C18BE53812C3C0A4E052
:1030B000AA16B10444F0F70184819581892B19F691
:1030C00081E093E0C5CFFFEFAF1ABF0A9DE5292E3F
:1030D000C6010196D7018D939C93C7010E94B90C3C
:1030E000D701ED91FC91119712968D919C911397B8
:1030F000E817F90728F480813196821509F47BC01E
:10310000BBE73B1242C0C7010E94B90CD701ED9149
:10311000FC91119712968D919C91E817F90718F47C
:103120008081823249F0F70184819581892B09F0F1
:103130008ACF8AEB92E08CCFAE014F5F5F4FBE012A
:103140006D5F7F4FC7010E94270C882309F47BCF56
:10315000C7010E94B90CD701ED91FC91119712960D
:103160008D919C911397E817F90718F480818A33A1
:1031700049F0F70184819581892B09F064CF80EAB9
:1031800092E066CF3196ED93FC938E010F5F1F4F57
:103190009E012D5F3F4FAE014B5F5F4FB501C701F1
:1031A0000E94F517882309F44ECFC7010E94B90C7D
:1031B000D701ED91FC91119712968D919C911397E7
:1031C000E817F90770F014968D919C911597892B4B
:1031D00009F039CF86E792E015969C938E93149769
:1031E00032CF80818C3221F43196ED93FC9388CFDD
:1031F000281217C03196ED93FC93FBE785E03F1250
:1032000001C086E0D4018C93F201D182C082D70143
:103210008D919C918C199D09F3019183808381E0AC
:1032200027CFF70184819581892B09F00CCF83E5A5
:1032300092E00ECFFDE23F1621F080ED830D8A3043
:10324000A8F4C7010E94940B882309F4FCCE92E0F5
:10325000D4019C93F201D182C082D7012D913C917F
:103260002C193D09F3013183208302CF84E7381202
:1032700009C06CEF72E0C7010E94BF1793E0D40150
:103280009C930BC0B6E63B1214C066EF72E0C70118
:103290000E94BF1793E0F4019083D201CD92DC929B
:1032A000F701208131812C193D09D3012D933C93E5
:1032B000DFCEFEE63F1207C061EF72E0C7010E9459
:1032C000BF1794E0DCCFF70184819581892B09F049
:1032D000BACE8BED92E0BCCEE4E0AE16B1040CF0B9
:1032E000EACEBFEFAB1ABB0A8DE7282EF1CE1F92B4
:1032F0000F920FB60F9211242F933F938F939F93AA
:10330000AF93BF9380910F0290911002A091110290
:10331000B091120230910E0223E0230F2D3758F5A1
:103320000196A11DB11D20930E0280930F02909370
:103330001002A0931102B093120280911302909197
:103340001402A0911502B09116020196A11DB11DA3
:103350008093130290931402A0931502B093160267
:10336000BF91AF919F918F913F912F910F900FBE81
:103370000F901F90189526E8230F0296A11DB11DEE
:10338000D2CF1F920F920FB60F9211242F933F931B
:103390004F935F936F937F938F939F93AF93BF935D
:1033A000EF93FF938CEE93E00E949309FF91EF91CE
:1033B000BF91AF919F918F917F916F915F914F914D
:1033C0003F912F910F900FBE0F901F9018951F9255
:1033D0000F920FB60F9211242F938F939F93EF9319
:1033E000FF93E091FC03F091FD038081E0910204E2
:1033F000F091030482FD1BC09081809105048F5FD2
:103400008F7320910604821741F0E0910504F0E0EB
:10341000E451FC4F958F80930504FF91EF919F91AC
:103420008F912F910F900FBE0F901F901895808154
:10343000F4CFCF93DF93CDB7DEB7CF5DD1090FB611
:10344000F894DEBF0FBECDBF789484B5826084BD92
:1034500084B5816084BD85B5826085BD85B5816098
:1034600085BD80916E00816080936E001092810016
:1034700080918100826080938100809181008160D1
:103480008093810080918000816080938000809192
:10349000B10084608093B1008091B000816080931E
:1034A000B00080917A00846080937A0080917A00E5
:1034B000826080937A0080917A00816080937A00A4
:1034C00080917A00806880937A001092C100E09128
:1034D000FC03F091FD0382E08083E091F803F0911A
:1034E000F9031082E091FA03F091FB0380E18083FD
:1034F00010920404E0910004F091010486E08083BE
:10350000E091FE03F091FF03808180618083E09170
:10351000FE03F091FF03808188608083E091FE03C9
:10352000F091FF03808180688083E091FE03F09139
:10353000FF0380818F7D808307E112E0C12CD12CB5
:103540007601B701A60185E395E00E94520A811138
:10355000D1C0C701B6010E94F90A882309F4CCC082
:1035600083E0D8018C9311961C92119712961C92AD
:103570001297F801138214821582168217961D92F3
:103580001D921D921C921A97C701B6010E94CC0A87
:10359000882391F0B701A60188E395E00E94520AC2
:1035A00081110AC0C701B6010E94F90A811104C045
:1035B00060E08C2D0E94BF08BFEFCB1ADB0AEB0A3C
:1035C000FB0A055F1F4FE6E1CE16D104E104F104CA
:1035D00009F0B7CF86E695E00E94760B8DE595E081
:1035E0000E947C0F85E595E00E94760B81E595E0D1
:1035F0000E947C0F8BE495E00E94910F8EE395E092
:103600000E947C0F8BE395E00E94760B21E831E06D
:10361000CA52DF4F39832883C65DD0401E013DE981
:10362000230E311CCA52DF4F48815981C65DD040FC
:1036300041505109CA52DF4F59834883C65DD0407B
:10364000452B11F40C945C268CEE93E00E947309D8
:103650001816190614F00C945C268CEE93E00E9468
:10366000510997FF02C00C945C268A30910511F035
:103670000C943926F090EF016CE57EE08CE89EE03A
:10368000F11084C08091ED019091EE01009709F452
:103690007FC0DC01A35DBE4F1C92EDE2F1E09F0113
:1036A0002D5231402817390708F072C0219120327D
:1036B000B1F32930A1F31E821D828DE291E09A833D
:1036C0008983BC83AB831092EB031092EA039E01C3
:1036D0002F5F3F4F2901C9010E94B90CE981FA818E
:1036E0008B819C81E817F90748F066EB7CE083E565
:1036F0009EE04CC085E035CF80E033CF80818B37B2
:10370000A1F73196FA83E983C2010E94B90CE981DD
:10371000FA818B819C81E817F90708F040C080810D
:103720008D37E9F53196FA83E983C2010E94B90C1D
:1037300029813A818B819C8167EC7BE028173907CE
:10374000B1F61092790310927A0310927B031092D3
:103750007C0310927D0360E57EE08EE793E00E949B
:10376000D812009709F4ECC0FC018085843009F47C
:10377000E7C0A2016DE47EE08EE793E00E948A1527
:103780008111CFC067E27EE084E49EE00E9468126F
:103790001092EE011092ED011092EF0143CF99E0EB
:1037A000E92EC2010E94B90CE981FA818B819C81CA
:1037B000E817F90718F48081823289F08D819E81A3
:1037C000892B21F485E99CE09E838D836D817E8128
:1037D0006115710509F08BCF62EF7BE088CFA10105
:1037E000BE016F547F4FC2010E94270C882371F3E2
:1037F000C2010E94B90CE981FA818B819C81E81792
:10380000F90718F480818A3339F08D819E81892BE4
:10381000E9F68BE79CE0D8CF3196FA83E983CB5366
:10382000DF4F1882C55CD040C757DF4F198218821E
:10383000C958D040E3961FAE1EAEE3978E010F58D5
:103840001F4F9E0127573F4FAE014B535F4F61E023
:1038500070E0C2010E94F517882309F4B7CF809168
:10386000EA039091EB038C30910544F08D819E81A9
:10387000892B09F0ABCF8AE59CE0A6CF9C012F5F96
:103880003F4F3093EB032093EA03E89EF001E99E5B
:10389000F00D1124E758FC4FCF54DF4F88819981F8
:1038A000C15BD04096838583D1018D919C91908797
:1038B0008783C757DF4F88819981C958D040928745
:1038C0008187E3968EAD9FADE39794878387CB5333
:1038D000DF4F8881C55CD0408587C2010E94B90C4A
:1038E000E981FA818B819C81E817F90740F08D818D
:1038F0009E81892B09F06ACF84E39CE065CF8081AB
:103900008C3221F43196FA83E9834BCF8D3709F459
:1039100009CF8D819E81892B09F058CF81E19CE0F0
:1039200053CF81E08093790389819A81AB81BC81F7
:1039300080937A0390937B03A0937C03B0937D03E1
:1039400063E27EE08EE793E00E94D812009749F48C
:103950004FEF5FEF60EE7DE08AE19EE00E94C911CB
:1039600017CFDC0118968C91813039F04FEF5FEF63
:103970006EEA7DE087ED9DE0F1CF28E130E0AE0119
:103980004F585F4F6AEA7DE08EE793E00E94C114D2
:10399000E82E882311F40C94312661EC7BE0CE01F3
:1039A0008F589F4F0E949429892BD9F581E00E945E
:1039B000EA0F8DEB95E00E94910F84EB95E00E9459
:1039C0007C0F80EB95E00E94910F8CEA95E00E94BD
:1039D0007C0F87EA95E00E94910F8CE995E00E94A8
:1039E0007C0F83E995E00E94910F8091890490916A
:1039F0008A04009711F48FE894E0B201681B790BF8
:103A0000072E000C880B990B0E94CE0F8DE895E0D5
:103A10000E94910F80E895E00E947C0F0E94900B1D
:103A2000B7CE6CEB7BE0CE018F589F4F0E9494295C
:103A3000892B99F581E00E94EA0F8CED95E00E94B8
:103A4000910F8BE70E94710B06EC15E08CEDC82EF0
:103A500085E0D82EF801F4904F2D50E070E060E042
:103A600083EC95E00E94520A81110EC0E11003C060
:103A70008CE20E94710BEF2CF12CC7010E947F1287
:103A8000C7010E941C10E12C0F5F1F4FC016D1060A
:103A900009F78DE70E94710BC1CF62EB7BE0CE018D
:103AA0008F589F4F0E949429892B59F481E00E94DE
:103AB000EA0F8CE20E94710B81EE95E00E94760B7A
:103AC000E8CF65EA7BE0CE018F589F4F0E94942992
:103AD0003C01892B09F08DC1CB53DF4F198218822D
:103AE000C55CD040AE014B535F4FB20180E00E94F5
:103AF0002113E82E882309F44BCEC452DF4F59829C
:103B00004882CC5DD040620110E000E0CB53DF4F33
:103B100088819981C55CD040081719070CF47AC0D8
:103B20006E01F1EBCF0ED11C9E0127573F4FCC52B7
:103B3000DF4F39832883C45DD040C252DF4F5982A2
:103B40004882CE5DD040C852DF4F39832883C85D9C
:103B5000D040C652DF4F39822882CA5DD040CE5253
:103B6000DF4FD982C882C25DD040CB53DF4F28815E
:103B70003981C55CD040CE52DF4F88819981C25DCA
:103B8000D0408C199D09821793070CF094C0C25243
:103B9000DF4FA881B981CE5DD0400D911D91C252F9
:103BA000DF4FB983A883CE5DD040C8010E941D0BB2
:103BB0000E94F0084B015C0122E030E040E050E060
:103BC000C253DF4F288339834A835B83CE5CD04066
:103BD0000E94F008681979098A099B09683E7340B8
:103BE00081059105A8F338EE830E33E0931EA11CE6
:103BF000B11CC253DF4F88819981AA81BB81CE5C01
:103C0000D0400197A105B10501F121E030E040E08D
:103C100050E0D6CFD6016D917D916D01072E000C3D
:103C2000880B990B0E94F90A882361F0000F111F7D
:103C3000400E511EF201408151816AE77AE08CEC1E
:103C40009AE08CCE0F5F1F4F61CFC8010E942E0DEE
:103C5000C852DF4FA881B981C85DD040E1E0ED9343
:103C6000C852DF4FB983A883C85DD040009721F0C8
:103C7000FD0131971082FE2CCE52DF4FA881B98111
:103C8000C25DD0408D93CE52DF4FB983A883C25D11
:103C9000D04021E0019709F020E0C652DF4FE881D3
:103CA000F981CA5DD0402193C652DF4FF983E88382
:103CB000CA5DD0405ACF81E00E94EA0F82E096E0D0
:103CC0000E94910F8BE70E94710B8101C80182193C
:103CD0009309CB53DF4F28813981C55CD0408217CF
:103CE00093078CF4892B19F08CE20E94710BD2019E
:103CF0008D919D912D010E947F12F80181918F017C
:103D00000E94870BE3CF8DE70E94710B8BEF95E04C
:103D10000E94910F8BE70E94710B8601C8018C19DC
:103D20009D09CB53DF4F28813981C55CD040821774
:103D30009307F4F4892B19F08CE20E94710BC452A2
:103D4000DF4FA881B981CC5DD0408D919D91C45247
:103D5000DF4FB983A883CC5DD0400E947F12F80169
:103D600061918F0170E090E080E00E94D10FD6CF8A
:103D70008DE70E94710BFF2009F450CE8FEE95E085
:103D80000E94910F8BE50E94710BCB53DF4F88810E
:103D90009981C55CD040681679060CF0D4C0CC522D
:103DA000DF4FA881B981C45DD0408D91CC52DF4FE7
:103DB000B983A883C45DD040811117C0F11003C03E
:103DC0008CE20E94710BF301EE0FFF1F21E030E047
:103DD0002C0F3D1FE20FF31F60817181072E000C35
:103DE000880B990B0E94D10FF12C3FEF631A730AD5
:103DF000CCCF6CE97BE0CE018F589F4F0E94942975
:103E00008C01892B09F0ADC0AE0147575F4FB1015E
:103E1000CE018F549F4F0E94D516882309F4B8CC49
:103E2000C757DF4F288139814A815B81C958D0400B
:103E3000D1016D917C91CF54DF4F88819981C15B15
:103E4000D0400E94E111882309F4A2CCF12CE12C8E
:103E5000E8E09E2E892D0E94510E882E81110EC001
:103E6000F201EE0DFF1D9082F70131967F019394D0
:103E700028E79212EFCF912C812C03C0F2E08F172C
:103E8000B1F3D101CD90DC90CF54DF4FA880B98041
:103E9000C15BD0400E94EB0CC5010E941D0BC60106
:103EA0000E941D0B81E0811080E00E94EA0F8820B3
:103EB000B9F080E296E00E94910F86E196E00E94C0
:103EC0007C0F89E896E00E94910F86E296E00E94BE
:103ED0007C0F81E196E00E94910F892D0E94DA0EFD
:103EE0008BE096E00E94910F8BE50E94710B6201BE
:103EF0000E151F0571F00115110519F08CE20E94D5
:103F0000710BF60181916F010E94DA0E0F5F1F4F56
:103F1000EFCF8DE50E94710B0E949F0F01151105D7
:103F2000A1F072010E94280D41E060E0D7018D915F
:103F30007D010E94AA0F0E94220DC70184199509D4
:103F4000801791077CF38DE5A5CD8110FCCF0E94F1
:103F5000280D40E060E088E00E94AA0F0E94220D38
:103F6000F2CF63E97BE0CE018F589F4F0E949429E6
:103F7000892B09F08CC2AE014B535F4FBE016753D2
:103F80007F4FCE0185539F4F0E94D516882309F499
:103F9000FFCBBE016F547F4F82EB98E00E943D172C
:103FA0008823F1F0CF54DF4F88819981AA81BB81AA
:103FB000C15BD0400897A109B10980379105A105DF
:103FC000B10570F4B1018EEA98E00E943D178111AD
:103FD0000EC04FEF5FEF6FEF77E08AE498E0BECC62
:103FE0004FEF5FEF67E578E085EA98E0B7CCF10145
:103FF00080819181A281B3818F3F9105A105B10597
:1040000009F038F79E0127573F4F590170E2C72E3C
:10401000D12CE12CF12C01E010E020E030E041E077
:1040200050E060E070E083E598E00E94DE158823B0
:1040300009F4AECBCB53DF4F288139814A815B81B4
:10404000C55CD040C753DF4F68817981C95CD040DF
:10405000C553DF4F88819981CB5CD0400E94E1112C
:10406000882309F495CBC757DF4FA880B980C9587A
:10407000D040D1010C91CF54DF4F1881C15BD040AB
:1040800010922C01C353DF4F1882CD5CD0400E94A8
:10409000A50D811105C00E94E40C10E000E09AC05B
:1040A000BE0163537F4F812F880F0E94140E882317
:1040B00091F3C353DF4F8881CD5CD040882341F01A
:1040C000BE0163537F4F802F0E94140E882319F383
:1040D000C353DF4F8881CD5CD040882349F10E94D3
:1040E000DF0C0E94090D0E94570D8823A1F28091D8
:1040F0000501909106010E942E0D892B21F484E088
:1041000080932C01C8CF0E94090D0E94FD0C0E94D3
:10411000090D0E94D30C0E94090D812F880FBE014A
:1041200063537F4F81600E94140E882309F4B3CF3C
:10413000C353DF4F8881CD5CD040720110E000E0B6
:10414000811106C00E94860D8111A7CFA4CF8401E2
:104150000A151B05D8F54801BFEF8B1A9B0AF7011A
:10416000108268E0C62ED12C0E94DF0C0E94090D3F
:104170000E94570D882339F1809105019091060125
:104180000E942E0D3C010E94090D0E94D30CD70104
:104190008C9190E0880F991F21E0672809F420E0B6
:1041A000822BF7018083F1E0CF1AD108E9F681E094
:1041B0008A149B0408F480E00E94EC0D2FEFE21AB1
:1041C000F20A8111C4CF0E94E40C04C00E94860D43
:1041D0008823C9F3C757DF4F88819981C958D040D8
:1041E0008017910709F096C0C753DF4FE880F98028
:1041F000C95CD040C553DF4FC880D980CB5CD0406C
:104200000E94EB0CC6010E941D0BC7010E941D0BF2
:1042100081E00E94EA0F8AEF97E00E94910F8BE500
:104220000E94710B6201F12CE12CE016F10678F48A
:10423000E114F10419F08CE20E94710BD6018D910A
:104240006D010E94DA0EBFEFEB1AFB0AEECF8DE58F
:104250000E94710B0E949F0F0E94280D41E060E0B8
:10426000CF54DF4F8881C15BD0400E94AA0FF1017B
:10427000F0800E94180D82EC96E00E94760B8F2D44
:104280000E94DA0E83EB96E00E94760B8EEB96E0AE
:104290000E94910F83EA96E00E94760B8DE70E94C0
:1042A000710B0E94180D8DE896E00E94760B41E09C
:1042B00061E0CF54DF4F8881C15BD0400E94AA0FDC
:1042C000F12CE12CE016F10608F048CEFFEFEF1AD2
:1042D000FF0ADD24D394E016F10608F0D12CD201B8
:1042E000CD902D010E94180D82EC96E00E94760B75
:1042F0008C2D0E94DA0E88EA96E00E94760B8EEBF7
:1043000096E00E94910F8D2D0E94870B8DE70E94F1
:10431000710BD8CFCF54DF4F8881C15BD0400E9452
:10432000510EB82EC753DF4FE880F980C95CD040EA
:10433000C553DF4FC880D980CB5CD0400E94EB0CC6
:10434000C6010E941D0BC7010E941D0B80E00E9448
:10435000EA0FB2E0BB1254C0CC54DF4F8881C45B7B
:10436000D0408F93CD54DF4F8881C35BD0408F9373
:10437000CE54DF4F8881C25BD0408F93CF54DF4F44
:104380008881C15BD0408F9386EA97E09F938F939B
:104390001F9280E78F9389E093E09F938F930E9411
:1043A000BE2980EA97E00E94910F8BE997E00E9476
:1043B0007C0F87E997E00E94910F89E093E00E94CB
:1043C000690F80E997E00E94910F8BE897E00E94C7
:1043D0007C0F0FB6F894DEBF0FBECDBF0E949F0FBB
:1043E0008B2D8D7F09F0AFCD0E94280D41E0B110DB
:1043F00040E060E0CF54DF4F8881C15BD040ACCD5E
:10440000B11034C085E897E00E94910F84EF96E0E8
:104410000115110511F488EE96E00E947C0F81E8E9
:1044200097E00E94910F8FEF96E00E947C0F01159C
:104430001105A1F283EE96E00E94910F8BE50E9498
:10444000710BF12CE12CD2018D912D010E94DA0E1D
:10445000BFEFEB1AFB0AE016F10621F48DE50E948E
:10446000710BBCCF8CE20E94710BEDCF8DED96E00D
:104470000E94910F83ED96E00E947C0F89E896E000
:104480000E94910F86E296E00E947C0FA7CF6FE812
:104490007BE0CE018F589F4F0E949429892B09F011
:1044A000A6C0A10160E08FE299E00E946B1688230C
:1044B00009F46EC9F10140815181052E000C660B93
:1044C000770B87EB98E00E94520AD101811120C03E
:1044D00011968C9111978F938C918F9386EE98E023
:1044E0009F938F931F9280E78F9389E093E09F9330
:1044F0008F930E94BE29F101608171818EED98E059
:104500000E944E120FB6F894DEBF0FBECDBF40C959
:104510008D919C918631910558F42BE0289FF001F4
:10452000299FF00D1124E95EFD4F2081233011F009
:104530000E941D0BAE0147575F4FB201F101808110
:1045400091810E94270AD1010D911C918BE0809FDF
:10455000F001819FF00D1124E95EFD4F80818230D2
:1045600021F460E0802F0E9491088BE0809FF00191
:10457000819FF00D1124E95EFD4F83E0808381E08F
:104580000E94EA0F8BED98E00E94910F69817A8179
:104590008B819C810E94CE0F87ED98E00E94910F45
:1045A000C757DF4F68817981C958D04090E080E0DB
:1045B0000E94CE0F83ED98E00E94910F8BEC98E063
:1045C0000E947C0F8FEB98E00E94910F68E873E1E6
:1045D00080E090E00E94CE0F8AEB98E00E94910F5D
:1045E0006AE070E080E090E00E94CE0F17CA6BE8AE
:1045F0007BE0CE018F589F4F0E949429892B09F0B0
:104600004EC1A10161E088E39AE00E946B16882305
:1046100009F4BEC863E37AE08EE793E00E94D81203
:10462000892BA9F06EE27AE08EE793E00E94D8121F
:10463000009709F495C0FC012085233009F090C053
:104640000480F581E02D8081843709F490C0AE01AB
:1046500047575F4F62E07AE08EE793E00E946E1565
:10466000882309F48DC0C757DF4FC880D980EA80FE
:10467000FB80C958D04020E030E0A901C701B60155
:104680000E94EE2987FD7CC020E030E048EC52E437
:10469000C701B6010E94832F18160CF471C0520195
:1046A00040E4C42E42E4D42E4FE0E42EF12C01E08D
:1046B00010E020E030E048E853E160E070E08FEF88
:1046C00099E00E94DE15882309F462C8C757DF4FBE
:1046D000488059806A807B80C958D040F1010081B0
:1046E00011810330110549F0C80105978230910509
:1046F00020F00497039708F0C2C0F801ED50F14F85
:10470000E491E15031ED832E33E0932EA12CB12CB6
:10471000E23030F02AEE822E99249394A12CB12C11
:1047200020E030E04FE753E4C301B2010E94542A75
:1047300020E030E048EC52E40E94832E0E94882F53
:10474000F62EE72EC62ED72E61E0802F0E94BF08DE
:10475000C114D104E1F460E0802F0E94910848C0A8
:104760004FEF5FEF67E07AE085E29AE0F7C8D101AA
:104770008D919C910E941D0B0E9417100C94C81BD8
:104780004FEF5FEF6BEC79E086EF99E0E7C8FFEF62
:10479000CF16D10411F461E0DFCFF801FF27ED500F
:1047A000F14FE491E33009F44EC050F4E130E1F010
:1047B000E23009F443C020E8C216D10464F7CBCF3D
:1047C000E73009F44CC0E83009F451C0E43099F7FF
:1047D000809180008062809380008F2D9E2D909329
:1047E0008B0080938A0004C084B5806884BDF7BCC8
:1047F0008BE0809FF001819FF00D1124E95EFD4F59
:1048000082E08083438254826582768287829086AA
:10481000A186B28681E00E94EA0F89819A81AB81EC
:10482000BC8188159905AA05BB0509F4F7C88BE377
:1048300099E00E94910FC501B401D6CE84B5806283
:1048400084BDF8BCD5CF80918000806880938000C3
:104850008F2D9E2D9093890080938800C9CF8091E1
:10486000B00080688093B000F092B300C1CF809117
:10487000B00080628093B000F092B400B9CF63E3DF
:1048800079E083E291E00E949429A80162E779E04F
:10489000892B11F06EE379E083E399E05FC860E86B
:1048A0007BE0CE018F589F4F0E949429892B09F0FD
:1048B0007DC0AE0147575F4F61E086E79AE00E94F6
:1048C0006B16882311F40C94C81B60E77AE08EE71E
:1048D00093E00E94D8120097C9F1DC0118962C9140
:1048E0001897233099F51496ED91FC9181E090E0B2
:1048F000A0E0B0E02081243719F080E090E0DC01F6
:1049000089839A83AB83BC83E980C757DF4F0881D3
:104910001981C958D0408BE0809FF001819FF00D34
:104920001124E95EFD4F8081823049F560E0802FDF
:104930000E94910861E0E11001C060E0802F0E94B8
:10494000910861E0802F0E94BF081BC0A2016AE6A7
:104950007AE08EE793E00E948A15882341F08981EE
:104960009A81AB81BC810297A105B10568F24FEF36
:104970005FEF6CE37AE081E69AE00C94AE1C813044
:10498000C9F6FF24F394E11001C0F12C6F2D802FA4
:104990000E9491088BE0809FF001819FF00D11240F
:1049A000E95EFD4F81E08083F182E6CE66E77BE041
:1049B000CE018F589F4F0E949429892B09F06AC01D
:1049C000A20160E088E49BE00E946B16882311F44A
:1049D0000C94C81B69817A81072E000C880B990BF7
:1049E0000E94F90A09811A81882311F0A80125C9BA
:1049F00006311105A0F48BE0809FF001819FF00D3E
:104A00001124E95EFD4F8081823011F0843039F449
:104A1000A80162EE7AE08FE39BE00C94AE1CB80133
:104A2000012E000C880B990B0E94F90A81110DC010
:104A30008BE0809FF001819FF00D1124E95EFD4F16
:104A40008081823040F0833019F00FEF1FEF07C0F4
:104A5000C8010E941D0BC8010E942E0D8C0181E02F
:104A60000E94EA0F8EED9AE00E94910F69817A818F
:104A7000072E000C880B990B0E94D10F88ED9AE04D
:104A80000E94910FB801110F880B990B0E94D10F52
:104A90000C940E1D6FE67BE0CE018F589F4F0E9455
:104AA0009429892B09F088C0F10111821082A1019B
:104AB000B20181E00E942113882311F40C94C81BD9
:104AC0009E0127573F4F590192E3C92ED12CE12C6B
:104AD000F12C00E010E0980144E150E060E070E06B
:104AE0008CE49BE00E94DE15882311F40C94C81B13
:104AF000D1018D919C91009769F0C757DF4F488194
:104B000059816A817B81C958D040411551056105A1
:104B1000710529F410920D02109204022DCE141684
:104B200015061606170664F021E030E040E050E07C
:104B3000C757DF4F288339834A835B83C958D040E6
:104B40008531910514F084E190E080930402D20154
:104B5000E0EFF1E099279F01205F314028173907E6
:104B600024F42C9112962193F6CFC757DF4F28815A
:104B700039814A815B81C958D04060E472E48FE09A
:104B800090E00E94A32D20930502309306024093EB
:104B90000702509308020E94F00860930902709384
:104BA0000A0280930B0290930C020E94171081E07E
:104BB00080930D020C94C81B63E67BE0CE018F58F6
:104BC0009F4F0E949429892B09F4A4CF68E57BE0CC
:104BD000CE018F589F4F0E949429892B09F041C024
:104BE00010920D021092040281E00E94EA0F8FE4FD
:104BF0009BE00E94910F8BE50E94710B812C912C00
:104C000054011BE0C501B4010E94CC0A8823E9F0DD
:104C1000C501B4010E94F90A811117C0189DF00165
:104C2000199DF00D1124E95EFD4F8081882369F004
:104C3000C4010E941D0BE11003C08CE20E94710BA5
:104C4000C501B4010E94D10FE12C3FEF831A930AF2
:104C5000A30AB30A46E184169104A104B10491F6B3
:104C600072C94FEF5FEF6CEE7CE08EE99DE00C9433
:104C7000AE1C8D30910511F40C94121B2091EF01A4
:104C800021110C94121B2091ED013091EE012F3B6C
:104C9000310568F4A9014F5F5F4F5093EE014093D7
:104CA000ED01235D3E4FD9018C930C94121B81E0E2
:104CB0008093EF010C94121B80910D02882309F45C
:104CC00079C00E94F0080091090210910A02209117
:104CD0000B0230910C026B017C01C01AD10AE20A6E
:104CE000F30AF7FC67C0C0900502D0900602E0907E
:104CF0000702F09008020C0D1D1D2E1D3F1D4B01DB
:104D00005C01801A910AA20AB30A181419041A0441
:104D10001B040CF43EC00093090210930A02209376
:104D20000B0230930C0283EA9EE00E94760B2FB7B1
:104D3000F89460910F02709110028091110290918D
:104D400012022FBF0E94CE0F89E99EE00E94760BCF
:104D500080EFE82E81E0F82E10E000E08091040260
:104D60008017110619F114F10115110519F08CE2E3
:104D70000E94710BF70181917F0190E00E947F12E8
:104D8000F7013197808190E00E941C100F5F1F4F48
:104D9000E5CFC60ED71EE81EF91EC0920902D092BA
:104DA0000A02E0920B02F0920C02BDCF85E99EE070
:104DB0000E94760B80E090E0892B11F40C94061B86
:104DC0000E947F09882311F40C94061B0E940000A6
:104DD0000C94061BECEEF3E01382128288EE93E053
:104DE000A0E0B0E084839583A683B78385E191E05A
:104DF0009183808385EC90E09587848784EC90E0B4
:104E00009787868780EC90E0918B808B81EC90E097
:104E1000938B828B82EC90E0958B848B86EC90E078
:104E2000978B868B118E128E138E148E0895B0E0A0
:104E3000A0E0EDE1F7E20C94D62D5C017B01611559
:104E4000710519F0DB018D939C9385010F5F1F4F56
:104E5000F501D0818D2F90E00E947E296C01892B75
:104E6000B9F5DD32B9F50F5F1F4FD5011196DC9111
:104E7000C1E05801F1E0AF1AB10843E050E060E74B
:104E800070E0C5010E94A629892B69F5680182E0BE
:104E9000C80ED11C45E050E06BE670E0C6010E94F0
:104EA000A629892B21F4680197E0C90ED11CE114D1
:104EB000F10419F0D701CD92DC9260E070E080E857
:104EC0009FEFC111FFC060E070E080E89FE7FAC08B
:104ED0005801BBCFDB3229F485010E5F1F4FF5016E
:104EE000D181C0E0C6CF43E050E068E670E0C50184
:104EF0000E94A629892BE9F0F80110E000E020E0EB
:104F000030E0A9015F01B0ED8B2E8D0E89E0881590
:104F1000C8F19C2E689491F88C2F8870C2FF16C03F
:104F2000811102C00F5F1F4F3196D501DC91C92D51
:104F3000E9CFE114F10429F00E5F1F4FF70111834F
:104F4000008360E070E080EC9FE7BCC0882311F034
:104F500001501109A5E0B0E00E94C52D9B01AC01F4
:104F6000220F331F441F551F280D311D411D511D98
:104F7000283999E93907490799E15907A8F2C66024
:104F80009C2ED2CFAEEF8A1206C0C3FD3CC09C2E31
:104F9000689493F8C9CFDF7DD534A9F580818D322F
:104FA00039F4C061DF011296818162E070E006C0D1
:104FB000DF018B32C1F3119661E070E080535D0137
:104FC000A61AB70A8A30F8F4E0E8CE16ECE0DE065E
:104FD0005CF4B601660F771F660F771FC60ED71EEB
:104FE000CC0CDD1CC80ED11C5D01FFEFAF1ABF0A4F
:104FF0008C9180538A30A8F1C4FF03C0D194C1942E
:10500000D1080C0D1D1DC1FF09C0E114F10431F0E0
:1050100081E0A81AB108D701AD92BC92CA01B901CA
:105020000E94F329C370C33009F490584B015C010E
:1050300020E030E0A9010E94EE29882309F440C055
:10504000CFE9D0E017FF05C0119501951109C7E818
:10505000D0E06E01B8E1CB1AD10880E2E82EF12C45
:105060000FC0D501B1CFFE012591359145915491E5
:105070000E191F09C501B4010E94542A4B015C019D
:10508000D501C4010E151F0574F72497F594E79414
:10509000CC16DD06A9F78A2F880F8B2F881F8F3F2C
:1050A00049F020E030E0A901C501B4010E94EE29D9
:1050B000811106C082E290E090938E0480938D046B
:1050C000C501B401CDB7DEB7ECE00C94F22DB0E031
:1050D000A0E0EDE6F8E20C94D12D5C016B017A01C1
:1050E0006115710519F0FB0191838083E114F104CE
:1050F00051F0C7010297839730F040E030E020E0A4
:1051000090E072C05E01E5012196F5011081812FCA
:1051100090E00E947E29892BA9F71D3201F5219686
:10512000F501118101E0E114F10409F4DAC0F0E1C4
:10513000EF16F10409F082C0103359F488818F7D95
:10514000883509F076C0198122960260F0E1EF2ED1
:10515000F12C812C912CA12C88E0B82E8CC01B3214
:1051600021F4E5012296F501118100E0DCCFEAE0AF
:10517000EE16F10409F4BBC0F0E1EF16F10409F0FA
:105180006DC0E7CF78E0E72EF12C812C912CA12C7B
:1051900060E1B62E70C03FE9310F3A3128F439EAA8
:1051A000332E80C021E09AC0302F3170C114D10459
:1051B00031F0222309F12197F601D183C08327FF23
:1051C00021C060E070E080E090E8311104C06FEF32
:1051D0007FEF8FEF9FE722E230E030938E04209341
:1051E0008D04462F372F282F642F732F822FCDB792
:1051F000DEB7E1E10C94ED2D01FF04C02297F6012A
:10520000D183C083332341F090958095709561954B
:105210007F4F8F4F9F4FE5CF97FFE3CF82E290E024
:1052200090938E0480938D046FEF7FEF8FEF9FE755
:10523000D8CF10E3E114F10409F4A4CF28E0E2167A
:10524000F10409F4A2CF0CF092CF812C912CA12C67
:10525000E0E4BE2E82E0E816F10469F060E070E060
:1052600080E090E897010F2C000C440B550B0E9436
:10527000A32D49015A0120E060E070E0CB01270135
:105280000F2C000C66087708FE0150ED352E310E0C
:1052900039E0331540F43FEB310F3A3108F07BCF62
:1052A00049EC342E310E3E141F040CF07DCF27FD47
:1052B00015C086169706A806B90678F0A3019201D4
:1052C0000E94932D630D711D811D911D613071052B
:1052D000810520E8920708F465CF2FEF2196108111
:1052E000D3CF103309F42ACF2AE0E22EF12C9CEC24
:1052F000892E982CA82C9CE0B92EBDCF91110C942E
:105300009B2C803219F089508550C8F70895FB0115
:10531000DC0104C08D910590801921F4415050406A
:10532000C8F7881B990B0895FB01DC018D9105904E
:1053300080190110D9F3990B0895FC010590002004
:10534000E9F7809590958E0F9F1F0895FB01DC0172
:105350004150504088F08D9181341CF08B350CF415
:10536000805E659161341CF06B350CF4605E861BC9
:10537000611171F3990B0895881BFCCFAEE0B0E08A
:10538000E4ECF9E20C94DE2D0D891E898F89988D4D
:105390002EE02C831A83098397FF02C080E090E8F7
:1053A00001979E838D83AE01455E5F4F698D7A8D37
:1053B000CE0101960E94C12A4D815E8157FD0AC02F
:1053C0002F813885421753070CF49A01020F131FDF
:1053D000F80110822E96E4E00C94FA2D0E94302AF7
:1053E00008F481E00895E89409C097FB3EF4909595
:1053F0008095709561957F4F8F4F9F4F9923A9F0AE
:10540000F92F96E9BB279395F6958795779567953C
:10541000B795F111F8CFFAF4BB0F11F460FF1BC080
:105420006F5F7F4F8F4F9F4F16C0882311F096E913
:1054300011C0772321F09EE8872F762F05C06623C1
:1054400071F096E8862F70E060E02AF09A95660F7A
:10545000771F881FDAF7880F9695879597F9089533
:10546000990F0008550FAA0BE0E8FEEF1616170675
:10547000E807F907C0F012161306E407F50798F0DD
:10548000621B730B840B950B39F40A2661F0232BF6
:10549000242B252B21F408950A2609F4A140A69572
:1054A0008FEF811D811D08950E94672A0C94592D4C
:1054B0000E944B2D38F00E94522D20F0952311F0C0
:1054C0000C94422D0C94482D11240C948D2D0E9487
:1054D0006A2D70F3959FC1F3950F50E0551F629FA1
:1054E000F001729FBB27F00DB11D639FAA27F00D3D
:1054F000B11DAA1F649F6627B00DA11D661F829F64
:105500002227B00DA11D621F739FB00DA11D621F48
:10551000839FA00D611D221F749F3327A00D611D65
:10552000231F849F600D211D822F762F6A2F112447
:105530009F5750409AF0F1F088234AF0EE0FFF1F7A
:10554000BB1F661F771F881F91505040A9F79E3FD1
:10555000510580F00C94422D0C948D2D5F3FE4F3A7
:10556000983ED4F3869577956795B795F795E79527
:105570009F5FC1F7FE2B880F911D9695879597F930
:105580000895ABE0B0E0E7ECFAE20C94D02D7C019A
:105590003B018A01FC0117821682838181FFC8C109
:1055A000CE0101965C01F7019381F30193FD859192
:1055B00093FF81913F01882309F453C1853239F467
:1055C00093FD859193FF81913F01853229F4B701C5
:1055D00090E00E94B42CE7CF912C212C312CFFE1DC
:1055E000F31538F08B3211F190F4803209F18332E7
:1055F00029F137FC3CC020ED280F2A3050F536FE4B
:1056000020C08AE0989E200D1124922E06C08D3273
:1056100091F0803371F7689430F8F30193FD859130
:1056200093FF81913F018111DACF21C0689431F855
:10563000689432F8F2CF689433F8EFCF689434F876
:10564000ECCFEAE02E9E200D1124222E689435F82E
:10565000E4CF8E3229F436FC04C1689436F8DDCFED
:105660008C3619F4689437F8D8CF8836B1F2982F71
:105670009F7D95549330E0F08336A1F18337C1F1DB
:10568000833509F063C02801F2E04F0E511CF80188
:10569000C080D180692D70E036FC02C06FEF7FEFD3
:1056A000C6010E949E2C4C01689437F882010AC002
:1056B0000C5F1F4FFFE3F98388248394912C6501CD
:1056C000E89437F833FE2DC0522C8114910471F503
:1056D000552009F468CFB70180E290E00E94B42C15
:1056E0005A94F6CFF801808189830E5F1F4FE4CF73
:1056F0002801F2E04F0E511CF801C080D180692DC5
:1057000070E036FC02C06FEF7FEFC6010E94A92C4B
:105710004C018201D5CFB70180E290E00E94B42C09
:105720002A942814190409F0B0F7CECFF60137FCFB
:10573000859137FE81916F01B70190E00E94B42CF2
:1057400051105A94F1E08F1A9108BFCF843619F0A6
:10575000893609F077C0F80137FE6BC0608171812E
:10576000828193810C5F1F4FF32DFF763F2E97FFB1
:1057700009C090958095709561957F4F8F4F9F4F91
:10578000689437F82AE030E0A5010E94E42CC82E86
:10579000CA188C2C432C36FE0CC0E89440F8C9146F
:1057A00040F434FE05C032FC03C0F32DFE7E4F2EC4
:1057B000892C44FE95C0FE01EC0DF11D80818033E3
:1057C00009F087C0242D297E422E842D8870582E02
:1057D00043FC95C040FE8FC09C2C821418F42C0C06
:1057E000922C981844FE91C0B70180E390E00E948B
:1057F000B42C42FE09C088E790E041FE02C088E573
:1058000090E0B7010E94B42CC91408F48AC0CA946D
:10581000D12C9FEFC91AD90ACA0CDB1CF601829160
:105820006F01B70190E00E94B42CAC14BD04B1F735
:105830004FCF60817181072E000C880B990B0E5F92
:105840001F4F92CFD32CE894D4F82AE030E085376C
:1058500039F1232D297FD22E8F3601F148F4883576
:10586000A9F0F701868197812B96E2E10C94EC2D4B
:10587000803749F08837A9F7D4FE02C06894D2F87F
:1058800020E130E00DC06894D4F8F6CF34FE03C0B8
:10589000822F8660D82E20E132E002C028E030E07E
:1058A000F801D7FE0FC060817181828193810C5F06
:1058B0001F4FA5010E94E42CC82ECA183D2CE89465
:1058C00037F867CF6081718190E080E00E5F1F4FF5
:1058D000F0CF42FC02C0839478CF8394839475CF39
:1058E000842D867809F471CFF6CFB70180E290E07D
:1058F0000E94B42C83948214C0F3512C73CF522C89
:105900005818821408F46ECFF8CF842D867809F4E5
:105910007BCF8BE241FE80E247FC8DE2B70190E055
:1059200071CFB70180E390E00E94B42C9A946CCFC1
:105930008FEF9FEF99CF992788270895FC01059055
:10594000615070400110D8F7809590958E0F9F1F81
:105950000895FC016150704001900110D8F78095C6
:1059600090958E0F9F1F08950F931F93CF93DF93F2
:10597000182F092FEB018B8181FD09C01FEF0FEF5D
:10598000812F902FDF91CF911F910F91089582FF6A
:1059900014C02E813F818C819D81281739073CF4EA
:1059A000E881F981CF0101969983888310838E81E4
:1059B0009F8101969F838E83E3CFE885F985812FB0
:1059C0000995892BA1F3DACFFA01AA27283051F1E2
:1059D000203181F1E8946F936E7F6E5F7F4F8F4F20
:1059E0009F4FAF4FB1E03ED0B4E03CD0670F781F7F
:1059F000891F9A1FA11D680F791F8A1F911DA11D64
:105A00006A0F711D811D911DA11D20D009F468949C
:105A10003F912AE0269F11243019305D3193DEF644
:105A2000CF010895462F4770405D4193B3E00FD0FA
:105A3000C9F7F6CF462F4F70405D4A3318F0495DE5
:105A400031FD4052419302D0A9F7EACFB4E0A695C8
:105A50009795879577956795BA95C9F700976105EA
:105A6000710508959B01AC010A2E06945795479540
:105A700037952795BA95C9F7620F731F841F951F35
:105A8000A01D089597F99F6780E870E060E0089591
:105A90009FEF80EC089500240A9416161706180646
:105AA0000906089500240A94121613061406050622
:105AB0000895092E0394000C11F4882352F0BB0FB3
:105AC00040F4BF2B11F460FF04C06F5F7F4F8F4F16
:105AD0009F4F089557FD9058440F551F59F05F3F51
