:100000000C9467090C9498090C9498090C9498091D
:100010000C9498090C9498090C9498090C949809DC
:100020000C9498090C9498090C9498090C949809CC
:100030000C9498090C9498090C9498090C949809BC
:100040000C9498090C9498090C9498090C949809AC
:100050000C9498090C9498090C9498090C940F1B13
:100060000C9498090C94831B0C94591B0C949809BC
:100070000C9498090C9498090C9498090C9498097C
:100080000C9498090C9498090C9498090C9498096C
:100090000C9498090C9498090C9498090C9498095C
:1000A0000C9498090C9498090C9498090C9498094C
:1000B0000C9498090C9498090C9498090C9498093C
:1000C0000C9498090C9498090C9498090C9498092C
:1000D0000C9498090C9498090C9498090C9498091C
:1000E0000C9498090C94C6090C94D50A0C94C20976
:1000F0000C947D260C94F3090C9441260C944D2607
:100100000C946D0B0C94F0250C940C260C94042686
:100110000C94DD090C9418260C9465260C94CA09DD
:100120000C94FD090C94FC250C94B8090C945926E8
:100130000C9471260C94C10A0C9424260C94CD09BD
:100140000C94D3090C94D8250C94E4250C94A9257F
:100150000C94F8090C94850A0C94D7090C94B20AF3
:100160000C94BE090C94E30A0C94F9090C94EB0965
:100170000C94EF090C941B0B0C9430260C94E5099D
:100180000C94D3250C94E1090C9418294E414E4946
:100190004E495459494E46CDCCCC3D0AD7233C1745
:1001A000B7D13877CC2B329595E6241FB14F0A0092
:1001B0000020410000C84200401C4620BCBE4CCA82
:1001C0001B0E5AAEC59D747561727400693263006E
:1001D0006164630070776D006F757400000020002B
:1001E0002300260029002C002F003200000100000F
:1001F0000301060109017B2274223A2273746172A1
:1002000074227D007B2274223A2273746F70227DE7
:10021000002C227277223A227722002C2272772237
:100220003A2272220061636B007B2274223A2261BF
:10023000646472222C2276223A0074726163650033
:100240004120746578742076616C7565206973202F
:100250006D697373696E672069747320636C6F7363
:10026000696E672071756F74652E00412074657822
:10027000742076616C756520636F6E7461696E734E
:1002800020616E20756E6B6E6F776E206573636193
:1002900070652E0041205C75206573636170652078
:1002A0006E6565647320666F75722068657820647A
:1002B00069676974732E00412074657874207661D3
:1002C0006C756520636F6E7461696E732061206365
:1002D0006F6E74726F6C20636861726163746572B3
:1002E0002E0041206E756D62657220686173206119
:1002F00020626164206578706F6E656E742E0041B7
:10030000206E756D62657220686173206E6F206467
:10031000696769747320616674657220746865200A
:10032000646F742E0041206E756D62657220697372
:10033000206E6F74207772697474656E20636F72BB
:10034000726563746C792E0041206E756D62657202
:1003500020697320637574206F66662E00556E6584
:100360007870656374656420776F72642E205573AE
:100370006520747275652C2066616C7365206F72E0
:10038000206E756C6C2E0045787065637465642012
:10039000272C27206F72206120636C6F73696E6752
:1003A00020627261636B65742E00546865206C690D
:1003B0006E6520656E6473206265666F7265207479
:1003C000686520636C6F73696E6720627261636B2E
:1003D00065742E00457870656374656420273A273C
:1003E0002061667465722061206B65792E00457806
:1003F0007065637465642061206B657920696E2087
:10040000646F75626C652071756F7465732E00552D
:100410006E6578706563746564206368617261639A
:100420007465722E006E756C6C0066616C7365008D
:1004300074727565005468652072657175657374B2
:10044000206973206E657374656420746F6F206417
:100450006565706C792E00412076616C7565206948
:1004600073206D697373696E672E005C7525303477
:1004700078002230782530325822007D0A007069D9
:100480006E006D7367006572726F7200FFFFFFFF91
:10049000FFFFFFFF3F000000000000000000000021
:1004A00000000000000000546869732070696E202D
:1004B000697320696E707574206F6E6C792E204997
:1004C000742063616E6E6F7420647269766520615A
:1004D000207369676E616C206F722062652075738E
:1004E000656420617320493243206C696E65732E08
:1004F00000696E7075745F6F6E6C79005468697313
:100500002070696E2069732075736564206279209C
:100510007468652055534220636F6E6E656374691D
:100520006F6E206F72207468652064656275672045
:1005300070726F62652E20546865206167656E7405
:10054000206C656176657320697420616C6F6E65DF
:100550002E0072657365727665645F70696E004423
:100560003020616E6420443120636172727920749E
:1005700068652073657269616C206C696E6B2074AC
:100580006F2074686520636F6D70757465722E20BE
:100590005573696E67207468656D20776F756C643C
:1005A000206375742074686520636F6E6E65637474
:1005B000696F6E2E00756172745F70696E005468A9
:1005C00069732070696E2069732077697265642091
:1005D000746F2074686520666C617368206D656D4A
:1005E0006F72792E205573696E6720697420776F5A
:1005F000756C642063726173682074686520626F33
:100600006172642E00666C6173685F70696E00547D
:100610006869732070696E206E756D626572206402
:100620006F6573206E6F74206578697374206F6EC8
:10063000207468652041726475696E6F204D65672E
:100640006120323536302052332E006261645F7093
:10065000696E00696E006E756C6C006D7600687A6C
:10066000006475747900736574006C6576656C0060
:100670006C6576656C007B226D6F6465223A0003C1
:10068000000000000000000000000000000000006A
:10069000007D0A0061726475696E6F2D6D6567611A
:1006A0002D3235363000626F61726400302E3200B8
:1006B0002C22766572223A0062702D6167656E7435
:1006C000000A7B226576656E74223A22626F6F742F
:1006D000222C226167656E74223A0061726475692A
:1006E0006E6F2D6D6567612D3235363000626F613A
:1006F00072640068656170467265650041546D659D
:10070000676132353630006368697000302E320020
:100710007665720062702D6167656E740061676551
:100720006E740000000000000000000000010203E1
:100730000405060708090A0B0C0D0E0F1011121301
:100740001415161718191A1B1C1D1E1F20212223F1
:100750002425262728292A2B2C2D2E2F30313233E1
:100760003435363738393A3B3C3D3E3F40414243D1
:10077000444570696E730022737472617070696EA3
:1007800067223A7B00756E636F6E6669726D656491
:10079000006C6576656C730065787465726E616C6B
:1007A00000666F756E640061646472006275735FE9
:1007B0006572726F72006572726F720054686520A4
:1007C000493243206275732073746F7070656420C2
:1007D000726573706F6E64696E672E20534441209A
:1007E0006F722053434C206D6179206265206865EB
:1007F0006C64206C6F772C2073686F727465642C46
:10080000206F72206D697373696E672070756C6CF0
:100810002D7570207265736973746F72732E006D1D
:100820007367007B2274223A22726573746172745A
:10083000227D0066616C73650074727565002C2200
:10084000646972223A227222002C22646972223A6E
:100850002277220061636B007B2274223A2264615A
:100860007461222C2276223A006275735F6572727F
:100870006F72006572726F720064617461007265FC
:1008800061645F6661696C65640073686F72745F50
:1008900072656164005468652064657669636520EB
:1008A000616E737765726564206974732061646436
:1008B000726573732C206275742072656164696E51
:1008C0006720746865207265676973746572206655
:1008D00061696C65642E2054686520726567697370
:1008E000746572206D6179206E6F7420657869730C
:1008F00074206F6E2074686973206465766963651F
:100900002C206F72207468652062757320697320D3
:100910006E6F6973792E006D7367006572726F7206
:100920000061646472006E61636B4174006D736793
:10093000006E61636B006572726F72004E6F2064AF
:10094000657669636520616E7377657265642061A1
:100950007420616464726573732030782530326C62
:10096000582E20436865636B207468652077697230
:10097000696E672C2074686520706F7765722061DE
:100980006E642074686520616464726573732E0000
:1009900064617461002272656722206D7573742032
:1009A00062652061207265676973746572206E7577
:1009B0006D6265722066726F6D2022307830302251
:1009C00020746F202230784646222C20666F7220D9
:1009D0006578616D706C65202230784430222E007D
:1009E0006261645F61726773006C656E00226164AE
:1009F000647222206D757374206265206120372D2A
:100A000062697420493243206164647265737320A3
:100A100066726F6D2022307830382220746F202269
:100A200030783737222C20666F72206578616D70C0
:100A30006C65202230783736222E006261645F6157
:100A40007267730072656700616464720000000081
:100A5000000000C0FF3F626974730066756C6C53E0
:100A600063616C654D76006E6F6D696E616C0072CE
:100A7000656600726177006D76006E6F745F616409
:100A80006300546869732070696E202825642920EA
:100A900063616E6E6F74206D65617375726520762B
:100AA0006F6C746167652E2055736520616E2061DF
:100AB0006E616C6F672070696E2C20666F722065A6
:100AC00078616D706C652041302E0070696E006E2B
:100AD0006F745F70776D00687A00546865205057B6
:100AE0004D2064726976657220636F756C64206E48
:100AF0006F742073746172742077697468207468ED
:100B00006973206672657175656E63792E0054682D
:100B100069732070696E2063616E6E6F74206D6101
:100B20006B6520612050574D207369676E616C2E94
:100B3000205069636B20612050574D2070696E20F2
:100B4000286F6E2041726475696E6F20626F6172EA
:100B50006473207468657920617265206D61726BC1
:100B60006564207E292E00226475747922206D75BB
:100B7000737420626520612070657263656E7461B4
:100B800067652066726F6D203020746F20313030C1
:100B90002E006261645F6172677300687A00647539
:100BA0007479002273746F7022206D7573742062E3
:100BB000652074727565206F722066616C73652E96
:100BC000006261645F617267730073746F700073B9
:100BD000746F700070696E00226C6576656C2220FF
:100BE0006D757374206265203020284C4F57292082
:100BF0006F722031202848494748292E00626164DD
:100C00005F61726773006C6576656C006C65766514
:100C10006C0070696E00546869732070696E20639F
:100C2000616E206F6E6C79206D65617375726520E1
:100C3000766F6C7461676520286974206861732021
:100C40006E6F206469676974616C20696E70757479
:100C5000292E2055736520746865206164632063C4
:100C60006F6D6D616E642E00616E616C6F675F6F9A
:100C70006E6C79006C6576656C0070696E00546806
:100C800069732070696E2069732070726F64756378
:100C9000696E6720612050574D207369676E616CE3
:100CA0002E2053746F7020697420666972737420EB
:100CB0002870776D2077697468202273746F7022B2
:100CC0003A7472756529206F722073656E642072A4
:100CD000657365745F70696E732E0070696E5F6214
:100CE0007573790070696E00687A0072656C656171
:100CF0007365640072657365745F70696E73007309
:100D0000747265616D5F73746F7000737472656186
:100D10006D006770696F5F72656164006770696F0D
:100D20005F77726974650070776D00616463006954
:100D300032635F72656164006932635F7363616E21
:100D40000070756C6C75705F636865636B007374BD
:100D500072617070696E670070696E730068656CAF
:100D60006C6F0054686572652069732065787472D1
:100D7000612074657874206166746572207468659A
:100D800020636C6F73696E6720277D272E0054687F
:100D9000652072657175657374206973206E6F7458
:100DA0002076616C6964204A534F4E2E004578705E
:100DB000656374656420272C27206F7220277D27A8
:100DC00020616674657220612076616C75652E0005
:100DD000546865206C696E6520656E647320626579
:100DE000666F72652074686520636C6F73696E67E7
:100DF00020277D272E005468652072657175657304
:100E0000742068617320746F6F206D616E79206645
:100E100069656C64732E0045787065637465642041
:100E2000273A272061667465722061206B65792EF0
:100E30000045787065637465642061206B65792076
:100E4000696E20646F75626C652071756F7465736F
:100E50002E00412072657175657374206D75737411
:100E60002062652061204A534F4E206F626A65639D
:100E7000742074686174207374617274732077696C
:100E8000746820277B272E00546865206167656E93
:100E90007420646F6573206E6F74206B6E6F7720A3
:100EA0007468697320636F6D6D616E642E204B6E84
:100EB0006F776E20636F6D6D616E64733A20686545
:100EC0006C6C6F2C2070696E732C2073747261705F
:100ED00070696E672C2070756C6C75705F636865E7
:100EE000636B2C206932635F7363616E2C206932FF
:100EF000635F726561642C206164632C2070776D80
:100F00002C206770696F5F77726974652C20677039
:100F1000696F5F726561642C2073747265616D2CFA
:100F20002073747265616D5F73746F702C207265CD
:100F30007365745F70696E732E00756E6B6E6F777C
:100F40006E5F636D6400636D640022636D642220D4
:100F50006D75737420626520746578742C20666FDB
:100F600072206578616D706C65202268656C6C6FAD
:100F7000222E006261645F617267730054686520AD
:100F80007265717565737420686173206E6F2022BD
:100F9000636D64222E204578616D706C653A207B0C
:100FA000226964223A312C22636D64223A226865F8
:100FB0006C6C6F227D006261645F617267730063B5
:100FC0006D640022696422206D757374206265204F
:100FD000612077686F6C65206E756D6265722E009A
:100FE0006261645F617267730069640069640062D2
:100FF00061645F6A736F6E00546865207265717515
:10100000657374206C696E65206973206C6F6E6700
:101010006572207468616E203531312063686172B9
:101020006163746572732E00746F6F5F6C6F6E67AF
:10103000007D7D0A002C2270696E73223A7B007B52
:101040002273747265616D223A747275652C227414
:10105000223A0000002100240027002A002D003041
:1010600000330001010000040107010A0100002211
:1010700000250028002B002E003100340002010062
:1010800000050108010B010505050507050808080D
:1010900008020202020A0A08080404040401010109
:1010A0000101010101030303030303030304070711
:1010B000070C0C0C0C0C0C0C0C02020202060606AF
:1010C00006060606060B0B0B0B0B0B0B0B01021097
:1010D0002020080810204010204080020102010852
:1010E0000402010102040810204080804020100802
:1010F000040201800402018040201008040201085B
:1011000004020101020408102040800102040810BA
:1011100020408000000A0B02090C0D0E0807030492
:1011200001000000000000000000000000000000BE
:10113000000000000000000000000000000000129D
:10114000111000000000000000000000000000007E
:10115000000000000000000000687A0053444120B5
:10116000616E642053434C206D757374206265205A
:1011700074776F20646966666572656E7420706945
:101180006E732E006261645F617267730073636CDB
:1011900000736461006261645F617267730022259D
:1011A0005322206D75737420626520612070696E12
:1011B000206E756D6265722C20666F722065786195
:1011C0006D706C652025642E006261645F617267DA
:1011D00073002270696E732220697320656D7074CC
:1011E000792E2047697665206174206C656173747F
:1011F000206F6E652070696E206E756D6265722E4F
:10120000006261645F61726773002270696E7322AD
:10121000206D7573742062652061206C6973742081
:101220006F662070696E206E756D626572732C201A
:10123000666F72206578616D706C65205B25642C2B
:1012400025645D2E006261645F6172677300546F94
:101250006F206D616E792070696E7320696E206FEA
:101260006E6520726571756573742E2054686520F3
:101270006C696D69742069732025642E0070696E35
:1012800073006261645F61726773002225532220DC
:101290006D75737420626520612077686F6C6520BE
:1012A0006E756D6265722066726F6D20256C6420AC
:1012B000746F20256C642E002C226F6B223A006E16
:1012C000756C6C007B226964223A00001829112495
:1012D0001FBECFEFD1E2DEBFCDBF00E00CBF12E0FA
:1012E000A0E0B2E0EEE3F4E600E00BBF02C007903E
:1012F0000D92AC32B107D9F729E0ACE2B2E001C0FF
:101300001D92A831B207E1F719E0C7E6D9E000E085
:1013100006C021970109802FFE010E940C32C636BB
:10132000D10780E00807A9F70E94B91B0C941D3271
:101330000C9400008150823108F05AC0E82FF0E090
:101340008827EA55F64F8F4F0C940C32C609CA090C
:10135000B809BE09C209F809CD09D309D709DD09C1
:10136000E109E509EB09EF09F809F309F909FD09B4
:10137000809180008F778093800008958091800015
:101380008F7DF9CF80918000877FF5CF84B58F77EF
:1013900084BD089584B58F7DFBCF8091B0008F7799
:1013A0008093B00008958091B0008F7DF9CF809137
:1013B00090008F77809390000895809190008F7DAA
:1013C000F9CF80919000877FF5CF8091A0008F7733
:1013D0008093A00008958091A0008F7DF9CF809127
:1013E000A000877FF5CF809120018F778093200127
:1013F0000895809120018F7DF9CF80912001877F12
:10140000F5CF1F93CF93DF93282F30E0F901ED5EE6
:10141000FE4E8491F901E353FF4ED491F901E9574F
:10142000FF4EC491CC23A9F0162F81110E949A0976
:10143000EC2FF0E0EE0FFF1FE359FF4EA591B491A2
:101440008FB7F894EC91111108C0D095DE23DC938E
:101450008FBFDF91CF911F910895DE2BF8CFCF93EF
:10146000DF9390E0FC01E353FF4E249189579F4E98
:10147000FC0184918823D1F090E0880F991FFC0132
:10148000ED5AFF4EA591B491FC01E359FF4EC59171
:10149000D49161110EC09FB7F8948C91E22FE09522
:1014A0008E238C932881E223E8839FBFDF91CF9125
:1014B00008958FB7F894EC91E22BEC938FBFF6CFA1
:1014C0003FB7F8948091580490915904A0915A0420
:1014D000B0915B0426B5A89B05C02F3F19F001967B
:1014E000A11DB11D3FBFBA2FA92F982F8827BC017E
:1014F000CD01620F711D811D911D42E0660F771FA6
:10150000881F991F4A95D1F70895AF92BF92CF9245
:10151000DF92EF92FF920F931F93CF93DF936C01B3
:101520007B018B01040F151FEB015E01AE18BF0894
:10153000C017D10759F06991D601ED91FC91019046
:10154000F081E02DC6011995892B79F7C501DF914E
:10155000CF911F910F91FF90EF90DF90CF90BF90B0
:10156000AF900895FC01538D448D252F30E0842FDA
:1015700090E0821B930B541710F0CF9608950197BB
:101580000895FC01918D828D981761F0A28DAE0FA8
:10159000BF2FB11D5D968C91928D9F5F9F73928F2F
:1015A00090E008958FEF9FEF0895FC01918D828D5B
:1015B000981731F0828DE80FF11D858D90E0089528
:1015C0008FEF9FEF0895FC01918D228D892F90E080
:1015D000805C9F4F821B91098F739927089585E73F
:1015E00098E00E94E30A21E0892B09F420E0822F91
:1015F0000895FC01A48DA80FB92FB11DA35ABF4FA8
:101600002C91848D90E001968F739927848FA68901
:10161000B7892C93A089B1898C91837080648C9355
:10162000938D848D981306C00288F389E02D808104
:101630008F7D80830895EF92FF920F931F93CF9336
:10164000DF93EC0181E0888F9B8D8C8D98131AC0FD
:10165000E889F989808185FF15C09FB7F894EE89E4
:10166000FF896083E889F989808183708064808341
:101670009FBF81E090E0DF91CF911F910F91FF908C
:10168000EF900895F62E0B8D10E00F5F1F4F0F7334
:101690001127E02E8C8D8E110CC00FB607FCFACFEF
:1016A000E889F989808185FFF5CFCE010E94F90A8A
:1016B000F1CFEB8DEC0FFD2FF11DE35AFF4FF082C0
:1016C0009FB7F8940B8FEA89FB8980818062CFCF26
:1016D000682F85E798E00C941B0BCF93DF93EC0108
:1016E000888D8823B9F0AA89BB89E889F9898C910A
:1016F00085FD03C0808186FD0DC00FB607FCF7CFC6
:101700008C9185FFF2CF808185FFEDCFCE010E94C5
:10171000F90AE9CFDF91CF91089580E090E0892B1D
:1017200029F00E94EF0A81110E94000080E090E001
:10173000892B49F080E090E0892B29F00E9400007D
:1017400081110E94000080E090E0892B49F080E048
:1017500090E0892B29F00E94000081110E94000076
:1017600080E090E0892B49F080E090E0892B29F01F
:101770000E94000081110C9400000895FB01863343
:1017800008F0865320917B00982F9870277F922B2A
:1017900090937B008770806480937C0080917A00B6
:1017A000806480937A0080917A0086FDFCCF20913E
:1017B000780030917900DA012D933C93A8E8B3E1E9
:1017C0000E9458307E5F8F4F9F4F2AE096958795F5
:1017D000779567952A95D1F7608371838283938388
:1017E00008959C014634510561057105B8F4DB018B
:1017F000CA0163E0B595A795979587956A95D1F746
:10180000820F931FFC01849190E04770552702C01E
:10181000959587954A95E2F78170089580E008953F
:10182000CF92DF92EF92FF92CF93663471058105DC
:10183000910550F06BE476E08FE096E0CF91FF9059
:10184000EF90DF90CF900895C42F6B017C01BC0115
:10185000A6018CE894E00E94F10B882359F3B701AC
:10186000A60185E994E00E94F10B882329F065E048
:1018700076E08EEB95E0E2CFB701A6018FE796E028
:101880000E94F10B882329F065EB75E08FE595E068
:10189000D5CFB701A60183E297E00E94F10B2CEFB0
:1018A00034E042E555E0811106C0C11107C030E0C7
:1018B00020E050E040E0BA01C901C0CFB701A60165
:1018C0008EE994E00E94F10B27EA34E041EF54E006
:1018D0008111F1CFECCFCF92DF92EF92FF926B01AB
:1018E0007C01BC01A6018CE894E00E94F10B8111FF
:1018F00006C080E0FF90EF90DF90CF900895B70191
:10190000A60185E994E00E94F10B8111F2CFB701A5
:10191000A6018FE796E00E94F10B8111EACFB70193
:10192000A60183E297E00E94F10B91E08927E2CFC4
:10193000CF92DF92EF92FF926B017C01BC01A60176
:101940008CE894E00E94F10B811102C080E00FC08E
:10195000B701A6018DE49AE00E94F10B8823B1F350
:1019600081E096E4C916D104E104F1047CF3FF9010
:10197000EF90DF90CF900895CF92DF92EF92FF9299
:101980001F93CF93DF938634910550F010E0812FA1
:10199000DF91CF911F91FF90EF90DF90CF9008954E
:1019A000EC016C01990FEE08FF08C701B6010E9417
:1019B0006B0C882359F3C701B6010E94980C811162
:1019C000E5CF8BE08C9FF0018D9FF00D1124E45A40
:1019D000FB4F808111E0811119C010E060E08C2F75
:1019E0000E942F0A8BE08C9FF0018D9FF00D112437
:1019F000E45AFB4F108211821382148215821682E0
:101A000017821086118612861282C1CF823029F485
:101A100060E08C2F0E94010AE1CF8130F9F6F8CF07
:101A2000682F85E798E00C941B0BCF93DF93EC01B4
:101A3000FE016491662339F085E798E00E941B0B54
:101A40002196892BA9F7DF91CF910895811104C0C8
:101A500083E398E00C94150D89E398E0FBCF8BE7C6
:101A600094E00C94150DDC01ED91FC911197129608
:101A70004D915C911397E417F50738F480818D320E
:101A800091F43196E417F50770F014968D919C91BE
:101A90001597892B31F488E493E015969C938E93E7
:101AA000149780E008958081803341F43196E417E3
:101AB000F507E8F0ED93FC9381E0089581538930B8
:101AC00068F49F01F9012F5F3F4F808180538A3076
:101AD00070F4F90124173507A8F3ECCF14968D9113
:101AE0009C911597892BE9F685E293E0D6CF80810A
:101AF0008E3249F5CF0101968417950720F4218194
:101B000020532A3048F014968D919C911597892B7B
:101B100041F68FEF92E0C1CFFC0101962081205366
:101B20002A3088F4FC0148175907B1F7C3CFFC01EC
:101B30000196208120532A3008F0BCCFFC01841785
:101B40009507A8F3B7CF80818F7D853409F0B2CF98
:101B5000CF0101968417950778F421812B3211F07B
:101B60002D3229F4CF0102968417950728F4FC0141
:101B7000208120532A30D8F214968D919C9115978C
:101B8000892B09F08ECF82EE92E087CFEF92FF9201
:101B90000F931F93CF93DF93FC01208131812F5F3F
:101BA0003F4F31832083C281D381A081B181AC17A3
:101BB000BD0708F075C08C918232B1F4DB012D9322
:101BC0003C9380819181BC01621B730BDA016D93A0
:101BD0007C9301969183808381E0DF91CF911F9167
:101BE0000F91FF90EF900895803258F48481958191
:101BF000892B11F080E0F1CF87EB92E0958384830D
:101C0000F9CF8C3579F5CD010196918380838C17BE
:101C10009D0708F045C011968C91853749F584E001
:101C2000E82EF12C808191818C010F5F1F4F118371
:101C300000830C171D0758F4DC0111968C9190ED70
:101C4000980F9A3058F08F7D8154863038F0848117
:101C50009581892B79F684E992E0D0CFB1E0EB1A37
:101C6000F10801F7808191810196918380839DCF56
:101C7000982F9F7B9232B1F38C35A1F38F3291F381
:101C8000982F977F963671F3823761F3843751F33B
:101C900084819581892B09F0ADCF8BE692E0AECFA0
:101CA00084819581892B09F0A5CF80E492E0A6CFAD
:101CB000DC0112962D913C911397ED91FC911197B7
:101CC000E217F30770F48081803231F097EF980FBC
:101CD000923010F08D3029F431961196FC93EE93EA
:101CE000ECCF0895CF93C091030261E08C2F0E9446
:101CF0002F0A60E08C2FCF910C94010A60E0809154
:101D000005020C942F0A0E947E0E60E0809103026F
:101D10000C942F0A809105029091060297FF0E9471
:101D2000830E8FEF9FEF90930402809303029093B2
:101D30000602809305020895CF93C091050261E0E9
:101D40008C2F0E942F0A60E08C2FCF910C94010AF7
:101D500080910102909102028230910538F0880F43
:101D6000991F880F991F05970197F1F708958091A2
:101D70000002811103C08CE20E94100D109200023B
:101D800008950E94B70E84E092E00C94150D0E9415
:101D9000B70E86EF91E00C94150DCF93DF939C0165
:101DA0003327F901ED5EFE4E8491F901E353FF4EB6
:101DB000D491F901E957FF4EC491CC23A1F08111D0
:101DC0000E949A09EC2FF0E0EE0FFF1FE452FE4F45
:101DD000A591B491EC91ED2381E090E009F480E0CD
:101DE000DF91CF91089580E090E0FACFCF92DF921B
:101DF000EF92FF92CF93DF93C0910302D091040240
:101E000060E08C2F0E942F0A0E94600A6B017C0107
:101E1000CE010E94CD0E892BB1F40E94600A6C198C
:101E20007D098E099F096135734C8105910580F309
:101E300085E080932C0280E0DF91CF91FF90EF90BE
:101E4000DF90CF90089581E0F7CFCF930E949C0E52
:101E50000E94A80E0E94F60EC82F882391F00E94BF
:101E6000A80E0E947E0E0E94A80E809105029091FD
:101E700006020E94CD0E892B21F484E080932C026F
:101E8000C0E08C2FCF910895EF92FF920F931F9394
:101E9000CF930E947E0E0E94F60EC82F811108C0BB
:101EA000C0E08C2FCF911F910F91FF90EF9008957C
:101EB0000E94A80E0091050210910602C8010E941E
:101EC000CD0E892BF9F489E0E82EF12CC8010E948F
:101ED000CD0E892B71F40E94720E0E94A80E0E94F2
:101EE000F60E8823E9F20E94A80E81E0E81AF108B4
:101EF00069F7C8010E94CD0E892B21F484E08093FC
:101F00002C02CECF0E949C0E0E94A80E0E94720E40
:101F10000E94A80EC6CFCF93DF93D82F8823D9F085
:101F20000E947E0E0E94A80E0E94F60EC82F8823E3
:101F300071F0DD2399F080910502909106020E94D4
:101F4000CD0E892B59F484E080932C02C0E08C2FB5
:101F5000DF91CF9108950E949C0EE4CF0E94A80EBD
:101F60000E94720EF4CFEF92FF920F931F93CF93C4
:101F7000DF937B01C7E0D0E0082F10E0C8010C2EF2
:101F800002C0959587950A94E2F781700E948B0FA5
:101F9000811109C0C0E08C2FDF91CF911F910F916B
:101FA000FF90EF900895219748F70E947E0E0E94BF
:101FB000A80E0E94F60EC82F882361F380910502B7
:101FC000909106020E94CD0E8C010E94A80E0E94E4
:101FD000720E81E0012B09F080E0F7018083DBCFF6
:101FE0001F93CF93DF931F92CDB7DEB7182F1092B8
:101FF0002C0219820E94440F811108C00E94830E96
:1020000080912C02811113C084E011C0BE016F5F6A
:102010007F4F812F880F0E94B30F882379F30E948E
:10202000250F882359F38981811106C082E00F9022
:10203000DF91CF911F91089580E0F9CF8F929F9209
:10204000AF92BF920F931F93CF93DF93CDB7DEB7BD
:10205000A1970FB6F894DEBF0FBECDBF19A24230D4
:1020600008F44AE08E010F5D1F4F842E912CB12C95
:10207000A12CA50194010E942B30E62FB901CA01C1
:10208000EA3044F5E05DD801EE938D01232B242B3B
:10209000252B79F790E080E0109769F0FD01019021
:1020A0000020E9F73197AF014A1B5B0BBD0185E7C3
:1020B00098E00E94850AA1960FB6F894DEBF0FBE85
:1020C000CDBFDF91CF911F910F91BF90AF909F90A7
:1020D0008F900895E95CD7CFFC0101900020E9F7CB
:1020E0003197AF01481B590BBC0185E798E00C9470
:1020F000850A0F931F93CF93DF9300D000D01F92D8
:102100001F92CDB7DEB71F928F9382E794E09F9323
:102110008F931F9288E08F938E010F5F1F4F1F9345
:102120000F930E94112CC8010E946C100FB6F894F6
:10213000DEBF0FBECDBF28960FB6F894DEBF0FBE30
:10214000CDBFDF91CF911F910F9108950F931F93F2
:10215000CF93DF9300D000D01F921F92CDB7DEB790
:102160008D3009F441C00CF5893009F442C08A3041
:10217000B1F1803208F042C01F928F938BE694E059
:102180009F938F931F9288E08F938E010F5F1F4F55
:102190001F930F930E94112CC8010E946C100FB660
:1021A000F894DEBF0FBECDBF0FC0823239F08C3540
:1021B00001F78CE50E94680B8CE504C08CE50E9459
:1021C000680B82E20E94680B28960FB6F894DEBF77
:1021D0000FBECDBFDF91CF911F910F9108958CE578
:1021E0000E94680B8EE6EECF8CE50E94680B82E7BA
:1021F000E9CF8CE50E94680B84E7E4CF682F85E780
:1022000098E00E941B0BE0CFCF93DF93EC0182E2BA
:102210000E94100D209731F08991882319F00E94B7
:10222000A610FACF82E2DF91CF910C94100DCF93DC
:10223000DF93EC0182E20E94100D209741F0FE0135
:102240008491882321F00E94A6102196F8CF82E283
:10225000DF91CF910C94100DCF93DF93EC018CE2C2
:102260000E94100DCE010E9417118AE3DF91CF91D9
:102270000C94100D8AE392E00E942C118BE50E94D1
:10228000100D81E08093000208951F93CF93DF9398
:10229000182FD62FC42F0E94B70E89E292E00E9419
:1022A000150D812F0E94791081E192E0DD2311F05C
:1022B0008BE192E00E94150D85E292E00E942C11C4
:1022C0008C2F0E94260D8DE7DF91CF911F910C94EA
:1022D000100D4AE00C941E10CF92DF92EF92FF9205
:1022E00097FF0CC06B017C018DE20E94680B662792
:1022F0007727CB016C197D098E099F094AE0FF9071
:10230000EF90DF90CF900C941E10CF92DF92EF925F
:10231000FF92CF93DF93C82FC090DF07D090E007E4
:10232000E090E107F090E207D091DE0784EC92E1C3
:102330000E94150DDD2389F0C701B6010E946C11C2
:1023400088EB92E10E94150D8C2FDF91CF91FF90C9
:10235000EF90DF90CF900C94260D8FEB92E10E94CE
:10236000150DEECF81E00E9485110C942F0D8F92F8
:102370009F92AF92BF92CF92DF92EF92FF920F9314
:102380001F93CF93DF9300D000D0CDB7DEB78C0181
:1023900086E796E00E94150D8BE0809FF001819FFB
:1023A000F00D1124E45AFB4FE081E15083E596E003
:1023B000E53038F4F0E0EE0FFF1FE95FFD4F80815C
:1023C00091810E9417112BE0209FC001219F900D49
:1023D00011249C01245A3B4F7901F90180818130FD
:1023E00051F1D8F08230F1F1833009F406C18DE764
:1023F0000E94100D26960FB6F894DEBF0FBECDBF1B
:10240000DF91CF911F910F91FF90EF90DF90CF90D0
:10241000BF90AF909F908F90089580E796E00E94C4
:102420002C11C8010E94CD0EBC01990F880B990B8D
:102430000E946C11DCCF8AE696E00E942C11C80144
:102440000E94CD0EBC01990F880B990B0E946C1154
:1024500086E696E00E942C11F701618170E090E021
:1024600080E0E6CF81E696E00E942C11F701C38060
:10247000D480E580F6808E2D880F8F2D881F8F3FAA
:10248000B9F486E596E00E94150D8EE596E00E946F
:102490002C118BE0809FF001819FF00D1124E45AF4
:1024A000FB4F67817085818592850E9469119FCF5E
:1024B000C701B6010E947C319B01AC01C701B60186
:1024C0000E944E2C811122C020E030E040E05FE409
:1024D000C701B6019F770E944E2C87FF17C0C70126
:1024E000B6010E9446316B017C014AE0F7FE0BC049
:1024F0008DE20E94680B66277727CB016C197D0956
:102500008E099F094AE00E941E10BFCF20E030E0F4
:10251000A901C701B6010E944E2C87FF07C08DE2BA
:102520000E94100DF7FAF094F7F8F094C701B60185
:102530000E944D314B015C010E94532C9B01AC0168
:10254000C701B6010E94673020E030E04AE754E45A
:102550000E94B42C0E94D9316B017C01F8EECF1699
:10256000F3E0DF06E104F10458F02FEF821A920A3B
:10257000A20AB20A38EEC31A33E0D30AE108F1081E
:102580004AE0C501B4010E941E10C114D104E10447
:10259000F10409F47ACF1C821B82C701B60124E63C
:1025A00030E040E050E00E942B30205D29838AE03B
:1025B000882E912CA12CB12CC701B601A501940144
:1025C0000E942B30F62ECA01B901A50194010E9488
:1025D0002B30605D6A8380E38F0D803349F08B83FD
:1025E0008EE20E94100DCE0101960E946C104DCF1C
:1025F0001B826033A9F71A82F3CFAE014B5F5F4FA6
:10260000BE016F5F7F4FC8010E94BE0B8BE596E055
:102610000E942C1169817A818B819C8146CF8F9297
:102620009F92AF92BF92CF92DF92EF92FF920F9361
:102630001F93CF93DF93F82E4A015B01E90184ECED
:1026400092E10E94150DFF20B1F1C501B4010E9475
:102650006C1188EB92E10E94150D83E398E00E94D3
:10266000150D86E894E00E942C11CE010E941711EE
:1026700082E894E00E942C11C801EE2009F10E942A
:102680000411D7FC0AC08EE794E00E942C11B60119
:10269000DD0C880B990B0E946C11DF91CF911F917B
:1026A0000F91FF90EF90DF90CF90BF90AF909F90F1
:1026B0008F900C942F0D8FEB92E10E94150DC9CFD6
:1026C0000E941711DECFCF92DF92EF920F931F93EC
:1026D0008B016A01EEEDF7E04181528163817481E3
:1026E000E12C9C0180810E940F131F910F91EF90AC
:1026F000DF90CF900895CF92DF92EF92FF920F93E9
:102700001F93CF93DF938C01EB0169017A010E9443
:10271000BC0CCE010E94BC0C109306020093050273
:10272000D0930402C0930302C114D104E104F10464
:10273000C9F060E271EA87E090E0A70196010E948B
:102740002B3081E090E0A0E0B0E02115310541059B
:10275000510561F0DA01C901853F21E09207A10529
:10276000B10520F084EF91E0A0E0B0E09093020288
:102770008093010260E0802F0E94010A60E08C2FAC
:102780000E94010A0E94830E0634110550F48BE06A
:10279000809FF001819FF00D1124E45AFB4F84E0EB
:1027A0008083C634D10550F48BE08C9FF0018D9F5F
:1027B000F00D1124E45AFB4F84E0808381E0DF9127
:1027C000CF911F910F91FF90EF90DF90CF900895E0
:1027D000CF92DF92EF920F931F936B01EEEDF7E034
:1027E0004181528163817481EE24E3940EE517E008
:1027F0009C0180810E940F131F910F91EF90DF9039
:10280000CF900895CF92DF92EF920F931F93CC2435
:10281000CA94DC2CE12C8B019C0140E050E0BA0111
:1028200080E00E940F131F910F91EF90DF90CF90E7
:102830000895CF93DF93EC0182E20E94100DBE0158
:10284000DD0F880B990B0E946C1182E20E94100D23
:102850008AE3DF91CF910C94100DEF92FF920F93CA
:102860001F93CF93DF93CDB7DEB7AA970FB6F89437
:10287000DEBF0FBECDBF8B017A01AB01BC01CE0123
:1028800001960E94143281E090E08C0F9D1F080F8A
:10289000191FF80110821AA619A6BE01675D7F4FA5
:1028A0000E94452929A53AA520173107C9F4282FE8
:1028B000220F292F221F2F3F99F0F7016083718388
:1028C0008283938381E0AA960FB6F894DEBF0FBE91
:1028D000CDBFDF91CF911F910F91FF90EF900895A1
:1028E00080E0F1CF8F929F92AF92BF92CF92DF9212
:1028F000EF92FF920F931F93CF93DF93EC016B0145
:10290000CB010E94F02B4C01FE01E057FF4FA0804D
:10291000B1808E01F12CE12CEA14FB044CF5F80196
:102920008281938188159905E9F4A401B60180811B
:1029300091810E94DA2B892BA9F429E02E9DC001F8
:102940002F9D900D11248C0F9D1FDF91CF911F9112
:102950000F91FF90EF90DF90CF90BF90AF909F903E
:102960008F900895FFEFEF1AFF0A075F1F4FD4CF34
:1029700090E080E0EACF4F925F926F927F928F92C9
:102980009F92AF92BF92CF92DF92EF92FF920F93FE
:102990001F93CF93DF93CDB7DEB7CE56D1090FB6D5
:1029A000F894DEBF0FBECDBF182F4B016A016DE753
:1029B00072E183EE97E00E947214FC01892B09F406
:1029C000E9C08085853009F0E5C0AB961FAE1EAE2C
:1029D000AB9724813581C9010196A7969FAF8EAF31
:1029E000A797868197810197280F391FA9963FAF36
:1029F0002EAFA997CE018B599F4F0E94580EA796D4
:102A00002EAD3FADA797A9968EAD9FADA99728177C
:102A1000390708F08BC0CE0101967C0110E000E080
:102A2000CE018B599F4F0E94580EA796AEACBFACFB
:102A3000A797A9968EAD9FADA997A816B90608F0DD
:102A4000A9C0F50180818D3221F080538A3008F0D1
:102A5000A1C0CE018B599F4F0E94330D882309F4EA
:102A600099C0A7966EAD7FADA7976A197B09CB0178
:102A70000197879708F08EC0AE0145595F4FC50199
:102A80000E942D14882309F485C0AF964CAC5DAC30
:102A90006EAC7FACAF97C301B2010E947C319B0149
:102AA000AC01C301B2010E944E2C811173C020E021
:102AB00030E040E05FECC301B2010E944E2C87FD84
:102AC00069C020E030E040E05FE4C301B2010E9451
:102AD000D43118160CF45EC0C301B2010E94463115
:102AE0000931110509F4D2C00F5F1F4FF70161933F
:102AF0007193819391937F01CE018B599F4F0E94D7
:102B0000580EA796EEADFFADA797A9968EAD9FADD7
:102B1000A997E817F90708F05EC080818C32D1F5DB
:102B20003196A796FFAFEEAFA7977ACF111151C09C
:102B300082ED91E19F938F931F9280E88F938EE5B2
:102B400097E09F938F930E94112C6FEF7FEF89EC9A
:102B500091E10E94E8130F900F900F900F900F904B
:102B60000F90812FC259DF4F0FB6F894DEBF0FBE12
:102B7000CDBFDF91CF911F910F91FF90EF90DF902C
:102B8000CF90BF90AF909F908F907F906F905F900D
:102B90004F9008951F9285E18F931F9284E18F9348
:102BA0008AE092E19F938F931F9280E88F938EE546
:102BB00097E09F938F930E94112C6FEF7FEF81E03E
:102BC00092E10E94E8130FB6F894DEBF0FBECDBFAE
:102BD00046C010E000E0F60111821082CE0101969D
:102BE0005C01F12CE12CE016F1060CF04DC0F50172
:102BF00041905190619071905F0140E0C301B2013A
:102C00000E94100C9B01672BD1F4F6018081918109
:102C100050E040E020E0481759071CF521110CC096
:102C2000FA01EE0FFF1FE80DF91D21E060817181AF
:102C30006415750509F020E04F5F5F4FECCFF0E1C0
:102C40004F16F7E25F066104710420F044244A94B1
:102C5000542C3201A201BC01C9010E94631310E08F
:102C600080CF21110DC09C012F5F3F4FF6013183B2
:102C70002083880F991FF401E80FF91F51824082C9
:102C8000FFEFEF1AFF0AAFCF11E06BCF1F9289E180
:102C90008F938EE492E19F938F931F9280E88F939E
:102CA0008EE597E09F938F930E94112C6FEF7FEF3B
:102CB00085E492E186CF6F927F929F92AF92BF920E
:102CC000CF92DF92EF92FF920F931F93CF93DF93F8
:102CD0003A0159010E947214DC01892B79F480E0D9
:102CE000DF91CF911F910F91FF90EF90DF90CF90E8
:102CF000BF90AF909F907F906F90089518968C91A1
:102D00001897813061F77301F0E0E0E050E040E0B7
:102D100016968D919C911797E817F90708F072C0E5
:102D200014960D911C91159798012E0F3F1FE901E4
:102D30002881BF012C3599F46F5F7F4F68177907A1
:102D400008F05CC09801260F371FE90128812E3654
:102D5000E1F08CF4223609F453C02636A1F04F5F1F
:102D60005F4F4A155B0509F4BACFF70121937F0144
:102D7000FB013196CDCF243751F0253751F0223762
:102D800071F72DE0ECCF2CE0EACF2AE0E8CF29E084
:102D9000E6CF35966B0130E020E06F5F7F4F68171C
:102DA000790750F56801C60ED71EE60198806901C3
:102DB00024E0CC0CDD1C2A95E1F720ED290D2A300A
:102DC00098F4292D990C330B205331092C0D3D1DFE
:102DD0006B016E177F0709F7C90101978F379105BE
:102DE00008F4BDCF2FE3BBCF292D2062022E000CAB
:102DF000330B27553109EACFB601EECFBF01AFCF74
:102E000028E0ADCFE301C40FD51F188281E068CF61
:102E1000CF93DF93EA010E947214FC01892B81F0A9
:102E20008085823069F466817781CB01019787972D
:102E300038F4AE0184819581DF91CF910C942D14EB
:102E400080E0DF91CF910895AF92BF92CF92DF9251
:102E5000EF92FF921F93CF93DF9300D01F92CDB7D5
:102E6000DEB75A01AE014F5F5F4F0E940817182F5F
:102E7000882369F1C980DA80EB80FC80C701B60144
:102E80000E947C319B01AC01C701B6010E944E2C0F
:102E900081112CC020E030E040E05FECC701B601BA
:102EA0000E944E2C87FD22C020E030E040E05FE42D
:102EB000C701B6010E94D4311816C4F0C701B6018B
:102EC0000E944631F5016083718382839383812F51
:102ED0000F900F900F900F90DF91CF911F91FF9067
:102EE000EF90DF90CF90BF90AF90089510E0EFCFBC
:102EF0004F925F926F927F928F929F92AF92BF920A
:102F0000CF92DF92EF92FF920F931F93CF93DF93B5
:102F100000D000D01F921F92CDB7DEB7982E892E19
:102F20004D835E836F83788728013901682F792F5D
:102F300083EE97E00E947214892B09F58D819E81A2
:102F4000AF81B885F50180839183A283B38381E04B
:102F500028960FB6F894DEBF0FBECDBFDF91CF919C
:102F60001F910F91FF90EF90DF90CF90BF90AF90A7
:102F70009F908F907F906F905F904F900895AE01DB
:102F80004F5F5F4F692D782D83EE97E00E942417E5
:102F90008823A9F049815A816B817C8144155505AC
:102FA0006605770564F0C416D506E606F7063CF01C
:102FB000D5014D935D936D937C931397C9CFFF9289
:102FC000EF92DF92CF927F926F925F924F928F92A9
:102FD0009F928BE892E19F938F931F9280E88F934B
:102FE0008EE597E09F938F930E94112C6FEF7FEFF8
:102FF00082E892E10E94E8130FB6F894DEBF0FBE9C
:10300000CDBF80E0A5CFCF92DF92EF92FF920F93DA
:103010001F93CF93DF9300D01F92CDB7DEB7082F59
:10302000D92EC62E7A01AE014F5F5F4F682F792FE0
:1030300083EE97E00E942417182F81112BC01F9256
:1030400084E18F93DF920F938EE991E19F938F93A9
:103050001F9280E88F938EE597E09F938F930E9455
:10306000112C6FEF7FEF85E991E10E94E8130FB615
:10307000F894DEBF0FBECDBF812F0F900F900F9041
:103080000F90DF91CF911F910F91FF90EF90DF9004
:10309000CF90089569817A818B819C814C2D0E940B
:1030A000100CDC01CB01009791F049815A816B81B2
:1030B0007C814031E7E25E076105710518F04FEF52
:1030C0005FEFBA01BD010E94631310E0D5CF898183
:1030D0009A81F70191838083CFCF8F929F92AF9295
:1030E000BF92CF92DF92EF92FF920F931F93CF93F5
:1030F000DF9300D01F92CDB7DEB77C018B014A0170
:10310000AC0161E081E991E10E940318811112C0D4
:1031100080E00F900F900F900F90DF91CF911F9153
:103120000F91FF90EF90DF90CF90BF90AF909F9066
:103130008F900895A80161E08DE891E10E94031845
:10314000882331F3F70140815181F8018081918119
:103150004817590739F46CE571E184E891E10E9460
:103160006313D6CFCE0101965C0180E4C82E82E4C1
:10317000D82E8FE0E82EF12C08EE13E020E030E0AE
:1031800040EA56E861E070E089E591E10E94781735
:10319000882309F4BECF49815A816B817C81F40177
:1031A0004083518362837383B4CFEF92FF920F9376
:1031B0001F93CF93DF93CDB7DEB762970FB6F89426
:1031C000DEBF0FBECDBF8C017B01BC0183EE97E05B
:1031D0000E947214009741F1FC0180858230A9F4AD
:1031E000A701B80183EE97E00E942417182F812FC2
:1031F00062960FB6F894DEBF0FBECDBFDF91CF91C0
:103200001F910F91FF90EF900895813069F420E1B4
:1032100030E0AE014F5F5F4FB80183EE97E00E9450
:103220005B16182F811102C010E0E1CF898188233D
:10323000D9F3803301F58A818F7D8835E1F48B8164
:10324000882391F340E150E0CE010396FC0161E058
:1032500021912223D1F030ED320F4031510591F40C
:103260003A3070F02F7D215431E0263008F030E004
:10327000361771F3D9CF4AE050E0CE010196E6CF80
:10328000312FF6CF3A3080F6E3CF1A8A198ABE0181
:103290006F5E7F4F0E94A32AE989FA89208121115C
:1032A000C3CFF7016083718382839383A0CFCF92D2
:1032B000DF92EF92FF920F931F93CF93DF93EC0176
:1032C0006B01CB010E94F02B7C01088119818A815E
:1032D0009B81801B910B8E159F0538F0A701B601CD
:1032E000C8010E94DA2B892B51F08C819D81892B9A
:1032F00021F48DE593E09D838C8380E005C00E0D65
:103300001F1D1983088381E0DF91CF911F910F91D9
:10331000FF90EF90DF90CF9008952F923F924F92C1
:103320005F926F927F928F929F92AF92BF92CF9255
:10333000DF92EF92FF920F931F93CF93DF9300D012
:103340001F921F92CDB7DEB77C015B014A012901B4
:1033500038010E94580ED701CD90DC90119712963B
:103360008D919C911397C816D90668F014968D918B
:103370009C91892B11F080E013C087E594E0F70160
:1033800095838483F8CFD6013C90B2E23B1220C0F3
:1033900081E0F4018083A801B201C7010E94C60D3B
:1033A0000F900F900F900F900F90DF91CF911F9182
:1033B0000F91FF90EF90DF90CF90BF90AF909F90D4
:1033C0008F907F906F905F904F903F902F900895D7
:1033D000FBE73F1609F418C18BE53812C3C0A4E01F
:1033E000AA16B10444F0F70184819581892B19F65E
:1033F00085E394E0C5CFFFEFAF1ABF0A9DE5292E04
:10340000C6010196D7018D939C93C7010E94580E67
:10341000D701ED91FC91119712968D919C91139784
:10342000E817F90728F480813196821509F47BC0EA
:10343000BBE73B1242C0C7010E94580ED701ED9175
:10344000FC91119712968D919C91E817F90718F449
:103450008081823249F0F70184819581892B09F0BE
:103460008ACF8EEE93E08CCFAE014F5F5F4FBE01EF
:103470006D5F7F4FC7010E94C60D882309F47BCF83
:10348000C7010E94580ED701ED91FC911197129639
:103490008D919C911397E817F90718F480818A336E
:1034A00049F0F70184819581892B09F064CF84ED7F
:1034B00093E066CF3196ED93FC938E010F5F1F4F23
:1034C0009E012D5F3F4FAE014B5F5F4FB501C701BE
:1034D0000E948D19882309F44ECFC7010E94580E0F
:1034E000D701ED91FC91119712968D919C911397B4
:1034F000E817F90770F014968D919C911597892B18
:1035000009F039CF8AEA93E015969C938E9314972D
:1035100032CF80818C3221F43196ED93FC9388CFA9
:10352000281217C03196ED93FC93FBE785E03F121C
:1035300001C086E0D4018C93F201D182C082D70110
:103540008D919C918C199D09F3019183808381E079
:1035500027CFF70184819581892B09F00CCF87E86B
:1035600093E00ECFFDE23F1621F080ED830D8A300F
:10357000A8F4C7010E94330D882309F4FCCE92E021
:10358000D4019C93F201D182C082D7012D913C914C
:103590002C193D09F3013183208302CF84E73812CF
:1035A00009C060E374E0C7010E94571993E0D40199
:1035B0009C930BC0B6E63B1214C06AE274E0C701EC
:1035C0000E94571993E0F4019083D201CD92DC92CE
:1035D000F701208131812C193D09D3012D933C93B2
:1035E000DFCEFEE63F1207C065E274E0C7010E942D
:1035F000571994E0DCCFF70184819581892B09F07C
:10360000BACE8FE094E0BCCEE4E0AE16B1040CF08C
:10361000EACEBFEFAB1ABB0A8DE7282EF1CE1F9280
:103620000F920FB60F9211242F933F938F939F9376
:10363000AF93BF938091540490915504A091560488
:10364000B09157043091530423E0230F2D3758F5E0
:103650000196A11DB11D20935304809354049093AF
:103660005504A0935604B093570480915804909148
:103670005904A0915A04B0915B040196A11DB11D9B
:103680008093580490935904A0935A04B0935B0418
:10369000BF91AF919F918F913F912F910F900FBE4E
:1036A0000F901F90189526E8230F0296A11DB11DBB
:1036B000D2CF1F920F920FB60F9211240BB60F921A
:1036C0002F933F934F935F936F937F938F939F932A
:1036D000AF93BF93EF93FF9385E798E00E94F90AB9
:1036E000FF91EF91BF91AF919F918F917F916F91DA
:1036F0005F914F913F912F910F900BBE0F900FBE96
:103700000F901F9018951F920F920FB60F921124D1
:103710000BB60F922F938F939F93EF93FF93E091AC
:103720008508F09186088081E0918B08F0918C08E3
:1037300082FD1DC0908180918E088F5F8F732091D4
:103740008F08821741F0E0918E08F0E0EB58F74FB8
:10375000958F80938E08FF91EF919F918F912F917C
:103760000F900BBE0F900FBE0F901F901895808189
:10377000F2CFCF93DF93CDB7DEB7CE5ED1090FB6D0
:10378000F894DEBF0FBECDBF789484B5826084BD4F
:1037900084B5816084BD85B5826085BD85B5816055
:1037A00085BD80916E00816080936E0010928100D3
:1037B000809181008260809381008091810081608E
:1037C000809381008091800081608093800080914F
:1037D000B10084608093B1008091B00081608093DB
:1037E000B00080919100826080939100809191005F
:1037F000816080939100809190008160809390001F
:103800008091A10082608093A1008091A1008160DD
:103810008093A1008091A00081608093A00080919E
:103820002101826080932101809121018160809338
:1038300021018091200181608093200180917A0094
:10384000846080937A0080917A00826080937A000D
:1038500080917A00816080937A0080917A008068FC
:1038600080937A001092C100E0918508F09186085B
:1038700082E08083E0918108F09182081082E091DB
:103880008308F091840880E1808310928D08E09194
:103890008908F0918A0886E08083E0918708F0919A
:1038A0008808808180618083E0918708F091880892
:1038B000808188608083E0918708F091880880810A
:1038C00080688083E0918708F091880880818F7DEF
:1038D00080830CE514E0C12CD12C7601B701A60140
:1038E0008FE796E00E94F10B8111D1C0C701B601AC
:1038F0000E94980C882309F4CCC083E0D8018C93F3
:1039000011961C92119712961C921297F80113822D
:1039100014821582168217961D921D921D921C927A
:103920001A97C701B6010E946B0C882391F0B7016A
:10393000A60188E896E00E94F10B81110AC0C70138
:10394000B6010E94980C811104C060E08C2D0E9489
:103950002F0ABFEFCB1ADB0AEB0AFB0A055F1F4FEA
:10396000E6E4CE16D104E104F10409F0B7CF81EC0E
:1039700096E00E94150D88EB96E00E94171180EBEF
:1039800096E00E94150D8CEA96E00E94171186EAD7
:1039900096E00E942C1184E996E00E94171181E9BB
:1039A00096E00E94150D21E034E0C951DF4F3983C4
:1039B0002883C75ED0401E013AE8230E311CC9514E
:1039C000DF4F48815981C75ED04041505109C951EC
:1039D000DF4F59834883C75ED040452B11F40C94C8
:1039E000962885E798E00E94E30A1816190614F055
:1039F0000C94962885E798E00E94C10A97FF02C0C0
:103A00000C9496288A30910511F00C947228F0904D
:103A10002F0468EF7FE088E290E1F11084C080918C
:103A20002D0490912E04009709F47FC0DC01A35D62
:103A3000BD4F1C92EDE2F2E09F012D52324028175B
:103A4000390708F072C021912032B1F32930A1F377
:103A50001E821D828DE292E09A838983BC83AB83B0
:103A600010927408109273089E012F5F3F4F290136
:103A7000C9010E94580EE981FA818B819C81E81767
:103A8000F90748F062E57EE08FEE9FE04CC085E0EC
:103A900035CF80E033CF80818B37A1F73196FA8321
:103AA000E983C2010E94580EE981FA818B819C81D1
:103AB000E817F90708F040C080818D37E9F53196A5
:103AC000FA83E983C2010E94580E29813A818B81D1
:103AD0009C8163E67DE028173907B1F61092DE0776
:103AE0001092DF071092E0071092E1071092E207B0
:103AF0006CEE7FE083EE97E00E947214009709F469
:103B0000E9C0FC018085843009F4E4C0A20169EEBB
:103B10007FE083EE97E00E9424178111CCC063EC14
:103B20007FE080EE9FE00E94021410922E0410921B
:103B30002D0410922F0443CF99E0E92EC2010E9478
:103B4000580EE981FA818B819C81E817F90718F4F6
:103B50008081823289F08D819E81892B21F481E3DD
:103B60009EE09E838D836D817E816115710509F0D4
:103B70008BCF6EE87DE088CFAE014D555F4FBE0123
:103B800064547F4FC2010E94C60D882361F3C201B5
:103B90000E94580EE981FA818B819C81E817F90710
:103BA00018F480818A3339F08D819E81892BD9F672
:103BB00087E19EE0D6CF3196FA83E983CC52DF4F7E
:103BC0001882C45DD040D1011D921C92E3961FAEB5
:103BD0001EAEE3978E010F581F4F9101AE014C525C
:103BE0005F4F61E070E0C2010E948D19882309F4E3
:103BF000BACF80917308909174088031910544F098
:103C00008D819E81892B09F0AECF86EF9DE0A9CFF3
:103C10009C012F5F3F4F3093740820937308E89EF8
:103C2000F001E99EF00D1124E252F84FC454DF4F29
:103C300088819981CC5BD04096838583CD55DF4FB9
:103C400088819981C35AD04090878783D1018D9113
:103C50009C9192878187E3968EAD9FADE397948781
:103C60008387CC52DF4F8881C45DD0408587C201F5
:103C70000E94580EE981FA818B819C81E817F9072F
:103C800040F08D819E81892B09F06DCF80ED9DE004
:103C900068CF80818C3221F43196FA83E9834ECF4C
:103CA0008D3709F40CCF8D819E81892B09F05BCF74
:103CB0008DEA9DE056CF81E08093DE0789819A816D
:103CC000AB81BC818093DF079093E007A093E1076D
:103CD000B093E2076FEB7FE083EE97E00E947214EF
:103CE000009749F44FEF5FEF6CE77FE086EB9FE0D2
:103CF0000E9463131ACFDC0118968C91813039F041
:103D00004FEF5FEF6AE47FE083E79FE0F1CF28E1C8
:103D100030E0AE0144545F4F66E47FE083EE97E00D
:103D20000E945B16E82E882311F40C946A286DE536
:103D30007DE0CE0184549F4F0E94E72B892BD9F55B
:103D400081E00E9485118DE197E00E942C1184E1B1
:103D500097E00E94171180E197E00E942C118CE0FF
:103D600097E00E94171187E097E00E942C118CEFDA
:103D700096E00E94171183EF96E00E942C1180912B
:103D8000120990911309009711F488E199E0B201AA
:103D9000681B790B072E000C880B990B0E94691188
:103DA0008DEE96E00E942C118BED96E00E9417118B
:103DB0000E942F0DBACE68E57DE0CE0184549F4F5E
:103DC0000E94E72B892B99F581E00E94851182E7FB
:103DD00097E00E942C118BE70E94100D0CE217E077
:103DE00082E7C82E87E0D82EF801F4904F2D50E0DE
:103DF00070E060E083E297E00E94F10B81110EC059
:103E0000E11003C08CE20E94100DEF2CF12CC701D1
:103E10000E941914C7010E94B711E12C0F5F1F4FB8
:103E2000C016D10609F78DE70E94100DC1CF6EE4D0
:103E30007DE0CE0184549F4F0E94E72B892B59F4DB
:103E400081E00E9485118CE20E94100D87E797E0C7
:103E50000E94150DE8CF61E47DE0CE0184549F4FB0
:103E60000E94E72B3C01892B09F08DC1CC52DF4F1A
:103E700019821882C45DD040AE014C525F4FB2012E
:103E800080E00E94BB14E82E882309F44ECEC7516F
:103E9000DF4F59824882C95ED040620110E000E0E5
:103EA000CC52DF4F88819981C45DD0400817190733
:103EB0000CF47AC06E01F3EACF0ED11C9E012F588C
:103EC0003F4FCF51DF4F39832883C15ED040C5516A
:103ED000DF4F59824882CB5ED040CB51DF4F3983D0
:103EE0002883C55ED040C351DF4F39822882CD5E22
:103EF000D040CD51DF4FD982C882C35ED040CC5272
:103F0000DF4F28813981C45DD040CD51DF4F88819A
:103F10009981C35ED0408C199D09821793070CF0DC
:103F200094C0C551DF4FA881B981CB5ED0400D91BF
:103F30001D91C551DF4FB983A883CB5ED040C80126
:103F40000E94BC0C0E94600A4B015C0122E030E040
:103F500040E050E0C352DF4F288339834A835B83BC
:103F6000CD5DD0400E94600A681979098A099B09D1
:103F7000683E734081059105A8F338EE830E33E067
:103F8000931EA11CB11CC352DF4F88819981AA8165
:103F9000BB81CD5DD0400197A105B10501F121E0C4
:103FA00030E040E050E0D6CFD6016D917D916D01BB
:103FB000072E000C880B990B0E94980C882361F047
:103FC000000F111F400E511EF2014081518166E128
:103FD0007CE088E69CE08CCE0F5F1F4F61CFC8016C
:103FE0000E94CD0ECB51DF4FA881B981C55ED04074
:103FF000E1E0ED93CB51DF4FB983A883C55ED0409C
:10400000009721F0FD0131971082FE2CCD51DF4F3A
:10401000A881B981C35ED0408D93CD51DF4FB98364
:10402000A883C35ED04021E0019709F020E0C3518E
:10403000DF4FE881F981CD5ED0402193C351DF4F3E
:10404000F983E883CD5ED0405ACF81E00E9485118C
:1040500088E997E00E942C118BE70E94100D8101E6
:10406000C80182199309CC52DF4F28813981C45D80
:10407000D040821793078CF4892B19F08CE20E94B0
:10408000100DD2018D919D912D010E941914F801FE
:1040900081918F010E94260DE3CF8DE70E94100DC4
:1040A00081E997E00E942C118BE70E94100D860198
:1040B000C8018C199D09CC52DF4F28813981C45D1C
:1040C000D04082179307F4F4892B19F08CE20E94F8
:1040D000100DC751DF4FA881B981C95ED0408D91C5
:1040E0009D91C751DF4FB983A883C95ED0400E941C
:1040F0001914F80161918F0170E090E080E00E9456
:104100006C11D6CF8DE70E94100DFF2009F450CE20
:1041100085E897E00E942C118BE50E94100DCC528F
:10412000DF4F88819981C45DD040681679060CF014
:10413000D2C0CF51DF4FA881B981C15ED0408D91EF
:10414000CF51DF4FB983A883C15ED040811117C022
:10415000F11003C08CE20E94100DF301EE0FFF1F5F
:1041600021E030E02C0F3D1FE20FF31F60817181D1
:10417000072E000C880B990B0E946C11F12C3FEF5D
:10418000631A730ACCCF68E37DE0CE0184549F4F5D
:104190000E94E72B8C01892B09F0ABC0AE014F5870
:1041A0005F4FB101CE018D559F4F0E946D1888233E
:1041B00009F4BBCCE5962CAD3DAD4EAD5FADE597BA
:1041C000D1016D917C91CD55DF4F88819981C35A82
:1041D000D0400E947B13882309F4A7CCF12CE12C5A
:1041E000E8E09E2E892D0E94F00F882E81110EC0CE
:1041F000F201EE0DFF1D9082F70131967F0193943D
:1042000028E79212EFCF912C812C03C0F2E08F1798
:10421000B1F3D101CD90DC90CD55DF4FA880B980AE
:10422000C35AD0400E948A0EC5010E94BC0CC60130
:104230000E94BC0C81E0811080E00E9485118820E2
:10424000B9F086EB97E00E942C118CEA97E00E946F
:1042500017118FE198E00E942C118CEB97E00E94DF
:10426000171187EA97E00E942C11892D0E9479107E
:1042700081EA97E00E942C118BE50E94100D6201EB
:104280000E151F0571F00115110519F08CE20E9441
:10429000100DF60181916F010E9479100F5F1F4F81
:1042A000EFCF8DE50E94100D0E943A110115110506
:1042B000A1F072010E94C70E41E060E0D7018D912C
:1042C0007D010E9445110E94C10EC7018419950904
:1042D000801791077CF38DE5A7CD8110FCCF0E945C
:1042E000C70E40E060E088E00E9445110E94C10EC8
:1042F000F2CF6FE27DE0CE0184549F4F0E94E72B06
:10430000892B09F088C2AE014C525F4FBE01685242
:104310007F4FCE0186529F4F0E946D18882309F46B
:1043200004CCBE016D557F4F88E49AE00E94D518F9
:104330008823F1F0CD55DF4F88819981AA81BB8117
:10434000C35AD0400897A109B10980379105A1054A
:10435000B10570F4B10184E49AE00E94D51881118E
:104360000EC04FEF5FEF65E979E080EE99E0C0CCD9
:104370004FEF5FEF6DEE79E08BE39AE0B9CCF1019E
:1043800080819181A281B3818F3F9105A105B10503
:1043900009F038F79E012F583F4F590170E2C72EA0
:1043A000D12CE12CF12C01E010E020E030E041E0E4
:1043B00050E060E070E089EE99E00E947817882371
:1043C00009F4B3CBCC52DF4F288139814A815B811C
:1043D000C45DD040C852DF4F68817981C85DD0404C
:1043E000C652DF4F88819981CA5DD0400E947B13FD
:1043F000882309F49ACBE396AEACBFACE397D10126
:104400000C91CD55DF4F1881C35AD04010922C0229
:10441000C452DF4F1882CC5DD0400E94440F8111FE
:1044200005C00E94830E10E000E09AC0BE016452F5
:104430007F4F812F880F0E94B30F882391F3C452BE
:10444000DF4F8881CC5DD040882341F0BE016452AB
:104450007F4F802F0E94B30F882319F3C452DF4F80
:104460008881CC5DD040882349F10E947E0E0E9455
:10447000A80E0E94F60E8823A1F280910502909169
:1044800006020E94CD0E892B21F484E080932C0239
:10449000C8CF0E94A80E0E949C0E0E94A80E0E94E7
:1044A000720E0E94A80E812F880FBE0164527F4FAA
:1044B00081600E94B30F882309F4B3CFC452DF4F49
:1044C0008881CC5DD040720110E000E0811106C00F
:1044D0000E94250F8111A7CFA4CF84010A151B05C7
:1044E000D8F54801BFEF8B1A9B0AF701108268E0EC
:1044F000C62ED12C0E947E0E0E94A80E0E94F60E9F
:10450000882339F180910502909106020E94CD0E18
:104510003C010E94A80E0E94720ED7018C9190E07F
:10452000880F991F21E0672809F420E0822BF7010A
:104530008083F1E0CF1AD108E9F681E08A149B0468
:1045400008F480E00E948B0F2FEFE21AF20A81112B
:10455000C4CF0E94830E04C00E94250F8823C9F394
:10456000E3968EAD9FADE3978017910709F096C053
:10457000C852DF4FE880F980C85DD040C652DF4F97
:10458000C880D980CA5DD0400E948A0EC6010E94B0
:10459000BC0CC7010E94BC0C81E00E94851180E91F
:1045A00099E00E942C118BE50E94100D6201F12C04
:1045B000E12CE016F10678F4E114F10419F08CE234
:1045C0000E94100DD6018D916D010E947910BFEFF0
:1045D000EB1AFB0AEECF8DE50E94100D0E943A11F6
:1045E0000E94C70E41E060E0CD55DF4F8881C35A7D
:1045F000D0400E944511F101F0800E94B70E88E57D
:1046000098E00E94150D8F2D0E94791089E498E0A2
:104610000E94150D84E598E00E942C1189E398E032
:104620000E94150D8DE70E94100D0E94B70E83E2C7
:1046300098E00E94150D41E061E0CD55DF4F888183
:10464000C35AD0400E944511F12CE12CE016F1062E
:1046500008F04CCEFFEFEF1AFF0ADD24D394E016EA
:10466000F10608F0D12CD201CD902D010E94B70E99
:1046700088E598E00E94150D8C2D0E9479108EE33C
:1046800098E00E94150D84E598E00E942C118D2D74
:104690000E94260D8DE70E94100DD8CFCD55DF4F1B
:1046A0008881C35AD0400E94F00FB82EC852DF4F05
:1046B000E880F980C85DD040C652DF4FC880D980FD
:1046C000CA5DD0400E948A0EC6010E94BC0CC70180
:1046D0000E94BC0C80E00E948511B2E0BB1254C065
:1046E000CA55DF4F8881C65AD0408F93CB55DF4FD4
:1046F0008881C55AD0408F93CC55DF4F8881C45AEA
:10470000D0408F93CD55DF4F8881C35AD0408F93CF
:104710008CE399E09F938F931F9280E88F938EE5AF
:1047200097E09F938F930E94112C86E399E00E945B
:104730002C1181E399E00E9417118DE299E00E940B
:104740002C118EE597E00E94041186E299E00E9408
:104750002C1181E299E00E9417110FB6F894DEBF88
:104760000FBECDBF0E943A118B2D8D7F09F0B3CDC6
:104770000E94C70E41E0B11040E060E0CD55DF4F30
:104780008881C35AD040B0CDB11034C08BE199E0DC
:104790000E942C118AE898E00115110511F48EE7AA
:1047A00098E00E94171187E199E00E942C1185E999
:1047B00098E00E94171101151105A1F289E798E010
:1047C0000E942C118BE50E94100DF12CE12CD201DE
:1047D0008D912D010E947910BFEFEB1AFB0AE016B4
:1047E000F10621F48DE50E94100DBCCF8CE20E94F1
:1047F000100DEDCF83E798E00E942C1189E698E038
:104800000E9417118FE198E00E942C118CEB97E029
:104810000E941711A7CF6BE27DE0CE0184549F4F19
:104820000E94E72B892B09F0A4C0A10160E08BEC6A
:104830009AE00E940318882309F477C9F1014081A6
:104840005181052E000C660B770B8DE49AE00E94D7
:10485000F10BD101811120C011968C9111978F938A
:104860008C918F9382E89AE09F938F931F9280E8B8
:104870008F938EE597E09F938F930E94112CF10107
:10488000608171818AE79AE00E94E8130FB6F8947C
:10489000DEBF0FBECDBF49C98D919C918634910575
:1048A00058F42BE0289FF001299FF00D1124E45AC1
:1048B000FB4F2081233011F00E94BC0CAE014F58F9
:1048C0005F4FB201F101808191810E94BE0BD10145
:1048D0000D911C918BE0809FF001819FF00D1124C0
:1048E000E45AFB4F8081823021F460E0802F0E94E7
:1048F000010A8BE0809FF001819FF00D1124E45AA2
:10490000FB4F83E0808381E00E94851187E79AE076
:104910000E942C1169817A818B819C810E9469118E
:1049200083E79AE00E942C11E3966EAD7FADE3978A
:1049300090E080E00E9469118FE69AE00E942C11BD
:1049400087E69AE00E9417118BE59AE00E942C11ED
:1049500068E873E180E090E00E94691186E59AE0E2
:104960000E942C116AE070E080E090E00E946911E2
:104970001FCA67E27DE0CE0184549F4F0E94E72B5F
:10498000892B09F0D1C1A10161E084ED9BE00E9477
:104990000318882309F4C9C86FEC7BE083EE97E025
:1049A0000E947214892BA9F06AEC7BE083EE97E0F9
:1049B0000E947214009709F48EC0FC0120852330F8
:1049C00009F089C00480F581E02D8081843709F4E5
:1049D00089C0AE014F585F4F6EE97BE083EE97E0F0
:1049E0000E940817882309F485C0E596CCACDDAC9D
:1049F000EEACFFACE59720E030E0A901C701B601BD
:104A00000E944E2C87FD76C020E030E048EC52E456
:104A1000C701B6010E94D43118160CF46BC05201C4
:104A200040E4C42E42E4D42E4FE0E42EF12C01E009
:104A300010E020E030E048E853E160E070E08BE90E
:104A40009BE00E947817882309F46FC8E5964CAC68
:104A50005DAC6EAC7FACE597F101E080F180C70101
:104A600002978C30910520F08A97039708F04BC18C
:104A7000F701ED5EFE4EE491E15031ED832E33E01F
:104A8000932EA12CB12CE23030F02AEE822E992404
:104A90009394A12CB12C20E030E04FE753E4C30104
:104AA000B2010E94B42C20E030E048EC52E40E94B5
:104AB000D4300E94D931162F072FC62ED72E61E091
:104AC0008E2D0E942F0AC114D104D9F460E08E2DDE
:104AD0000E94010A42C04FEF5FEF63EA7BE081EC86
:104AE0009BE006C9D1018D919C910E94BC0C0E9453
:104AF000B2111BC84FEF5FEF67E67BE082E99BE0F6
:104B0000F7C8FFEFCF16D10411F461E0E0CFF70151
:104B1000FF27ED5EFE4EE491E150E23108F0EDC07A
:104B2000F0E08827E956FA4D8F4F0C940C32A925F6
:104B3000D325D825E425F0257D26FC2504260C2642
:104B400018262426302641264D267D265926652600
:104B5000712684B5806884BD17BD8BE08E9DF00101
:104B60008F9DF00D1124E45AFB4F82E08083438235
:104B700054826582768287829086A186B28681E0A1
:104B80000E94851189819A81AB81BC818815990524
:104B9000AA05BB0509F40CC987ED9AE00E942C1107
:104BA000C501B401E3CE84B5806284BD18BDD5CF04
:104BB00080918000806880938000812F902F909357
:104BC000890080938800C9CF8091800080628093A3
:104BD0008000812F902F90938B0080938A00BDCF0F
:104BE00080918000886080938000812F902F909327
:104BF0008D0080938C00B1CF8091B000806880934D
:104C0000B0001093B300A9CF8091B0008062809370
:104C1000B0001093B400A1CF809190008068809381
:104C20009000812F902F909399008093980095CFBA
:104C300080919000806280939000812F902F9093BC
:104C40009B0080939A0089CF809190008860809328
:104C50009000812F902F90939D0080939C007DCF9A
:104C60008091A00080688093A0008091A0008F7B3D
:104C70008093A000812F902F9093A9008093A8008B
:104C80006CCF8091A00080628093A000812F902F34
:104C90009093AB008093AA0060CF8091A0008860C1
:104CA0008093A000812F902F9093AD008093AC0053
:104CB00054CF80912001806880932001812F902F14
:104CC000909329018093280148CF80912001806230
:104CD00080932001812F902F90932B0180932A01A4
:104CE0003CCF80912001886080932001812F902FFC
:104CF00090932D0180932C0130CF20E8C216D1046F
:104D00000CF003CFE3CE6FEC7AE083E292E00E94F6
:104D1000E72BA7016EE07BE0892B11F06AED7AE0CA
:104D20008FEC9AE00C94781E6CE17DE0CE01845407
:104D30009F4F0E94E72B892B09F07BC0AE014F5893
:104D40005F4F61E082E19CE00E940318882311F428
:104D50000C94951D6CE07CE083EE97E00E94721449
:104D60000097B9F1DC0118962C911897233089F53A
:104D70001496ED91FC9181E090E0A0E0B0E02081FC
:104D8000243719F080E090E0DC0189839A83AB83BB
:104D9000BC83E980E3960EAD1FADE3978BE0809F67
:104DA000F001819FF00D1124E45AFB4F8081823085
:104DB00049F560E0802F0E94010A61E0E11001C026
:104DC00060E0802F0E94010A61E0802F0E942F0A7C
:104DD0001BC0A20166E07CE083EE97E00E942417EE
:104DE000882341F089819A81AB81BC810297A1051A
:104DF000B10578F24FEF5FEF68ED7BE08DEF9BE060
:104E00000C94781E8130C9F6FF24F394E11001C0A0
:104E1000F12C6F2D802F0E94010A8BE0809FF00102
:104E2000819FF00D1124E45AFB4F81E08083F182D1
:104E30005ECE62E17DE0CE0184549F4F0E94E72B5D
:104E4000892B09F06AC0A20160E084EE9CE00E9418
:104E50000318882311F40C94951D69817A81072E1B
:104E6000000C880B990B0E94980C09811A818823E9
:104E700011F0A801ACC806341105A0F48BE0809FA6
:104E8000F001819FF00D1124E45AFB4F80818230A4
:104E900011F0843039F4A8016EE77CE08BED9CE0E2
:104EA0000C94781EB801012E000C880B990B0E94FF
:104EB000980C81110DC08BE0809FF001819FF00D57
:104EC0001124E45AFB4F8081823040F0833019F086
:104ED0000FEF1FEF07C0C8010E94BC0CC8010E9461
:104EE000CD0E8C0181E00E9485118AE79CE00E9432
:104EF0002C1169817A81072E000C880B990B0E9476
:104F00006C1184E79CE00E942C11B801110F880BF2
:104F1000990B0E946C110C94D81E6BE07DE0CE01C1
:104F200084549F4F0E94E72B892B09F082C0F10126
:104F300011821082A101B20181E00E94BB1488237A
:104F400011F40C94951D9E012F583F4F590192E387
:104F5000C92ED12CE12CF12C00E010E0980144E1A5
:104F600050E060E070E088EE9CE00E9478178823B3
:104F700011F40C94951DD1018D919C91009759F0DD
:104F8000E5964CAD5DAD6EAD7FADE5974115510534
:104F90006105710529F41092520410924904A7CDBD
:104FA000141615061606170654F021E030E040E00E
:104FB00050E0E5962CAF3DAF4EAF5FAFE5978A313D
:104FC000910514F089E190E080934904D201E0E377
:104FD000F4E099279F01205334402817390724F41F
:104FE0002C9112962193F6CFE5962CAD3DAD4EADAA
:104FF0005FADE59760E472E48FE090E00E942B30B3
:1050000020934A0430934B0440934C0450934D0436
:105010000E94600A60934E0470934F048093500482
:10502000909351040E94B21181E0809352040C9439
:10503000951D6FEF7CE0CE0184549F4F0E94E72BBB
:10504000892B09F4A8CF64EF7CE0CE0184549F4FF4
:105050000E94E72B892BF1F510925204109249041B
:1050600081E00E9485118BEE9CE00E942C118BE563
:105070000E94100D0CE514E0812C912C5401C50107
:10508000B4010E946B0C8823B9F0C501B4010E94E1
:10509000980C811111C0D8018C91882369F0C4014A
:1050A0000E94BC0CE11003C08CE20E94100DC501EF
:1050B000B4010E946C11E12CBFEF8B1A9B0AAB0A62
:1050C000BB0A055F1F4FE6E48E169104A104B104EC
:1050D000B1F601C94FEF5FEF68E87EE08AE39FE039
:1050E0000C94781E8D30910511F40C94DF1C2091E6
:1050F0002F0421110C94DF1C20912D0430912E04DB
:105100002F3FF1E03F0768F4A9014F5F5F4F5093D5
:105110002E0440932D04235D3D4FD9018C930C94B4
:10512000DF1C81E080932F040C94DF1C80915204DB
:10513000882309F479C00E94600A00914E041091FE
:105140004F0420915004309151046B017C01C01A2E
:10515000D10AE20AF30AF7FC67C0C0904A04D09073
:105160004B04E0904C04F0904D040C0D1D1D2E1DC1
:105170003F1D4B015C01801A910AA20AB30A181460
:1051800019041A041B040CF43EC000934E0410933F
:105190004F0420935004309351048FE390E10E9418
:1051A000150D2FB7F89460915404709155048091B7
:1051B0005604909157042FBF0E94691185E390E136
:1051C0000E94150D80E3E82E84E0F82E10E000E048
:1051D000809149048017110619F114F10115110588
:1051E00019F08CE20E94100DF70181917F0190E08F
:1051F0000E941914F7013197808190E00E94B71145
:105200000F5F1F4FE5CFC60ED71EE81EF91EC092D6
:105210004E04D0924F04E0925004F0925104BDCF5E
:1052200081E390E10E94150D0E948D0B0C94D31C1C
:10523000E5E7F8E01382128288EE93E0A0E0B0E0A8
:1052400084839583A683B78385E192E091838083ED
:1052500085EC90E09587848784EC90E0978786873B
:1052600080EC90E0918B808B81EC90E0938B828B33
:1052700082EC90E0958B848B86EC90E0978B868B0C
:10528000118E128E138E148E08958F929F92AF926C
:10529000BF92CF92DF92EF92FF920F931F93CF9323
:1052A000DF935C017B016115710519F0DB018D93C2
:1052B0009C9385010F5F1F4FF501D0818D2F90E0EA
:1052C0000E94D12B6C01892BB9F5DD32B9F50F5F46
:1052D0001F4FD5011196DC91C1E05801F1E0AF1AE2
:1052E000B10843E050E064E971E0C5010E94F92B88
:1052F000892B69F5680182E0C80ED11C45E050E0B9
:105300006FE871E0C6010E94F92B892B21F4680136
:1053100097E0C90ED11CE114F10419F0D701CD9228
:10532000DC9260E070E080E89FEFC111FFC060E0B8
:1053300070E080E89FE7FAC05801BBCFDB3229F468
:1053400085010E5F1F4FF501D181C0E0C6CF43E05C
:1053500050E06CE871E0C5010E94F92B892BE9F05F
:10536000F80110E000E020E030E0A9015F01B0EDBD
:105370008B2E8D0E89E08815C8F19C2E689491F8CB
:105380008C2F8870C2FF16C0811102C00F5F1F4FA3
:105390003196D501DC91C92DE9CFE114F10429F052
:1053A0000E5F1F4FF7011183008360E070E080EC17
:1053B0009FE7BCC0882311F001501109A5E0B0E0BF
:1053C0000E944D309B01AC01220F331F441F551F1B
:1053D000280D311D411D511D283999E9390749070B
:1053E00099E15907A8F2C6609C2ED2CFAEEF8A127F
:1053F00006C0C3FD3CC09C2E689493F8C9CFDF7DE6
:10540000D534A9F580818D3239F4C061DF0112965F
:10541000818162E070E006C0DF018B32C1F311963A
:1054200061E070E080535D01A61AB70A8A30F8F493
:10543000E0E8CE16ECE0DE065CF4B601660F771FFE
:10544000660F771FC60ED71ECC0CDD1CC80ED11CF4
:105450005D01FFEFAF1ABF0A8C9180538A30A8F12B
:10546000C4FF03C0D194C194D1080C0D1D1DC1FF10
:1054700009C0E114F10431F081E0A81AB108D701A4
:10548000AD92BC92CA01B9010E94532CC370C330C3
:1054900009F490584B015C0120E030E0A9010E9422
:1054A0004E2C882309F440C0C3ECD1E017FF05C09F
:1054B000119501951109CBEAD1E06E01B8E1CB1A43
:1054C000D10880E2E82EF12C0FC0D501B1CFFE014A
:1054D00025913591459154910E191F09C501B401CB
:1054E0000E94B42C4B015C01D501C4010E151F05AF
:1054F00074F72497F594E794CC16DD06A9F78A2F64
:10550000880F8B2F881F8F3F49F020E030E0A901E2
:10551000C501B4010E944E2C811106C082E290E0C8
:105520009093170980931609C501B401DF91CF91BB
:105530001F910F91FF90EF90DF90CF90BF90AF90B1
:105540009F908F9008953F924F925F926F927F92BB
:105550008F929F92AF92BF92CF92DF92EF92FF9283
:105560000F931F93CF93DF935C016B017A01611559
:10557000710519F0FB0191838083E114F10451F06E
:10558000C7010297839730F040E030E020E090E0E0
:105590006BC05E01E5012196F5011081812F90E03D
:1055A0000E94D12B892BA9F71D3201F52196F50117
:1055B000118101E0E114F10409F4E6C0F0E1EF1615
:1055C000F10409F088C0103359F488818F7D883543
:1055D00009F07CC0198122960260F0E1EF2EF12CD7
:1055E000812C912CA12C88E0B82E92C01B3221F482
:1055F000E5012296F501118100E0DCCFEAE0EE162C
:10560000F10409F4C7C0F0E1EF16F10409F073C02A
:10561000E7CF78E0E72EF12C812C912CA12C60E1D2
:10562000B62E76C021E0ADC0302F3170C114D10448
:1056300031F0222371F12197F601D183C08327FF36
:105640002EC060E070E080E090E8311104C06FEFA0
:105650007FEF8FEF9FE722E230E03093170920932E
:105660001609462F372F282F642F732F822FDF9193
:10567000CF911F910F91FF90EF90DF90CF90BF904F
:10568000AF909F908F907F906F905F904F903F90E2
:10569000089501FF04C02297F601D183C08333230C
:1056A00041F090958095709561957F4F8F4F9F4FFA
:1056B000D8CF97FFD6CF82E290E0909317098093DE
:1056C00016096FEF7FEF8FEF9FE7CBCF10E3E11469
:1056D000F10409F49ECF28E0E216F10409F49CCF0E
:1056E0000CF08CCF812C912CA12CE0E4BE2E82E01A
:1056F000E816F10469F060E070E080E090E897015E
:105700000F2C000C440B550B0E942B3049015A0101
:1057100020E060E070E0CB0127010F2C000C660850
:105720007708FE0150ED352E310E39E0331570F457
:105730003FEB310F49EC342E3A3138F03FE9310F6D
:105740003A3108F071CF39EA332E310E3E141F047E
:105750000CF06ACF27FD15C086169706A806B90675
:1057600078F0A30192010E941B30630D711D811D11
:10577000911D61307105810520E8920708F452CF30
:105780002FEF21961081CDCF103309F41ECF2AE0E0
:10579000E22EF12C9CEC892E982CA82C9CE0B92EA2
:1057A000B7CF91110C94232F803219F08950855076
:1057B000C8F70895FB01DC0104C08D9105908019A4
:1057C00021F441505040C8F7881B990B0895FB0104
:1057D000DC018D91059080190110D9F3990B089582
:1057E000FC0105900020E9F7809590958E0F9F1F92
:1057F0000895FB01DC014150504088F08D918134C7
:105800001CF08B350CF4805E659161341CF06B35B7
:105810000CF4605E861B611171F3990B0895881B6F
:10582000FCCF0F931F93CF93DF93CDB7DEB72E97A7
:105830000FB6F894DEBF0FBECDBF0E891F89888DCD
:10584000998D2EE02C831A83098397FF02C080E094
:1058500090E801979E838D83AE01445E5F4F6A8D11
:105860007B8DCE0101960E94212D4D815E8157FDD9
:105870000AC02F813885421753070CF49A01020F92
:10588000131FF80110822E960FB6F894DEBF0FBEDC
:10589000CDBFDF91CF911F910F9108950E94902C61
:1058A00008F481E00895E89409C097FB3EF49095D0
:1058B0008095709561957F4F8F4F9F4F9923A9F0E9
:1058C000F92F96E9BB279395F69587957795679578
:1058D000B795F111F8CFFAF4BB0F11F460FF1BC0BC
:1058E0006F5F7F4F8F4F9F4F16C0882311F096E94F
:1058F00011C0772321F09EE8872F762F05C06623FD
:1059000071F096E8862F70E060E02AF09A95660FB5
:10591000771F881FDAF7880F9695879597F908956E
:10592000990F0008550FAA0BE0E8FEEF16161706B0
:10593000E807F907C0F012161306E407F50798F018
:10594000621B730B840B950B39F40A2661F0232B31
:10595000242B252B21F408950A2609F4A140A695AD
:105960008FEF811D811D08950E94C72C0C94E12F9B
:105970000E94D32F38F00E94DA2F20F0952311F0E7
:105980000C94CA2F0C94D02F11240C9415300E9423
:10599000F22F70F3959FC1F3950F50E0551F629F52
:1059A000F001729FBB27F00DB11D639FAA27F00D78
:1059B000B11DAA1F649F6627B00DA11D661F829F9F
:1059C0002227B00DA11D621F739FB00DA11D621F84
:1059D000839FA00D611D221F749F3327A00D611DA1
:1059E000231F849F600D211D822F762F6A2F112483
:1059F0009F5750409AF0F1F088234AF0EE0FFF1FB6
:105A0000BB1F661F771F881F91505040A9F79E3F0C
:105A1000510580F00C94CA2F0C9415305F3FE4F3CD
:105A2000983ED4F3869577956795B795F795E79562
:105A30009F5FC1F7FE2B880F911D9695879597F96B
:105A400008952F923F924F925F926F927F928F9222
:105A50009F92AF92BF92CF92DF92EF92FF920F93FD
:105A60001F93CF93DF9300D000D000D01F921F92DE
:105A7000CDB7DEB77C013B018A01FC01178216829B
:105A8000838181FFDDC1CE0101965C01F701938125
:105A9000F30193FD859193FF81913F01882309F4E0
:105AA00053C1853239F493FD859193FF81913F0174
:105AB000853229F4B70190E00E943C2FE7CF912C6A
:105AC000212C312CFFE1F31538F08B3211F190F4D9
:105AD000803209F1833229F137FC3CC020ED280FD8
