:020000022000DC
:106000000000042075490300B5490300B7490300A7
:10601000B9490300BB490300BD490300000000006B
:10602000000000000000000000000000F148030034
:10603000C14903000000000011490300C5490300E5
:10604000014B0300C749030021240300C749030093
:10605000C7490300C749030099250300C749030046
:10606000C7490300C7490300C7490300C7490300E4
:10607000C7490300C7490300C7490300C7490300D4
:10608000C749030041460300C7490300C74903004D
:10609000C7490300C7490300C7490300C7490300B4
:1060A000C7490300C7490300C7490300C7490300A4
:1060B000C7490300C74903000000000000000000BA
:1060C000C7490300C7490300C7490300914D0300B6
:1060D000C7490300C7490300C7490300C1BA02000A
:1060E0006D240300C7490300C749030000000000F6
:1060F00000000000C749030000000000094E030033
:10610000000000000000000000000000000000008F
:10611000000000000000000000000000000000007F
:10612000000000000000000000000000000000006F
:10613000000000000000000000000000000000005F
:10614000000000000000000000000000000000004F
:10615000000000000000000000000000000000003F
:10616000000000000000000000000000000000002F
:10617000000000000000000000000000000000001F
:10618000000000000000000000000000000000000F
:1061900000000000000000000000000000000000FF
:1061A00000000000000000000000000000000000EF
:1061B00000000000000000000000000000000000DF
:1061C00000000000000000000000000000000000CF
:1061D00000000000000000000000000000000000BF
:1061E00000000000000000000000000000000000AF
:1061F000000000000000000000000000000000009F
:10620000F1EE103A43F08073E1EE103A704700BFB0
:1062100010B5054C237833B9044B13B10448AFF3E0
:1062200000800123237010BD3463002000000000B3
:1062300038B8030008B5034B1BB103490348AFF35B
:10624000008008BD000000003863002038B803005B
:10625000154B002B08BF134B9D46A3F5803A002138
:106260008B460F461348144A121A10F0DFF80F4BF2
:10627000002B00D098470E4B002B00D098470020F1
:10628000002104000D000D48002802D00C48AFF397
:10629000008010F061F8200029000EF0C3FB10F020
:1062A00047F800BF000008000000042000000000C4
:1062B0000000000034630020388A00200000000045
:1062C0000000000000F00EB800F03CB808B504482B
:1062D00004F056F8BDE808407D2004F0EDB800BF9A
:1062E0007CA2030008B54FF4E1310E480BF0A2FE8A
:1062F00004F00CFC0C4804F043F80C4804F094F94A
:106300000B4804F03DF80B4804F08EF90A4804F0FD
:10631000FFF90A4804F088F9BDE80840084804F08D
:106320002FB800BFB47E00208CA20300A8A20300F7
:10633000B4A20300BCA20300C0A20300C8A20300D1
:10634000D4A203002DE9F04FDFF82893DFF828A34B
:10635000DFF828B389B04FF480650FE00D280BD02B
:10636000A64A137843B9A64C2368B3F5FF7F21D81A
:10637000A4495A1CC8542260013D16D0A2480BF013
:10638000DFFD002811DDA0480BF0E2FD00280CDB4A
:106390000A28E3D1994E32787AB9994C216891B99B
:1063A0000023013D23603370E8D101F057FB09B0B1
:1063B000BDE8F08F01231370DEE794499448904CB8
:1063C00004F0B8F9ECE78F4B5A54581801E08342B7
:1063D000E6D013F8012B202AF9D0092AF7D08D4FE7
:1063E00088484FF0000807F1080201ABCDF804809F
:1063F00002F0B0F940B90199874B8848002908BFDD
:10640000194604F097F9CBE7854987F8008007F132
:106410000800C7F8048002F0BDFA70B1837B042B3A
:106420000BD07F4902AA07F1080002F009FE0028FC
:1064300076D0029B7B6001223A707A497A4802F05A
:10644000A9FA002864D0837B012B07D0774A7849CA
:1064500070484FF0FF3304F01BFAA1E7714972480E
:1064600002AA182303F07CF8002849D0029B4B4570
:106470005BD0029B534560D0029B6E4A934264D02E
:10648000029B6D4A93426CD0029B5B457DD0029B80
:106490005B4500F08880694A029B934200F091803E
:1064A000674A934200F09180664A934200F09180DF
:1064B000029B644A934200F0E380634B029A9A4243
:1064C00000F0EC80604B029A9A4200F0F780029A4A
:1064D0005E4B9A4214D103F17F73039A03F57A431A
:1064E00002339A420CD1BDF8102047F26E339A4223
:1064F00006D19DF812301BB9464801F06FFA4FE7FC
:10650000534A544943484FF0FF3304F0C1F947E779
:10651000514A47493F484FF0FF3304F0B9F93FE78C
:106520004E49434804F006F93AE7BDF80C306F2BAA
:106530009FD1384800F0AEF932E79DF80C30002BBF
:106540009AD1344800F0E0F92AE7454B039A9A4281
:1065500096D1BDF81030672B92D12E4800F006FA84
:106560001EE7404B039A9A428ED103F10063049ACE
:1065700003F57D33F3339A4286D19DF81430002B16
:1065800082D1244800F000FA0AE7374B039A9A4276
:106590007FF47DAF9DF81030002B7FF478AF1D485D
:1065A00000F0F4FAFCE6314B039A9A427FF473AFA1
:1065B0009DF81030002B7FF46EAF164800F084FC7D
:1065C000EEE6144800F042FFEAE6124800F0AAFFA7
:1065D000E6E6274B039A9A427FF46AAFBDF8102093
:1065E00046F274539A427FF463AF9DF81230002B49
:1065F0007FF45EAF074801F07DF8D1E660660020C9
:106600005063002060640020B47E0020F8A20300E4
:1066100028A3030054630020D8A2030034A303007E
:1066200040A3030010A503005C630020ACA303009B
:1066300064A303007374726170756C6C61646300B1
:1066400070776D006770696F7374726572657365DA
:1066500054A4030008A5030070A3030044A303008F
:106660007070696E75705F637363616E726561648B
:106670005F77726968656C6C70696E736932635FAD
:10668000184B039A9A427FF418AFBDF81030642B70
:106690007FF413AF144801F08DF881E6BDF80C20AB
:1066A00046F661539A427FF40DAF9DF80E30002BF1
:1066B0007FF408AF0C4801F0F5F871E603F15E6372
:1066C000039A03F54F2303F6EE039A427FF4FFAEDD
:1066D000064B049A9A427FF4FAAE034801F072F92D
:1066E0005EE600BF5F72656154630020746F7000E6
:1066F0002DE9F04186B005461646083003AA9846B3
:106700000F4602F09DFC0446E0B10399324604A80E
:1067100004F096F9DDE9033171B142F20F742846B5
:10672000A34288BF4FF0FF33059A04F0B1F800246C
:10673000204606B0BDE8F0812046C8F8003006B01B
:10674000BDE8F0811A223B4600928021074A0848A2
:1067500010F0E6FB2846064A06494FF0FF3304F0E6
:106760002FF8204606B0BDE8F08100BF14A5030055
:106770008866002064A303002DE9F0479EB081469F
:106780000C4617463D491E460830192305AA03F05A
:106790000BFC831C53D0002880463DDB25D0002312
:1067A00005AD33609A4655F8041B002203A804F097
:1067B00047F90399E9B9326855F8040C002A08DD55
:1067C0003C1F54F8043F834201F1010105D091427E
:1067D000F7D1531C336047F822000AF1010AD04573
:1067E000E1DC01201EB0BDE8F0877CB330602046BC
:1067F000F8E71EAB03EB8A0A42F20F745AF8643CC6
:10680000049A4846A34288BF4FF0FF3304F040F893
:1068100000201EB0BDE8F0871B230093184A1948DA
:106820001A23802110F07CFB4846164A16494FF087
:10683000FF3303F0C5FF00201EB0BDE8F087134A08
:1068400010481923802110F06BFBEDE7104E0D4D21
:106850000FCE0FC50FCE0FC596E80F0007C525F860
:10686000023B2A461B0C02F82E39484606494FF0D7
:10687000FF3303F0A5FF2046B4E700BFE0A3030009
:1068800070A503008866002064A3030040A50300F0
:10689000ACA5030008B5012103F0AAFD114803F0DF
:1068A00037FF114803F0C0FE104803F031FF1048D5
:1068B00003F0BAFE0F4803F02BFF0F4803F0B4FEBD
:1068C0000E4803F025FF04F055FB03F067FD0C486C
:1068D00003F01EFF0B4803F0A7FEBDE8084003F0DD
:1068E000B5BD00BFDCA50300A8A20300E4A503001A
:1068F000BCA20300E8A50300F0A5030000A6030066
:10690000C0A20300C8A2030070B5012103F070FD0E
:10691000154803F0FDFE7B2003F0CEFD0024012688
:1069200007E0284603F068FE284604F097FA0026A0
:10693000013404F015F80346A34220460CDD04F0B0
:1069400011F8054604F014F80028F1D1002EE8D122
:106950002C2003F0B1FDE4E77D2003F0ADFDBDE8A0
:10696000704003F073BD00BFE0A3030008B5012130
:1069700003F03EFD2C2003F09FFDFFF7A7FCBDE8D0
:10698000084003F063BD00BF2DE9F04F0024B5B00F
:1069900021461BAA05AB05940190FFF7EDFEE0B17F
:1069A000059BA34240F3E6800DF16C088246454604
:1069B00003E0059B0134A34212DD55F8040B03F0FC
:1069C000F7FF0028F5D034AB03EB8404019854F8AA
:1069D000643C694A694903F05BFF35B0BDE8F08F5C
:1069E000002B40F3C78005460DF134090DF1500B23
:1069F00002900CE006AB0BF805204FF000025A5550
:106A00000027059B09F8017B0135AB4224DD58F8CE
:106A1000044B204604F0DCF802200BF00BFE20466D
:106A20000EF01EFF012806464FF00102E2D120467B
:106A30000BF8056003F0E8FF0746002857D106ABC6
:106A40000BF805005E55059BCDF808A001355746AB
:106A5000AB4209F8017BDADC029C0198012103F0CA
:106A6000C7FC474803F054FE7B2003F025FD059B3F
:106A7000002B13DD1BAF0DAE002501E003F01CFD64
:106A800057F8040B03F0B8FD16F8010B03F0A2FC55
:106A9000059B0135AB424FF02C00EFDC7D2003F06D
:106AA0000BFD384803F034FE7B2003F005FD059B09
:106AB000002B13DD1BAF06AE002501E003F0FCFC4C
:106AC00057F8040B03F098FD16F8010B03F05EFC79
:106AD000059B0135AB424FF02C00EFDC7D2003F02D
:106AE000EBFCD4B903F0B2FC35B0BDE8F08F032164
:106AF00020460EF013FE02200BF09CFD20460EF007
:106B0000AFFE012802464FF0000120462AD00EF0C9
:106B100005FE06AB00275E5573E71B4803F0F8FD42
:106B20005B2003F0C9FC059A002A17DD00250DF152
:106B3000500B09E01BAB002453F8250003F026FCA2
:106B4000059A0135AA4209DD1BF80530002BF8D162
:106B5000002CEFD12C2003F0AFFCEBE75D2003F01D
:106B6000ABFCBFE7002103920EF0D8FD06AB039A01
:106B70005A5546E7002470E70CA6030060A6030000
:106B80006CA6030078A6030080A603002DE9F04F51
:106B9000A3B0B44904AB01220746FFF7A9FD10B921
:106BA00023B0BDE8F08FB04905AB01223846FFF7AE
:106BB0009FFD0028F4D0DDE90432934200F03681D5
:106BC00007F10804A949204601F0F8FF002840F029
:106BD000A280A74A0392DDE90454284603F0F8FF97
:106BE000204603F0F5FF039A2146284601F00AF9F2
:106BF000002800F0C580284604F04EF8204604F036
:106C00004BF80824002607E003F8705C01360134D5
:106C1000A4B2782C00F0C680E5B2284601F03AF91B
:106C200022AB33440028EFD00228F0D00498059C12
:106C3000039001F019F9039803F0CAFF204603F00E
:106C4000C7FF0021384603F0D3FB8A4803F060FDFC
:106C5000894803F0E9FC894803F05AFD884803F0AD
:106C6000E3FC884803F054FD284603F09FFB864868
:106C700003F04EFD5B2003F01FFC002E00F0E480CB
:106C800006AC351901E003F017FC14F8010B03F012
:106C90008DFBAC424FF02C00F5D15D2003F00CFCD5
:106CA0007A487B4CDFF814A2DFF8149203F030FD31
:106CB0005B2003F001FC00250DF118082F4650461B
:106CC000277003F05DFB237818F801BB0135002B1A
:106CD00052D04846277003F053FB584603F066FB3A
:106CE0006C4803F04DFB6C4803F012FD012003F0EB
:106CF00071FB7D2003F0E0FB237863B367482770C6
:106D000003F03EFBB5422FDA2378002BD7D12C209D
:106D100003F0D2FBD3E75549204606AA02F090F9CA
:106D200030B1069A5E4BA2F57A7199427FF652AF66
:106D30005C4A5D484FF47A73CDE9003280214B4BB9
:106D40005A4A10F0EDF8584A594938464FF0FF3387
:106D500003F036FD24E72C2003F0AEFB4F482770EC
:106D600003F00EFBB542CFDB5D2003F0A5FB03F083
:106D70006DFB23B0BDE8F08F2C2003F09DFBA8E74E
:106D800001F072F8284603F023FF204603F020FFAD
:106D9000484A494938464FF0FF3303F079FD23B0A4
:106DA000BDE8F08F0498059C039001F05DF803980E
:106DB00003F00EFF204603F00BFF3846012103F0DD
:106DC00017FB314803F0A4FC5B2003F075FB002E99
:106DD0007FF456AF5D2003F06FFB2C482C4C03F082
:106DE00097FC5B2003F068FB3448267003F0C8FA78
:106DF00023780BB332480025257003F0C1FA082030
:106E000003F0D4FA234803F0BBFA234803F080FCD4
:106E1000284603F0DFFA7D2003F04EFB23787BB198
:106E200000231E48237003F0ABFA9DE7254A204952
:106E3000384603F02DFDB3E62C2003F03DFBD9E7E7
:106E40002C2003F039FBEBE75D2003F035FB0F4806
:106E500003F05EFC5B2003F02FFB0D4B01221A7048
:106E600082E700BF8CA6030090A60300BCA6030027
:106E7000A086010080A703007CA7030088A7030069
:106E80008CA70300F0A7030074A70300F8A7030072
:106E90000060002054A7030060A7030064A703005C
:106EA000583E0F0040420F0088660020C0A6030035
:106EB00064A30300F0A6030020A7030030A703008B
:106EC00040A7030094A603002DE9F04F00F1080548
:106ED0008FB00446BB49284605AA02F0B1F8002845
:106EE00043D0059906A8012203F0AAFD069969B1CD
:106EF000059B079A42F20F752046AB4288BF4FF0C0
:106F0000FF3303F0C5FC0FB0BDE8F08FAE49059E1E
:106F100003AB01222046FFF7EBFB0028F3D0039BD5
:106F2000B34256D0A949284601F048FE00282ED188
:106F3000A74FA84904AA284602F0F8FC00283ED032
:106F4000049B083B6F2B3AD8A34905AA284602F0B8
:106F5000EDFC10B1059BFF2B41D9A04AA04920466A
:106F60004FF0FF3303F094FCCDE71A2300939D4AC2
:106F7000944B9D4880210FF0D3FF9B4A98492046AF
:106F80004FF0FF3303F01CFC0FB0BDE8F08F8F49CA
:106F900006AA284602F054F828B1069F934BA7F59D
:106FA0007A729A42C5D9924A4FF47A73CDE9003287
:106FB000864B904A8C4880210FF0B2FFDDE78E4A65
:106FC000874920464FF0FF3303F062FC0FB0BDE865
:106FD000F08F8A4A8249204603F05AFC93E7884999
:106FE000284601F0EBFD002800F0A38084492846E4
:106FF00006AA02F025F8002800F09D80069D6B1E71
:107000001F2B00F29880DDF80C80304603F0E0FD85
:10701000404603F0DDFD3A464146304600F0F2FEC0
:10702000002800F08E80304603F036FE404603F024
:1070300033FE9DF814109DF810002B4606AA00F0B0
:107040006BFFA842074600F0A5809DF8100000F0F5
:1070500021FFDDF80C80054600F006FF304603F006
:10706000B7FD404603F0B4FD2046002103F0C0F90F
:10707000022D00F086816348002D72D103F048FB99
:10708000002F00F09D81604803F0CEFA5F4803F0C6
:107090003FFB5F4803F0C8FA5E4803F039FB06ACDB
:1070A0005B20274403F008FA01E003F005FA14F826
:1070B000010B03F07BF9A7424FF02C00F5D15D20C6
:1070C00003F0FAF9544803F023FB5B2003F0F4F9D2
:1070D000524F534800233B7003F052F93B789DF820
:1070E0001040B5FA85F56D09002B00F0738100237F
:1070F0004C483B7003F044F9204603F057F94A48E6
:1071000003F03EF9494803F003FB284603F062F917
:107110007D2003F0D1F93B78002B37D00023444881
:107120003B7003F02DF95D2003F0C6F903F08EF9F2
:10713000E9E6012567E701232022CDE90032304B43
:1071400037E700F091FE304603F042FD404603F081
:107150003FFD384A384920464FF0FF3303F098FB93
:10716000D1E603F0D5FA354803F05EFA274803F07C
:10717000CFFA334803F058FA274803F0C9FA5B20E6
:1071800003F09AF9254B01221A70CCE72C2003F06A
:1071900093F9C3E7039F00F067FE304603F018FD44
:1071A000384603F015FD2046012103F021F9194866
:1071B00006AC03F0ADFA5B206719264603F07CF9B4
:1071C00042E000BF8CA6030090A60300BCA603000B
:1071D000A0860100F0A7030000A8030058A8030040
:1071E00064A3030014A5030088660020583E0F0026
:1071F00040420F00C0A6030004A8030094A60300A9
:1072000054A8030080A70300E8A9030088A703008F
:1072100064A90300A4A80300F8A7030000600020ED
:1072200030A7030040A7030054A7030060A7030092
:1072300064A70300F0A6030020A703007CA70300B7
:107240008CA7030003F038F916F8010B03F0AEF831
:10725000B7424FF02C00F5D15D2003F02DF96748BF
:10726000674F03F055FA5B2003F026F900236548C9
:107270003B7003F085F83B789DF81060002B00F020
:10728000AD80002360483B7003F07AF8304603F08D
:107290008DF85E4803F074F85D4803F039FA012078
:1072A00003F098F87D2003F007F93B789DF814600F
:1072B000002B00F09F80002356483B7003F060F8DD
:1072C000304603F073F8544803F05AF8504803F07E
:1072D0001FFA012003F07EF87D2003F0EDF83B78E3
:1072E000002B00F0838000234C483B7003F048F8EB
:1072F0003B789DF81080002B74D0434800263E70E8
:1073000003F03EF8404603F051F84548DFF80481A9
:1073100003F036F83E4803F0FBF9012003F05AF879
:107320007D2003F0C9F814E0397003F029F85046C5
:1073300003F03CF83B4803F023F8354803F0E8F944
:10734000484603F047F87D2003F0B6F8AE423FF41C
:10735000E2AE013697F800B014F801ABAE424FF040
:10736000000140462CBF4FF000094FF00109BBF16E
:10737000000FD9D12C2003F09FF8404687F800B0C9
:10738000D3E7049B284A294880210FF0C9FD2848EB
:1073900003F0BEF9274803F047F9274803F0B8F98E
:1073A000224803F0B3F9254803F0B2F9244803F06A
:1073B0003BF9124803F0ACF95B2003F07DF887E657
:1073C000204803F031F91C4803F0A2F91E4803F0ED
:1073D0002BF977E62C2003F06FF888E62C2003F0D9
:1073E0006BF84EE72C2003F067F886E72C2003F0BB
:1073F00063F878E72C2003F05FF85CE7F8A7030058
:107400000060002030A7030040A7030054A703003A
:1074100060A70300ACA80300C0A80300CCA8030029
:10742000DCA80300E8A80300F4A803008866002095
:1074300080A7030048A9030088A7030050A9030000
:10744000F0A7030058A9030064A9030010B584B095
:107450002A4902AB00220446FFF74AF908B904B0F2
:1074600010BD029803F094FA002839D0029803F076
:10747000A3FB032830D10DF1060203A9029803F003
:10748000C1FC029803F096FC0121204602F0B0FFF7
:107490001B4803F03DF9039802F080FF194803F000
:1074A00037F9BDF8060002F079FF174803F030F90C
:1074B000164803F0B9F8164803F02AF94FF4616052
:1074C00002F06CFF134803F023F90C2002F066FF72
:1074D00002F0BCFF04B010BD029803F079FBCAE7CC
:1074E000029B0D4A0D4880210FF01AFD029B0B4AAA
:1074F0000B49204603F064F904B010BD84AF0300CB
:1075000048AA03004CAA030050AA030054AA03008F
:107510005CAA030068AA0300F4A90300886600209F
:1075200040AA03002DE9F04300F1080587B00446A6
:107530006049284603AA01F083FD002863D004A80F
:107540000399012203F07CFA049870B1039B059A19
:1075500042F20F750146AB4288BF4FF0FF33204621
:1075600003F096F907B0BDE8F0838DF80B0052499F
:10757000039E284601F022FB002856D19DF80B30CF
:10758000002B62D14D4904AA284601F01DFC80B3AE
:10759000DDE9048900220023404649460EF08CFCB8
:1075A00038BB474B4046494600220EF0A3FC00BBC7
:1075B0004449284601F002FB00284FD141F28837A8
:1075C00000239DED040B03AA39463046039303F0D4
:1075D000BFFB054600285CD001463B480FF0D4FCB9
:1075E0003346294600284FD1384A204603F050F947
:1075F000B8E7374A374920464FF0FF3303F048F9E0
:1076000007B0BDE8F0831A230093334A294B33486F
:1076100080210FF085FC314A2E4920464FF0FF3380
:1076200003F0CEF807B0BDE8F08323490DF10B025B
:10763000284601F06FFE0028A0D1294A254920469E
:107640004FF0FF3303F024F98CE7304603F0C0FA23
:10765000204602F003FF07B0BDE8F0831949284631
:1076600003AA01F0EDFC20B1039F1E4B7A1E9A4243
:10767000A6D91D4A19480123CDE900328021114BBA
:107680001A4A0FF04DFCC6E7194A204603F000F9EC
:1076900068E72046012102F0ABFE039BBB4205D008
:1076A000084803F035F8039802F078FE02F0CEFEA9
:1076B00058E700BF84AF030070AA030098AA030034
:1076C00000005940BCA60300CCAA0300D4AA0300C2
:1076D000A0AA030064A3030014A503008866002089
:1076E00078AA03003F420F0040420F00C0A60300EB
:1076F00030AB030070B500F1080586B00446274999
:10770000284603AA01F09CFC30B3039904A8012287
:1077100003F096F9049961B1039B059A42F20F7543
:107720002046AB4288BF4FF0FF3303F0B1F806B0FC
:1077300070BD1B49039E03AA284601F0EBFDE0B192
:107740009DF80C100491C9B2304603F0B1FA2046FE
:1077500002F084FE06B070BD1A230093114A0F4B4D
:10776000114880210FF0DCFB0F4A104920464FF0F2
:10777000FF3303F025F806B070BD094904AA284676
:1077800001F05EFC10B104990129DCD9084A0749CF
:1077900020464FF0FF3303F07BF8C8E784AF0300C7
:1077A00064AB030014A503008866002064A30300F3
:1077B0006CAB030030B587B004463149083003AAEA
:1077C00001F03EFC002839D00399002204A803F000
:1077D00037F9049961B1039B059A42F20F7520466F
:1077E000AB4288BF4FF0FF3303F052F807B030BD13
:1077F000039D284603F0DCF8002838D1284603F022
:10780000DBF902282BD0042829D0284603F00AFBF4
:107810000121034620461C4602F0EAFD184802F00A
:1078200077FF284602F0B2FD164802F071FF2046AD
:1078300002F0ACFD02F00AFE07B030BD1A2300933F
:10784000114A0F4B114880210FF06AFB0F4A104973
:1078500020464FF0FF3302F0B3FF07B030BD0D4AB2
:107860000D492B46204603F013F807B030BD0B4AF4
:107870000B492B46204603F00BF807B030BD00BF84
:1078800084AF030064AB030014A5030088660020E6
:1078900064A3030094AB0300F4AB03000CA6030045
:1078A00060A6030030B59FB0002505AA03AB0121F7
:1078B00004460395FEF760FF08B91FB030BD04F120
:1078C00008053449284601F079F9002832D1039A95
:1078D000002A3BD04CF25035192A2F4BA8BF192251
:1078E0001A7012F0FF0209D005AB2C4903EB82029B
:1078F00053F8040B01F8010B9A42F9D1284A294B9D
:107900001560DB68D90103D5274B1A68D2073AD432
:107910000CF024F8254BA0FB0301830A43EA8153B2
:10792000234A2046136002F099FD224B01221A706F
:107930001FB030BD1749284604AA01F081FB78B179
:10794000049B322B0CD8039A02B1FBB91949124A95
:10795000002320460B70137002F080FD1FB030BD75
:1079600000233222CDE9003280210A4B124A13480B
:107970000FF0D6FA114A124920464FF0FF3302F0B9
:107980001FFF1FB030BD5B689B09C9E7074DB5FB02
:10799000F3F5A1E7BCA603007D6600206466002025
:1079A00084660020F0ED00E0001000E040420F008F
:1079B0008066002008670020C0A6030088660020BB
:1079C00064A303000349044A00230B70137002F000
:1079D00045BD00BF086700207D66002038B51C4A01
:1079E0001C4B0121002414701C7002F001FD1A4888
:1079F00002F08EFE5B2002F05FFD012506E02046CE
:107A000002F0C4FC00250134302C1AD0204602F0CC
:107A1000D1FF03462046002BF5D002F0C9FF0346F4
:107A20002046002BEFD103F0C7F803462046002B79
:107A3000E9D003F0CDF8002DE1D12C2002F03CFD7F
:107A4000DDE75D2002F038FDBDE8384002F0FEBC05
:107A5000086700207D66002000AC0300274B1B78E0
:107A6000002B4AD0264BDB68D90170B539D40BF016
:107A700075FF244BA0FB0301830A2348026843EAF5
:107A80008153991A002937DB2049214E09680A449D
:107A90009C1A002CC6BF5B18036002601D4802F0F0
:107AA0006FFC0AF0BBFD02F079FC1B4802F068FC99
:107AB00033788BB1194D002401E002F0FDFC2878E9
:107AC00002F09AFD15F8010B03F0C8F93378013480
:107AD000A3424FF02C00F0DCBDE87040104802F0EB
:107AE0004FBC104B1A68D207C1D507485B680268C3
:107AF0009B09991A0029C7DA70BD704708670020F2
:107B0000F0ED00E040420F00806600208466002017
:107B10007D6600200CAC030020AC030064660020EE
:107B20002CAC0300001000E02DE9F0411D4D0021B8
:107B300028680DF0F3FD1C4BDB68D80103D51B4B07
:107B40001A68D1072BD40BF009FF194BA0FB0301D6
:107B5000840A44EA8154144EDFF85480134F286895
:107B60000DF07EFE012815D0F368DA0102D53B68DE
:107B7000DB0711D40BF0F2FEA0FB0801830A43EAF5
:107B800081534CF250321B1B9342E8D9094B05221A
:107B90001A700020BDE8F0817B689B09F1E75C6802
:107BA000A409D8E704600020F0ED00E0001000E038
:107BB00040420F000967002070B5194D194E286822
:107BC00001210DF0ABFD286800210DF02BFE30885F
:107BD00020B1154B800143F001039847FFF7A4FF44
:107BE0000446D0B1308820B10F4B800143F001032F
:107BF0009847286800210DF091FD308820B10A4B8C
:107C0000800143F00103984728680DF029FE012800
:107C100003D0064B04221A700024204670BD00BF1A
:107C2000086000200C60002030AC030009670020D1
:107C3000F8B5174E174D0746002130680DF06EFD60
:107C4000288820B1144A800142F001039847FFF7C9
:107C50006BFF044608B92046F8BD30680DF000FE01
:107C6000A0F10100B0FA80F02B884009387023B1F0
:107C7000094A980142F001039847084D01212868FC
:107C80000DF04CFD286800210DF0CCFD2046F8BD1C
:107C9000086000200C60002030AC0300046000206D
:107CA000F8B51D4E044610B3306800210DF036FDC6
:107CB0001A4F388820B11A4B800143F001039847CE
:107CC000FFF732FF054680B1D4B9388820B1144B94
:107CD000800143F001039847124C012120680DF008
:107CE0001DFD206800210DF09DFD2846F8BD30687F
:107CF00001210DF013FD306821460DF093FDD7E70B
:107D000030680DF0ADFD0128DFD0074B04220025BF
:107D10001A702846F8BD00BF086000200C600020E3
:107D200030AC030004600020096700202DE9F04119
:107D30002F4D288820B12F4B800143F00103984735
:107D40002D4C20680DF08CFD01282CD0294FDFF838
:107D5000B08047F00107092620680DF081FD012160
:107D6000884215D0D8F800000DF0D8FCD8F80000F3
:107D700000210DF057FD2B88980103B1B847FFF79C
:107D8000D3FE70B12B88980103B1B847013EE3D10F
:107D900020680DF065FD012805D0184B04221A70EB
:107DA0000020BDE8F081206801210DF0B7FC2068BB
:107DB00000210DF037FD288820B10E4B800143F0E3
:107DC000010398470E4C012120680DF0A7FC2068A4
:107DD00000210DF027FD288838B1064B800143F0C3
:107DE000010398470120BDE8F0810120BDE8F08142
:107DF0000C60002030AC0300086000200967002000
:107E00000460002070B5144E144D30600C4629609B
:107E100022B1134B9A4216D9012201E04FF4FA72B3
:107E2000104B00211A800DF0FDFC204600210DF0C2
:107E3000F9FC306800210DF071FC286800210DF07C
:107E40006DFC012070BDB3FBF2F2B2F5FA7F28BFE2
:107E50004FF4FA7292B2E3E7086000200460002059
:107E600020A107000C60002038B5084C084D2068A0
:107E7000002806DB00210DF051FC286800210DF0E0
:107E80004DFC4FF0FF332B60236038BD08600020AD
:107E900004600020F0B51D4F1D4E83B00021044644
:107EA000386831700DF03AFCFFF73EFEF8B1FFF78D
:107EB0003DFFE0B16400E4B2072544FA05F000F0AC
:107EC0000100013DFFF7ECFE88B16B1CF5D10DF10F
:107ED0000700FFF7ADFE50B19DF80740FFF76CFEBD
:107EE00028B1002C0CBF0020022003B0F0BD386880
:107EF00000210DF013FC074B002118680DF00EFC5B
:107F00003078002808BF042003B0F0BD08600020CE
:107F100009670020046000202DE9F04FA74FDFF82B
:107F2000A8B2002585B00646884638688BF8005010
:107F3000294614469A460DF0F1FBFFF7F5FD18B3FC
:107F4000FFF7F4FE00B376005FFA86F9072549FAD9
:107F500005F000F00100013DFFF7A2FEA0B16A1C90
:107F6000F5D10DF10F00FFF763FE68B19DF80F30FA
:107F7000C3B1FFF721FE0646002800F01481002659
:107F8000304605B0BDE8F08F386800210DF0C6FB23
:107F90008B4B002118680DF0C1FB0026304605B060
:107FA000BDE8F08F072548FA05F000F00100013D1B
:107FB000FFF776FE0028E7D06B1CF4D10DF10F001F
:107FC000FFF736FE0028DFD09DF80F100029D0D132
:107FD000DFF8F89138680DF0A1FBB9F8000020B186
:107FE000784B800143F001039847FFF79DFD38B1BE
:107FF00038680DF035FC01280DD004238BF80030D3
:108000006F4D386800210DF089FB286800210DF0C4
:1080100085FB0026C2E7B9F8000020B1694B80015A
:1080200043F001039847386801210DF077FB386869
:1080300000210DF0F7FBB9F8000020B1614B800181
:1080400043F0010398475E4D012128680DF066FB5F
:10805000286800210DF0E6FBB9F8000020B1594B6B
:10806000800143F00103984746F00106F6B24FF055
:10807000070846FA08F000F0010008F1FF38FFF7A2
:108080000FFE0028BDD0B8F1FF3FF2D10DF10F0077
:10809000FFF7CEFD0028B4D09DF80F60002E7FF4CE
:1080A00068AF484B564543F0010300934AD0002384
:1080B000237006F1010B4FF00808386800210DF01D
:1080C0002DFBB9F8000010B1009B80019847FFF725
:1080D0002BFD58B9386800210DF020FB28680021DD
:1080E0000DF01CFB304605B0BDE8F08F38680DF090
:1080F000B7FB0128014634D0B9F80020002A44D04B
:10810000002390010193009B9847286801210DF0FE
:1081100005FB002128680DF085FB2178019B43EACF
:10812000410149B2B8F101082170C6D1D34534BF2D
:1081300000200120FFF7B4FD01340028CAD05E46BC
:108140005645B4D1FFF738FD044600287FF426AF2A
:10815000386821460DF0E2FA286821460DF0DEFA73
:108160001CE7B9F800200346002ACAD1286801920A
:108170000DF0D4FA019A286811460DF053FB2178CE
:10818000490041F0010149B2CCE728680192012180
:108190000DF0C4FA019A286811460DF043FB2178CE
:1081A000490049B2BEE7386831460DF0B7FA044BD2
:1081B000314618680DF0B2FAF0E600BF0860002002
:1081C0000460002030AC0300096700200C60002030
:1081D00030B4D0E90034A34223D21A782D2A25D016
:1081E000302A2AD0313A082A08D98368DBB9364ABE
:1081F0008260184613E09C421A460ED91A46013393
:10820000117830390929F6D9A24206D213782E2BDB
:1082100039D003F0DF03452B13D00260012030BCBE
:108220007047836853B3002030BC7047591C8C42A0
:10823000F7D95A78302A0B46D4D15A1CA242E5D33A
:10824000EBE7531C9C4212D951782B2937D02D29AA
:1082500035D0303909290AD801339C421A4603F136
:108260000103DAD9117830390929F6D9D5E78368BD
:10827000002BD8D1154A82601846D0E7144A826094
:1082800030BC18467047511C8C4211D95378303B92
:10829000092B03D90CE08C420A46BED00A4611F8DD
:1082A000013BA3F13005092DF5D99442B1D8B4E7CB
:1082B0008368002BB7D1074A82601846AFE7931C4A
:1082C0009C42D4D99178C4E750AC03009CAC030025
:1082D00038AC030074AC0300F0B4D0E9007501378A
:1082E000AF42076030D2DFF83CC13B4604E004688F
:1082F000631CAB42036027D21C78222C76D01F2C43
:108300007ED95C2CF3D15C1CAC4204601CD25E783C
:10831000752E21D006F0BF03222BE9D0A6F15C0315
:10832000DBB2182B08D92F2EE2D08368002B6DD03A
:1083300000231846F0BC70472CFA03F3DB07F4D592
:10834000631CAB420360D7D38368002BF0D1314A62
:108350008260F0BC184670479C1CAC42046024D27A
:108360009C78A4F13006092E25D8DC1CAC420460B0
:108370001BD2DC78A4F13006092E25D81C1DA5429D
:10838000046012D91C79A4F13006092E25D85C1D91
:10839000A542046009D95B79A3F13006092EA7D95B
:1083A00023F02003413B052BA2D98368002BBFD1CA
:1083B000194A8260BDE724F02004413C052CD4D941
:1083C0008368002BB4D1F3E724F02004413C052C52
:1083D000D4D98368002BABD1EAE724F02004413CD8
:1083E000052CD4D98368002BA2D1E1E70F60016886
:1083F0000123CF1B013117600160F0BC18467047A4
:108400008368002B94D1054A826092E7044A826017
:108410008FE700BF38AD0300E8AC0300BCAC03003D
:108420000CAD0300010444012DE9F04F0546D0E9ED
:10843000000C844589B024D99846DFF8F4E2174649
:10844000034604E0C2071AD59C452B6019D01E468E
:1084500013F8014BA4F10902D2B2172A2EFA02F046
:10846000F0D9B4450DD9222C75D07B2C22D104290A
:1084700040F0AD80A86838B9AC4BAB6005E0B445BE
:1084800006D8A868002870D0002009B0BDE8F08F99
:10849000A4F13003092B6DD82846FFF799FE002878
:1084A000F2D002233B70C8F800602B689E1B129B21
:1084B0001E60EAE75B2C40F0CF800429DAD05D2310
:1084C00001F1010A0293721C94452A6017D9984859
:1084D00005E01EF0010F0BD094452A600FD0114625
:1084E00001320B78093BDBB2172B20FA03FEF0D9DF
:1084F0008C4504D90B78029A934200F0F280DFF8A1
:1085000030927B2C68D006AB07AA009251460DF141
:1085100017022846FFF788FF0028B5D0D5E9003CB0
:10852000634506D34CE01EF0010F40D09C452B6004
:1085300046D0184613F8011BA1F10902D2B2172A3E
:1085400029FA02FEEFD960453AD22C2940F0A980E1
:1085500001302860D5E70123129A3B704146284636
:10856000FFF7BAFE09B0BDE8F08F724BAB6009B0FF
:10857000BDE8F08F662C08D06E2C00F0A480A868AF
:10858000002881D16C4BAB607FE7ACEB060CBCF1F3
:10859000040F73D96949052230460DF011FF0028F8
:1085A0006CD1731D2B60012003233B707BE760457A
:1085B00006D2A86800287FF467AF614BAB6064E720
:1085C000A86800287FF460AF5E4BAB605DE77D2359
:1085D00001F1010A029376E72B68634506D352E066
:1085E0001EF0010F4FD09C452B604CD0184613F85D
:1085F000011BA1F10902D2B2172A29FA02FEEFD912
:10860000604540D222293ED106AB194607AA28462A
:108610000393FFF761FE00283FF436AFD5E9002E43
:108620009645039B06D835E01BF0010F32D09645E6
:108630002A602FD0944612F8011BA1F10900C0B2A4
:10864000172829FA00FBEFD9E64523D93A2921D189
:108650000CF101022A6057E72D2C3FF41DAFA4F165
:108660003002092A7FF618AF742C83D1ACEB060CCC
:10867000BCF1030F02D91A78722A48D0A8680028E2
:1086800032D0002090E7AB68002B7FF4FDAE2E4B7C
:10869000AB60F9E6AB68002B7FF4F6AE2B4BAB601A
:1086A000F2E6029B8B4284D1013028607B2C0CBF08
:1086B000062305233B70C8F800602B689E1B129BA5
:1086C00001201E60E1E6ACEB060CBCF1030F02D901
:1086D00033786E2B0BD0A86820B3002004233B70A6
:1086E000E1E601312960E1E7194BAB605CE77278A4
:1086F000752A06F10103EED113F8012F6C2AEAD195
:108700005B786C2BE7D1331D2B600120E6E713F873
:10871000012F752AB2D15B78652BAFD1331D2B6049
:10872000012041E70A4BAB60D8E700BF78AD0300FA
:108730001300800064AD030070AE030060AE030060
:1087400008AE0300DCAD03009CAD0300C0AD030028
:1087500034AE0300F0B501448BB0174681424FF0B0
:10876000000208911E46C7F80021099235D9DFF8AA
:1087700004C203E0D30730D581422ED0044610F85E
:10878000013BA3F10905EDB2172D2CFA05F2F1D941
:10879000A14222D97B2B20D1601C8142079023D992
:1087A000DFF8D0E1024606E01CF0010F1AD091423A
:1087B000104600F0AF80154612F8014BA4F10903F2
:1087C000DBB2172B2EFA03FCEED9A94207900AD987
:1087D0007D2C08D16A1C0792A2E0654B3360002013
:1087E0000BB0F0BD07902846624C814270D9844698
:1087F00010F8012BA2F10903DBB2172B24FA03F5C1
:1088000061D9614564D9222A62D107A804AA03A9C3
:10881000FFF762FD002800F09F80DDE9073C63451B
:1088200064D21D4613F8011BA1F10902D2B2172A26
:1088300024FA02F055D9AC4558D93A2956D106AB9D
:108840004FF0000C0135009307A805AB0DF10B02AA
:108850000121CDE905CC07958DF80BC0FFF7E4FDAC
:10886000002879D0D7F800210F2A7BDC07EB021013
:1088700015010132C7F80021039A7A51DDE9073169
:10888000049A8280059A8260069A82818B429DF8C2
:108890000B20827306D337E01CF0010F2CD09942D5
:1088A000079331D0184613F8015BA5F10902D2B243
:1088B000172A24FA02FCEFD9814225D92C2D2BD17D
:1088C0000130079091E7ED079BD5814207908ED14B
:1088D000099B294A002B08BF1346002033600BB0C8
:1088E000F0BDC207A7D59C4507939AD1099B234A9F
:1088F000002B08BF1346F0E7814205D9099B204AA7
:10890000002B08BF1346E8E7099B1E4A002B08BF4F
:108910001346E2E7079167E77D2DEFD1421C0792EE
:108920008A420AD2134D1046024601301378093BA1
:10893000DBB2172B25FA03F403D98A4209D0124B74
:10894000CBE7E307F9D5814207900246ECD18A4292
:10895000F5D101200BB0F0BD099B0C4A002B08BFDC
:108960001346BAE7099B0A4A002B08BF1346B4E72F
:10897000F8AE0300130080009CAD0300C0AD0300FF
:1089800088AE0300ACAE030030AF0300D8A20300F2
:10899000D4AE0300F8B5044608460F460EF0FEFAC2
:1089A000D4F80061002E63DDA3889842054600F0EC
:1089B0008780012E5CD0A38A9D4200F08A80022E1F
:1089C00056D0A38C9D4200F08E80032E50D0A38EF3
:1089D0009D424FD0042E4BD0B4F844309D4254D029
:1089E000052E45D0B4F854309D4257D0062E3FD0C6
:1089F000B4F864309D425AD0072E39D0B4F87430A0
:108A00009D427AD0082E33D0B4F884309D427ED077
:108A1000092E2DD0B4F894309D4200F08D800A2E9E
:108A200026D0B4F8A4309D4200F091800B2E1FD0C8
:108A3000B4F8B4309D4200F095800C2E18D0B4F8F4
:108A4000C4309D4200F099800D2E11D0B4F8D4307E
:108A50009D4200F09D800E2E0AD0B4F8E4309D4275
:108A600000F0A1800F2E03D0B4F8F430AB4259D0FF
:108A70000020F8BD206B2A4639460DF0A1FC0028E5
:108A8000A8D1032004EB0010F8BD206C2A4639461B
:108A90000DF096FC0028A3D10420F3E7206D2A46B0
:108AA00039460DF08DFC0028A0D10520EAE7206EA4
:108AB0002A4639460DF084FC00289DD10620E1E7C6
:108AC0000246394620680DF07BFC00287FF471AF28
:108AD000D8E720692A4639460DF072FC00287FF459
:108AE0006EAF0120CEE7206A2A4639460DF068FCB9
:108AF00000287FF46AAF0220C4E7206F2A46394677
:108B00000DF05EFC00287FF47DAF0720BAE7D4F8B3
:108B100080002A4639460DF053FC00287FF478AFD8
:108B20000820AFE7D4F8F0002A4639460DF048FC9B
:108B300000289DD10F20A5E7D4F890002A46394699
:108B40000DF03EFC00287FF46AAF09209AE7D4F8C4
:108B5000A0002A4639460DF033FC00287FF466AFAA
:108B60000A208FE7D4F8B0002A4639460DF028FCD9
:108B700000287FF462AF0B2084E7D4F8C0002A46B7
:108B800039460DF01DFC00287FF45EAF0C2079E71C
:108B9000D4F8D0002A4639460DF012FC00287FF4A4
:108BA0005AAF0D206EE7D4F8E0002A4639460DF0A2
:108BB00007FC00287FF456AF0E2063E7F8B50446A3
:108BC00008460F460EF0EAF9D4F80061002E63DD86
:108BD000A3889842054600F08280012E5CD0A38ACB
:108BE0009D4200F08580022E56D0A38C9D4200F05D
:108BF0008880032E50D0A38E9D424FD0042E4BD0A0
:108C0000B4F844309D4252D0052E45D0B4F85430CB
:108C10009D4254D0062E3FD0B4F864309D4256D0C9
:108C2000072E39D0B4F874309D4273D0082E33D05B
:108C3000B4F884309D4275D0092E2DD0B4F894300C
:108C40009D4200F084800A2E26D0B4F8A4309D42C4
:108C500000F087800B2E1FD0B4F8B4309D4200F096
:108C60008A800C2E18D0B4F8C4309D4200F08D805C
:108C70000D2E11D0B4F8D4309D4200F090800E2E0D
:108C80000AD0B4F8E4309D4200F093800F2E03D058
:108C9000B4F8F4309D4250D00020F8BD206B2A4635
:108CA00039460DF08DFB0028A8D10120F8BD206CBD
:108CB0002A4639460DF084FB0028A5D1F5E7206D42
:108CC0002A4639460DF07CFB0028A3D1EDE7206E43
:108CD0002A4639460DF074FB0028A1D1E5E702468B
:108CE000394620680DF06CFB00287FF476AFDCE796
:108CF00020692A4639460DF063FB00287FF473AFE4
:108D0000D3E7206A2A4639460DF05AFB00287FF443
:108D100070AFCAE7206F2A4639460DF051FB002894
:108D200084D1C2E7D4F880002A4639460DF048FBCA
:108D30000028BAD0092E81D1AEE7D4F8F0002A4637
:108D400039460DF03DFBB0FA80F04009F8BDD4F88B
:108D500090002A4639460DF033FB00287FF473AFAC
:108D6000A3E7D4F8A0002A4639460DF029FB0028D5
:108D70007FF470AF99E7D4F8B0002A4639460DF079
:108D80001FFB00287FF46DAF8FE7D4F8C0002A46A0
:108D900039460DF015FB00287FF46AAF85E7D4F85B
:108DA000D0002A4639460DF00BFB00287FF467AF50
:108DB0007BE7D4F8E0002A4639460DF001FB002895
:108DC0007FF464AF71E700BF2DE9F04104468CB039
:108DD0000846884616460EF0E1F8D4F80071002FD8
:108DE00065DDA3889842054600F0AB80012F5ED078
:108DF000A38AAB4200F0AE80022F58D0A38C9D42D4
:108E000000F0B280032F52D0A38E9D4253D0042F86
:108E10004DD0B4F844309D4276D0052F47D0B4F8F9
:108E200054309D4279D0062F41D0B4F864309D4231
:108E30007DD0072F3BD0B4F874309D4200F09E8067
:108E4000082F34D0B4F884309D4200F0A180092F5F
:108E50002DD0B4F894309D4200F0B0800A2F26D077
:108E6000B4F8A4309D4200F0B4800B2F1FD0B4F8AA
:108E7000B4309D4200F0B8800C2F18D0B4F8C43044
:108E80009D4200F0BC800D2F11D0B4F8D4309D422B
:108E900000F0C0800E2F0AD0B4F8E4309D4200F0FC
:108EA000C4800F2F03D0B4F8F4309D427BD0002053
:108EB0000CB0BDE8F081206B2A4641460DF080FAE7
:108EC0000028A4D1032004EB0014A37B022BEED1D5
:108ED000A5896B1E262BEAD82A46A16802A80DF0A8
:108EE0007DFA0CAB2B44002402A801A903F8284CFE
:108EF00001940EF083FE019B02AA1544AB42D6D129
:108F000086ED000B0120D3E7206C2A4641460DF088
:108F100057FA002881D10420D5E7206D2A46414622
:108F20000DF04EFA00287FF47EAF0520CBE7206ECF
:108F30002A4641460DF044FA00287FF47AAF062015
:108F4000C1E70246414620680DF03AFA00287FF456
:108F50004DAFB8E720692A4641460DF031FA0028A6
:108F60007FF44AAF0120AEE7206A2A4641460DF061
:108F700027FA00287FF446AF0220A4E7206F2A4694
:108F800041460DF01DFA00287FF45AAF07209AE7FA
:108F9000D4F880002A4641460DF012FA00287FF4EA
:108FA00056AF08208FE7D4F8F0002A4641460DF06E
:108FB00007FA00287FF47BAF0F2084E7D4F89000F5
:108FC0002A4641460DF0FCF900287FF447AF0920FE
:108FD00079E7D4F8A0002A4641460DF0F1F90028BF
:108FE0007FF443AF0A206EE7D4F8B0002A4641462A
:108FF0000DF0E6F900287FF43FAF0B2063E7D4F8CB
:10900000C0002A4641460DF0DBF900287FF43BAF53
:109010000C2058E7D4F8D0002A4641460DF0D0F98C
:1090200000287FF437AF0D204DE7D4F8E0002A4642
:1090300041460DF0C5F900287FF433AF0E2042E71A
:109040002DE9F04304468DB00846884616460DF0DB
:10905000A5FFD4F80071002F69DDA388984205466A
:1090600000F0D280012F62D0A38A9D4200F0D5800B
:10907000022F5CD0A38C9D4200F0D980032F56D0E4
:10908000A38EAB4257D0042F51D0B4F844309D4248
:1090900000F09C80052F4AD0B4F854309D4200F077
:1090A0009F80062F43D0B4F864309D4200F0A28028
:1090B000072F3CD0B4F874309D4200F0C280082FD6
:1090C00035D0B4F884309D4200F0C580092F2ED0F1
:1090D000B4F894309D4200F0D4800A2F27D0B4F821
:1090E000A4309D4200F0D8800B2F20D0B4F8B430CB
:1090F0009D4200F0DC800C2F19D0B4F8C4309D42A2
:1091000000F0E0800D2F12D0B4F8D4309D4200F072
:10911000E4800E2F0BD0B4F8E4309D4200F0E880DC
:109120000F2F04D0B4F8F4309D4200F09F8000204F
:109130000DB0BDE8F083206B2A4641460DF040F9A2
:109140000028A0D1032004EB0014A37B022BEED156
:10915000A5896B1E262BEAD82A46A16802A80DF025
:109160003DF90CAB2B44002402A801A903F8284CBC
:1091700001940EF043FD019B02AA1544AB4259EC49
:10918000108BD4D108F028FB404653EC102B4946F5
:109190000CF088FE0028CAD05D4B002240464946AC
:1091A0000CF08AFE0028C2D157A3D3E90023404621
:1091B00049460CF09FFE0028B9D1404649460CF0C4
:1091C000A3FE306001200DB0BDE8F083206C2A467C
:1091D00041460DF0F5F800287FF45CAF0420B2E7BB
:1091E000206D2A4641460DF0EBF800287FF459AF78
:1091F0000520A8E7206E2A4641460DF0E1F8002838
:109200007FF456AF06209EE70246414620680DF0E7
:10921000D7F800287FF426AF95E720692A46414613
:109220000DF0CEF800287FF423AF01208BE7206AF1
:109230002A4641460DF0C4F800287FF41FAF0220F3
:1092400081E7206F2A4641460DF0BAF800287FF4E6
:1092500036AF072077E7D4F880002A4641460DF064
:10926000AFF800287FF432AF08206CE7D4F8F000A4
:109270002A4641460DF0A4F800287FF458AF0F208D
:1092800061E7D4F890002A4641460DF099F800288D
:109290007FF423AF092056E7D4F8A0002A464146C0
:1092A0000DF08EF800287FF41FAF0A204BE7D4F8AA
:1092B000B0002A4641460DF083F800287FF41BAF2A
:1092C0000B2040E7D4F8C0002A4641460DF078F85C
:1092D00000287FF417AF0C2035E7D4F8D0002A46D9
:1092E00041460DF06DF800287FF413AF0D202AE7FA
:1092F000D4F8E0002A4641460DF062F800287FF4D9
:109300000FAF0E201FE700BF0000C0FFFFFFDF41CF
:109310000000E0C12DE9F0410446084688461746A2
:109320000DF03CFED4F80061002E65DDA388984264
:10933000054600F09780012E5ED0A38A9D4200F082
:109340009A80022E58D0A38C9D4200F09E80032E5E
:1093500052D0A38E9D4252D0042E4DD0B4F844304A
:109360009D4264D0052E47D0B4F854309D4267D05A
:10937000062E41D0B4F864309D426AD0072E3BD00F
:10938000B4F874309D4200F08A80082E34D0B4F8CE
:1093900084309D4200F08D80092E2DD0B4F8943099
:1093A0009D4200F09B800A2E26D0B4F8A4309D4246
:1093B00000F09F800B2E1FD0B4F8B4309D4200F017
:1093C000A3800C2E18D0B4F8C4309D4200F0A780C2
:1093D0000D2E11D0B4F8D4309D4200F0AB800E2E8B
:1093E0000AD0B4F8E4309D4200F0AF800F2E03D0D5
:1093F000B4F8F4309D4267D00020BDE8F081206BC6
:109400002A4641460CF0DCFF0028A5D1032004EBDE
:109410000014A37B032BEFD1A3681B78A3F1740383
:10942000B3FA83F35B093B700120BDE8F081206C47
:109430002A4641460CF0C4FF002893D10420E6E7F9
:10944000206D2A4641460CF0BBFF002890D1052034
:10945000DDE7206E2A4641460CF0B2FF00288DD190
:109460000620D4E70246414620680CF0A9FF0028F8
:109470007FF461AFCBE720692A4641460CF0A0FF9C
:1094800000287FF45EAF0120C1E7206A2A464146EA
:109490000CF096FF00287FF45AAF0220B7E7206F48
:1094A0002A4641460CF08CFF00287FF46EAF07205F
:1094B000ADE7D4F880002A4641460CF081FF002831
:1094C0007FF46AAF0820A2E7D4F8F0002A464146AC
:1094D0000CF076FF00288FD10F2098E7D4F8900089
:1094E0002A4641460CF06CFF00287FF45CAF09204F
:1094F0008DE7D4F8A0002A4641460CF061FF002811
:109500007FF458AF0A2082E7D4F8B0002A464146DB
:109510000CF056FF00287FF454AF0B2077E7D4F807
:10952000C0002A4641460CF04BFF00287FF450AFA4
:109530000C206CE7D4F8D0002A4641460CF040FFDE
:1095400000287FF44CAF0D2061E7D4F8E0002A46F4
:1095500041460CF035FF00287FF448AF0E2056E757
:109560002DE9F84F04460846894616461F460DF079
:1095700015FDD4F80081B8F1000F78DDA38898427A
:10958000054600F0DF80B8F1010F70D0A38A9D423C
:1095900000F0E180B8F1020F69D0A38C9D4200F089
:1095A000E480B8F1030F62D0A38EAB4262D0B8F171
:1095B000040F5CD0B4F84430AB4200F0A580B8F1A1
:1095C000050F54D0B4F854309D4200F0A780B8F194
:1095D000060F4CD0B4F864309D4200F0A980B8F179
:1095E000070F44D0B4F874309D4200F0CA80B8F13F
:1095F000080F3CD0B4F884309D4200F0CC80B8F124
:10960000090F34D0B4F894309D4200F03881B8F19D
:109610000A0F2CD0B4F8A4309D4200F03B81B8F181
:109620000B0F24D0B4F8B4309D4200F03E81B8F165
:109630000C0F1CD0B4F8C4309D4200F04781B8F143
:109640000D0F14D0B4F8D4309D4200F04A81B8F127
:109650000E0F0CD0B4F8E4309D4200F04D81B8F10B
:109660000F0F04D0B4F8F4309D4200F09F8000202A
:10967000BDE8F88F206B2A4649460CF0A1FE002871
:1096800095D1032004EB0014A37B012BEFD1002F15
:10969000EDD0A589002D00F0148107EB060CACF18C
:1096A000020C711E0023C6F1020E0AE061450EEBAA
:1096B0000102DCD001F8010FA58901339D4240F27F
:1096C000FF80A768F85C5C28F0D15A1CAA42EDD252
:1096D000B85CA0F16208B8F1130F50D8DFE818F0B9
:1096E00017014F004F004F001A014F004F004F006D
:1096F0004F004F004F004F00CC004F004F004F0075
:10970000C9004F00C6007100206C2A4649460CF083
:1097100057FE00287FF453AF0420B3E7206D2A469C
:1097200049460CF04DFE00287FF451AF0520A9E713
:10973000206E2A4649460CF043FE00287FF44FAFC6
:1097400006209FE70246494620680CF039FE0028B3
:109750007FF419AF96E720692A4649460CF030FE9F
:1097600000287FF417AF01208CE7206A2A4649467B
:109770000CF026FE00287FF414AF022082E7134687
:1097800094E7206F2A4649460CF01AFE00287FF421
:109790002EAF072076E7D4F880002A4649460CF021
:1097A0000FFE00287FF42BAF08206BE7D4F8F00001
:1097B0002A4649460CF004FE00287FF458AF0F20DB
:1097C00060E703F10209A94580F0AD8017F8098030
:1097D000A8F13000C2B2092A88BF48F0200203F184
:1097E000030A8CBF573A0246AA4580F0968017F8C4
:1097F0000A90A9F130085FFA88FBBBF1090F88BF16
:1098000049F0200803F1040988BFA8F157081001A6
:10981000A94500EB080280F0828017F809A0AAF1A0
:1098200030085FFA88FBBBF1090F88BF4AF02008B7
:1098300003F1050388BFA8F157081001AB4200EB04
:1098400008026AD2FF5CA7F130055FFA85F8B8F12B
:10985000090F88BF47F020054FEA021088BF573D27
:109860004219501E7E285CD8D0B21FE7134609204B
:109870001CE713460D2019E713460A2016E7D4F813
:1098800090002A4649460CF09BFD00287FF4BFAEAD
:109890000920F7E6D4F8A0002A4649460CF090FDCE
:1098A00000287FF4BCAE0A20ECE6D4F8B0002A46CB
:1098B00049460CF085FD00287FF4B9AE0B20E1E6A7
:1098C0001644002333700120BDE8F88FD4F8C0009F
:1098D0002A4649460CF074FD00287FF4B0AE0C20F7
:1098E000D0E6D4F8D0002A4649460CF069FD00289D
:1098F0007FF4ADAE0D20C5E6D4F8E0002A46494617
:109900000CF05EFD00287FF4AAAE0E20BAE61346E6
:109910000820CBE613460C20C8E64B46A1E7534689
:109920009FE73F20C2E613463F20BFE62DE9F04304
:10993000044687B008460F4690460DF02FFBD4F83A
:109940000061002E6ADDB4F804904845054600F039
:109950004981012E62D0A38A9D4200F04C81022EE3
:109960005CD0A38C9D4200F05081032E56D0A38E74
:109970009D4257D0042E51D0B4F844309D4200F09F
:109980001381052E4AD0B4F854309D4200F0168160
:10999000062E43D0B4F864309D4200F01981072EA2
:1099A0003CD0B4F874309D4200F03981082E35D097
:1099B000B4F884309D4200F03C81092E2ED0B4F8DA
:1099C00094309D4200F05C810A2E27D0B4F8A43078
:1099D0009D4200F060810B2E20D0B4F8B4309D423F
:1099E00000F064810C2E19D0B4F8C4309D4200F010
:1099F00082810D2E12D0B4F8D4309D4200F08681C1
:109A00000E2E0BD0B4F8E4309D4200F08A810F2E68
:109A100004D0B4F8F4309D4200F01681002007B065
:109A2000BDE8F083206B2A4639460CF0C9FC0028BB
:109A3000A0D1032004EB0010837B022B00F01881DF
:109A4000012BEBD14D4500F00A81012EE6D0A38A0F
:109A50009D4200F07181022EE0D0A38C9D4200F067
:109A60007581032EDAD0A38E9D4200F07981042EF9
:109A7000D4D0B4F844309D4200F07C81052ECDD086
:109A8000B4F854309D4200F07F81062EC6D0B4F861
:109A900064309D4200F00E82072EBFD0B4F87430BF
:109AA0009D4200F01182082EB8D0B4F884309D4257
:109AB00000F01482092EB1D0B4F894309D4200F029
:109AC00018820A2EAAD0B4F8A4309D4200F01C825D
:109AD0000B2EA3D0B4F8B4309D4200F020820C2E9F
:109AE0009CD0B4F8C4309D4200F024820D2E95D055
:109AF000B4F8D4309D4200F028820E2E8ED0B4F8F7
:109B0000E4309D4200F069810F2E87D0B4F8F43024
:109B10009D4283D1D4F8F0002A4639460CF050FC1F
:109B200000287FF47BAF0F2004EB0014A37B012BF4
:109B30007FF474AFA789002F00F0278202A80021CC
:109B4000D4F808C006460B4609E0013110293FF45D
:109B500065AF0133BB4206F8012B80F0B7801CF8DB
:109B600003205C2AF1D15C1CBC4280F0AA801CF866
:109B70000420A2F16205132D00F21081DFE815F038
:109B800094010E010E010E0197010E010E010E014E
:109B90000E010E010E010E0191010E010E010E01CA
:109BA0008E010E018B013801206C2A4639460CF0DB
:109BB00007FC00287FF4E5AE04203BE7206D2A4631
:109BC00039460CF0FDFB00287FF4E2AE052031E7BA
:109BD000206E2A4639460CF0F3FB00287FF4DFAEF6
:109BE000062027E70246394620680CF0E9FB0028EA
:109BF0007FF4AFAE1EE720692A4639460CF0E0FB41
:109C000000287FF4ACAE012014E7206A2A463946CA
:109C10000CF0D6FB00287FF4A8AE02200AE7206FE4
:109C20002A4639460CF0CCFB00287FF4BFAE072053
:109C300000E7D4F880002A4639460CF0C1FB002822
:109C40007FF4BBAE0820F5E6D4F8F0002A4639468A
:109C50000CF0B6FB00287FF4E1AE0F20EAE62068A6
:109C60002A4639460CF0ACFB00287FF4EEAE5BE7E9
:109C7000424639462046FFF7E3F907B0BDE8F083D6
:109C8000D4F890002A4639460CF09AFB00287FF45D
:109C90009BAE0920CEE6D4F8A0002A4639460CF047
:109CA0008FFB00287FF497AE0A20C3E6D4F8B000FB
:109CB0002A4639460CF084FB00287FF493AE0B2033
:109CC000B8E6013110293FF4A9AE327001440023F7
:109CD0000B709DF80830002B3FF4A0AE302B5FD006
:109CE000024604E012F8013F002B00F03981303BBE
:109CF000092BF7D992E6D4F8C0002A4639460CF071
:109D00005FFB00287FF475AE0C2093E6D4F8D000FA
:109D10002A4639460CF054FB00287FF471AE0D2022
:109D200088E6D4F8E0002A4639460CF049FB0028C2
:109D30007FF46DAE0E207DE620692A4639460CF090
:109D40003FFB00287FF487AE0120EDE6206A2A461B
:109D500039460CF035FB00287FF483AE0220E3E6A1
:109D6000206B2A4639460CF02BFB00287FF47FAE8F
:109D70000320D9E6206C2A4639460CF021FB002846
:109D80007FF47CAE0420CFE6206D2A4639460CF0E5
:109D900017FB00287FF479AE0520C5E62346D4E6FC
:109DA0009DF8092002F0DF02582A99D19DF80A3067
:109DB0000DF10A01002B3FF431AE04E011F8013F30
:109DC000002B00F0DC8023F02002303B092BA2F1B5
:109DD0004102F3D9052AF1D920E6D4F8E0002A4659
:109DE00039460CF0EDFA00287FF48EAE0E209BE68B
:109DF0009D1CBD4280F0D0801CF80540A4F13002CB
:109E00005FFA82FEBEF1090F88BF44F0200203F121
:109E1000030E88BF573ABE4580F0BC801CF80E5038
:109E2000A5F130045FFA84F9B9F1090F88BF45F054
:109E3000200403F1040988BF573C1201B9452244AC
:109E400080F0A6801CF80950A5F130045FFA84FE6A
:109E5000BEF1090F88BF45F0200403F1050388BF58
:109E6000573C1201BB42224480F099801CF80350F9
:109E7000A5F130045FFA84FEBEF1090F88BF45F0FA
:109E800020044FEA021288BF573C2244541E7E2C05
:109E900079D8D2B259E62346092256E623460D2246
:109EA00053E623460A2250E6234608224DE623467F
:109EB0000C224AE6206E2A4639460CF081FA002828
:109EC0007FF4EAAD06202FE6206F2A4639460CF0D3
:109ED00077FA00287FF4E7AD072025E6D4F8800064
:109EE0002A4639460CF06CFA00287FF4E3AD0820CE
:109EF0001AE6D4F890002A4639460CF061FA002898
:109F00007FF4DFAD09200FE6D4F8A0002A463946D9
:109F10000CF056FA00287FF4DBAD0A2004E6D4F8F2
:109F2000B0002A4639460CF04BFA00287FF4D7AD32
:109F30000B20F9E5D4F8C0002A4639460CF040FA67
:109F400000287FF4D3AD0C20EEE5D4F8D0002A46EB
:109F500039460CF035FA00287FF4CFAD0D20E3E54B
:109F60000A22002301A901930DF0CEFE019B1B786C
:109F7000002B7FF453ADC8F8000001204FE50DF130
:109F80000A001022EDE73F22DFE502A801469EE627
:109F900073467BE72B4679E723463F22D5E54B46C0
:109FA00074E700BF000000002DE9F04F04468FB0B9
:109FB00008460F4692469B460CF0F0FFD4F800612D
:109FC000002E69DDA3889842054600F03681012EF7
:109FD00062D0A38AAB4200F05181022E5CD0A38CE8
:109FE000AB4200F05581032E56D0A38E9D4259D02E
:109FF000042E51D0B4F84430AB4200F00081052E5D
:10A000004AD0B4F854309D4200F00381062E43D06C
:10A01000B4F864309D4200F00681072E3CD0B4F8BD
:10A0200074309D4200F03E81082E35D0B4F8843063
:10A030009D4200F04181092E2ED0B4F894309D420B
:10A0400000F050810A2E27D0B4F8A4309D4200F0D1
:10A0500054810B2E20D0B4F8B4309D4200F05881CA
:10A060000C2E19D0B4F8C4309D4200F05C810D2E46
:10A0700012D0B4F8D4309D4200F060810E2E0BD087
:10A08000B4F8E4309D4200F064810F2E04D0B4F89F
:10A09000F4309D4200F01B814FF0FF3528460FB091
:10A0A000BDE8F08F206B2A4639460CF089F900286C
:10A0B0009ED1032004EB0014A37B052BECD1A289D5
:10A0C000A068013A0244013000239042CDE9010228
:10A0D000039380F0C280A84D0346013019780939F6
:10A0E000C9B2172925FA01F440F2B0809A4240F231
:10A0F000B480DFF88892A04C4FF00008AAF1040A5F
:10A10000002505E0FF0740F1AD8093420193C3D0E5
:10A110001978A1F10900C0B217281E4624FA00F7E9
:10A1200003F10103EED99642B6D22D2940F09D806D
:10A1300001A8FEF74DF80028AED0019FBF1B7B1E83
:10A14000262BA9D831463A4604A80CF047F90EABA5
:10A15000DA1904A80023694602F8283C00930DF0A0
:10A160004DFD009B04AA3A44934257EC106B93D1E7
:10A1700007F032FB304653EC102B39460BF092FEC1
:10A18000002889D042464B46304639460BF094FEB3
:10A19000002881D176A3D3E90023304639460BF05D
:10A1A000A9FE00287FF478AF304639460BF0ACFEAC
:10A1B000AB4540F3D980DDE9011291424AF8040F22
:10A1C00005F1010506D369E7F80753D591420191DE
:10A1D0003FF464AF0B4611F8016BA6F10900C0B261
:10A1E000172824FA00F7EFD99A427FF657AF2C2EA2
:10A1F0007FF452AF01339342019389D34CE7206C33
:10A200002A4639460CF0DCF800287FF4F8AE04202A
:10A2100050E7206D2A4639460CF0D2F800287FF42A
:10A22000F5AE052046E7206E2A4639460CF0C8F800
:10A2300000287FF4F2AE06203CE70246394620684B
:10A240000CF0BEF800287FF4C2AE33E7E1077FF5DB
:10A250004DAF904201907FF43FAF002528460FB0EC
:10A26000BDE8F08F9642BFF417AF303909297FF669
:10A270005FAF11E79A427FF611AF0DE720692A46DA
:10A2800039460CF09DF800287FF4A7AE012011E7B5
:10A29000206A2A4639460CF093F800287FF4A3AED2
:10A2A000022007E7206F2A4639460CF089F800287B
:10A2B0007FF4BAAE0720FDE6D4F880002A4639467E
:10A2C0000CF07EF800287FF4B6AE0820F2E6D4F851
:10A2D000F0002A4639460CF073F800287FF4DCAE13
:10A2E0000F20E7E6D4F890002A4639460CF068F8CB
:10A2F00000287FF4A7AE0920DCE6D4F8A0002A46A7
:10A3000039460CF05DF800287FF4A3AE0A20D1E6B0
:10A31000D4F8B0002A4639460CF052F800287FF4F1
:10A320009FAE0B20C6E6D4F8C0002A4639460CF092
:10A3300047F800287FF49BAE0C20BBE6D4F8D00091
:10A340002A4639460CF03CF800287FF497AE0D20E1
:10A35000B0E6D4F8E0002A4639460CF031F800287F
:10A360007FF493AE0E20A5E66FF0010596E600BFE0
:10A370000000C0FFFFFFDF41130080000000E0C1CC
:10A380000146014807F0EABCB47E002001460A22DB
:10A39000014807F059BD00BFB47E002001460A22E3
:10A3A000014807F073BD00BFB47E002000B583B044
:10A3B0000346064A684608210CF0B2FD6946044887
:10A3C00007F0CCFC03B05DF804FB00BF5CAF0300FA
:10A3D000B47E0020034A0449002818BF11460348F0
:10A3E00007F0BCBC2CAE030060AE0300B47E0020BE
:10A3F00070B5034605780F485E680C460E4907F0B5
:10A40000ADFC95B10B4831460A2207F01DFD0B4902
:10A41000084807F0A3FC0A490A4B0648002C08BF6D
:10A420001946BDE8704007F099BC0749014807F09C
:10A4300095FCECE7B47E002068AF030070AF03002A
:10A440002CAE030060AE030068AE03000149024871
:10A4500007F084BCD4A20300B47E002038B5047891
:10A460000F4903460F485D6807F078FC94B10D482A
:10A4700029460A2207F0E8FC0B490A4807F06EFC5F
:10A480000A49084807F06AFCBDE838400849054811
:10A4900007F064BC0749034807F060FCECE700BF25
:10A4A00068AF0300B47E002070AF03002CAE030041
:10A4B000D4A2030068AE03000146014807F06CBD5A
:10A4C000B47E00200000000070B582B055EC104B47
:10A4D00007F082F9224651EC100B2B460BF0E2FC00
:10A4E00048B143A3D3E90023204625F000410BF0F7
:10A4F000E3FC002866D100220023204629460BF009
:10A50000DBFC002856D1204629460BF025FD0646E7
:10A510000BF0F8FB02460B46204629460BF0B4FA36
:10A5200000222F4B0FF030FC41EC100B07F0D8F954
:10A53000B0F57A7F28BF01360446314628BFA0F522
:10A540007A740A22274807F0A1FC8CB3264A2748D0
:10A55000A2FB0413DB08A2FB0312D20803EB830166
:10A5600002EB8202A3EB4203A4EB41023032A0FBD8
:10A570000414D2B230336409DBB230340021302A03
:10A580008DF805308DF804408DF8071018BF8DF850
:10A59000062005D1302B8DF8061008BF8DF8051068
:10A5A0002E21104807F0F8FC0E4801A907F0D6FB51
:10A5B00002B070BD0B482D2107F0EEFC05F1004301
:10A5C0001D46A0E7294620460BF09EFC0A220146C4
:10A5D000044807F039FC02B070BD00BFAFF3008043
:10A5E00000408F40B47E0020CDCCCCCC1F85EB51F9
:10A5F0000000C0FFFFFFDF4138B50A4C05462221AD
:10A60000204607F0C9FC294620460A2207F01CFC18
:10A610002046222107F0C0FC20463A21BDE8384000
:10A6200007F0BABCB47E0020F0B52221054683B005
:10A63000344807F0B1FC35B32C7824B3314E324F97
:10A64000222C41D8082C4AD9A4F10903192B46D849
:10A65000DFE803F0312845451F454545454545455B
:10A66000454545454545454545454545450D5C21DF
:10A67000304607F0A1FB2221304607F09DFB15F87C
:10A68000014F002CDCD122211E4807F085FC03B0CD
:10A69000F0BD5C21304607F08FFB7221304607F099
:10A6A0008BFBECE75C21304607F086FB6E213046E1
:10A6B00007F082FBE3E75C21304607F07DFB742165
:10A6C000304607F079FBDAE75C2C15D1214630469D
:10A6D00007F072FB2146304607F06EFBCFE71F2CD8
:10A6E0000AD8234668463A4608210CF019FC694608
:10A6F000304607F033FBC2E72146304607F04CFCFA
:10A70000BDE700BFB47E002078AF0300FFF78CBF29
:10A7100038B5074D04462C21284607F03DFC20465D
:10A72000FFF782FF28463A21BDE8384007F034BCE5
:10A73000B47E002070B51A4C06460D4620461949D5
:10A7400007F00CFB1849204607F008FB1749204684
:10A7500007F004FB1649204607F000FB2C21204699
:10A7600007F01AFC1348FFF75FFF3A21204607F075
:10A7700013FC3046FFF758FF2C21204607F00CFC55
:10A780000D48FFF751FF3A21204607F005FC284607
:10A79000FFF74AFF20460949BDE8704007F0DEBADE
:10A7A000B47E002068AF030068AE030070AF030002
:10A7B00060AE030080A7030088A70300D4A20300B3
:10A7C0002DE9F041044607782848D4F804800E4665
:10A7D000274915461C4607F0C1FA002F40D02348F0
:10A7E00041460A2207F030FB2249204807F0B6FA1A
:10A7F00021491E4807F0B2FA2C211C4807F0CCFB77
:10A800001E48FFF711FF3A21184807F0C5FB3046F4
:10A81000FFF70AFF2C21154807F0BEFB1848FFF789
:10A8200003FF3A21114807F0B7FB2846FFF7FCFE6B
:10A83000002C0FDB2C210D4807F0AEFB1148FFF771
:10A84000F3FE3A21094807F0A7FB084821460A22EF
:10A8500007F0FAFABDE8F0410B49044807F07EBA68
:10A860000A49024807F07AFABEE700BFB47E00202A
:10A8700068AF030070AF030060AE030080A7030061
:10A8800088A7030084AF0300D4A2030068AE0300CE
:10A890002DE9F041044607782848D4F804800E4694
:10A8A000274915461C4607F059FA002F40D0234887
:10A8B00041460A2207F0C8FA2249204807F04EFA1A
:10A8C00021491E4807F04AFA2C211C4807F064FB76
:10A8D0001E48FFF7A9FE3A21184807F05DFB3046F5
:10A8E000FFF7A2FE2C21154807F056FB1848FFF78A
:10A8F0009BFE3A21114807F04FFB2846FFF794FED4
:10A90000002C0FDB2C210D4807F046FB1148FFF708
:10A910008BFE3A21094807F03FFB084821460A22EE
:10A9200007F092FABDE8F0410B49044807F016BA67
:10A930000A49024807F012FABEE700BFB47E0020C1
:10A9400068AF030070AF030060AE030080A7030090
:10A9500088A7030084AF0300D4A2030068AE0300FD
:10A9600030207047014B185C704700BFF0B1030006
:10A970002F2809D8054AC31000F00700D35C43FA1A
:10A9800000F000F0010070470020704728B203007B
:10A990002F2809D8054AC31000F00700D35C43FAFA
:10A9A00000F000F00100704700207047D0B10300B4
:10A9B000002070472F281DD8C1100F4B5B5C00F0A2
:10A9C000070243FA02F010F0010014D00B4B585C60
:10A9D000104110F001000DD1094B5B5C1341DB0706
:10A9E00009D4084B5B5C43FA02F000F0010080F0F0
:10A9F0000100704700207047E8B10300E0B1030098
:10AA0000D8B1030028B203002F2812D8C1100A4B76
:10AA10005B5C00F0070243FA02F010F0010009D07D
:10AA2000064B5B5C43FA02F000F0010080F001008D
:10AA300070470020704700BFE8B1030020B2030058
:10AA40002F29034606D9274A92E8030083E803002A
:10AA50001846704710B42448CC1001F00701005D7F
:10AA60000841C00708D41F4A92E8030083E80300A6
:10AA700018465DF8044B70471C48005D0841C0074C
:10AA80000AD41B48005D0841C0070ED5194A92E858
:10AA9000030083E80300EBE7174A5DF8044B92E8F4
:10AAA000030083E80300184670471448005D08411E
:10AAB000C0070CD48AB1124A125D42FA01F1CA07EA
:10AAC0000BD5104A92E8030083E80300D0E70E4A52
:10AAD00092E8030083E80300CAE70022C3E90022EA
:10AAE000C6E700BF8CB10300E8B10300E0B103008A
:10AAF000D8B103009CB1030094B1030028B2030055
:10AB0000C8B10300ACB10300A4B103002DE9F843C0
:10AB10000C2000250AF0CEFD214C224FDFF8949046
:10AB20004FF0000829462A462B46AE46FF2013E088
:10AB30000135302D1C491D484FEAE50305F0070299
:10AB40002CD0C95CC05C114111F0010114BF4FF061
:10AB5000050E4FF0000E0C3410410026C00784F89B
:10AB600000E0C4F804806670A670A660E0D5F85CCA
:10AB70001041C007DCD40029DAD119F803C00C4811
:10AB80004CFA02FC1CF0010FD2D1C35C43FA02F272
:10AB9000D607CDD428460AF0C1FDC9E7BDE8F88341
:10ABA0000C670020E0B10300D8B10300E8B1030056
:10ABB00030B2030028B203002F289DBF00EB4000F5
:10ABC000024B13F820000020704700BF0C670020E4
:10ABD0002F282DE9F0473AD8294BC21004469D5C36
:10ABE00000F007031D4115F001052DD025498D5CAE
:10ABF0001D4115F001052AD12349895C1941C90776
:10AC000022D422498A5C42FA03F3DB071CD4DFF822
:10AC1000848000EB4003460018F823301D1E18BF47
:10AC20000125022B17D0012B25D0002120463444CA
:10AC30000AF074FD08EB8403A4000022002159608F
:10AC40009A6028F804209A702846BDE8F08700250D
:10AC50002846BDE8F0870E4F5FFA80FA07F1100929
:10AC600057F8040B514606F013FFB945F8D13319D4
:10AC700018F82330D7E7002120460AF0D3FDD4E7A7
:10AC8000E8B10300E0B10300D8B1030028B203002B
:10AC9000286100200C6700202F2805D8034B00EB0B
:10ACA0004000042203F82020704700BF0C670020FA
:10ACB0002DE9F04700EB4003234F17F82330022B18
:10ACC00004460D464FEA40082CD0012B09D0291E1E
:10ACD00018BF012120460AF0A5FD012120460AF0F7
:10ACE0001DFD7DB1204601210AF09CFD08EB040307
:10ACF000444407EB84040125657007F823500120C4
:10AD0000BDE8F087204629460AF08CFD08EB0403D5
:10AD1000444407EB84040122657007F823200120D6
:10AD2000BDE8F087094E5FFA80FA06F1100956F87F
:10AD3000040B514606F0ACFE4E45F8D108EB040377
:10AD400017F82330C1E700BF0C67002028610020FE
:10AD5000F8B557EC106B0446082015460AF05CFB6A
:10AD600012A3D3E90023304639460FF00DF841EC29
:10AD7000100B06F0B5FD014620460AF06DFB04EB12
:10AD80004404094B4FF2195C0222C5F800C030465A
:10AD900003F82420394603EB84040BF0FDF86060CF
:10ADA0002B68A3600020F8BD0C670020676666660C
:10ADB000666604402DE9F843104F00EB400304465B
:10ADC00017F82330022B4FEA400605D03444032302
:10ADD00007F82430BDE8F883094D5FFA80F905F1E2
:10ADE000100855F8040B494606F052FE4545F8D1C7
:10ADF0003444032307F82430BDE8F8830C670020AF
:10AE00002861002038B515460C460AF059FC4FF46D
:10AE1000616382B203FB02F303F500631B0B28801E
:10AE2000236038BD10B50C4B00EB400213F8223004
:10AE3000012B05D9032B0BD10446FFF7C9FE204691
:10AE40000AF00EFDA0F10100B0FA80F0400910BD3B
:10AE50004FF0FF3010BD00BF0C67002070B50446F6
:10AE60003B483C4DFFF78CFA04EB4403660015F8B1
:10AE70002330013BDBB2042B96BF374A374852F8E8
:10AE80002300FFF7D1FB331915F82330032B10D81B
:10AE9000DFE803F0022A45143148FFF739FC204669
:10AEA0000AF0DEFCA0F10100B0FA80F04009FFF7E3
:10AEB0006DFABDE870407D20FFF7FEBA20460AF02B
:10AEC000FFFB04462748FFF723FCA4B24FF4616060
:10AED00000FB04F000F50060000BFFF75FFABDE82F
:10AEE00070407D20FFF7E8BA1D48FFF711FC2046AF
:10AEF0000AF0B6FCA0F101003444B0FA80F0400939
:10AF000005EB8405FFF742FA1748FFF701FC687864
:10AF1000FFF73CFABDE870407D20FFF7CDBA34441E
:10AF200005EB84051148FFF7F3FB68680AF00CFF96
:10AF300041EC100BFFF7C8FA0D48FFF7E9FBA868D2
:10AF4000FFF72CFABDE870407D20FFF7B5BA00BFCF
:10AF50007CB103000C670020B4B1030078B103009A
:10AF600064AB030048AA030088B1030098AA030059
:10AF7000BCA6030010B500208CB00CF0CFFE044638
:10AF800002A80BF05BFA0A980DF10702121B10449D
:10AF90000CB010BD0146014800F00EBB68690020EE
:10AFA00038B5064B1D783DB100242046013400F031
:10AFB00071FEE0B28542F9D838BD00BF6469002057
:10AFC000407DFF280AD010B500F006FE044608B107
:10AFD000204610BD0AF06AF8204610BD00207047D8
:10AFE000407DFF280ED000B583B00DF1070100F0C1
:10AFF00047FE20B19DF8070003B05DF804FB4FF059
:10B00000FF30F9E74FF0FF30704700BF407DFF2869
:10B010000FD000B583B001220DF1070100F0E8FD6B
:10B0200020B19DF8070003B05DF804FB4FF0FF303E
:10B03000F9E74FF0FF307047407DFF2801D000F066
:10B0400029BE7047407DFF2801D000F08DBE002052
:10B05000704700BFF8B50646407DFF281CD0174654
:10B060005AB10D46144600F093FD2946224680B1A0
:10B07000707D00F055FE241A01D13846F8BD054414
:10B080000AF014F8707D00F083FD2946224600285E
:10B09000EED13F1B3846F1E70020F8BD002A00F052
:10B0A00097802DE9F0434B4991F81C9191F81D715F
:10B0B00091F81E8193B01D46064608F1010309F17F
:10B0C00002001446BA1C81F81C0181F81D2181F888
:10B0D0001E3101A8422200210BF0A8F9412D73D99D
:10B0E000327D8DF814207A1C204662F07F0440F6F1
:10B0F0000832ADF8042040F2094540F20122ADF8D3
:10B100000C50ADF810202425334A8DF816500692C5
:10B1100009F1010304220125DBB28DF81C508DF8E2
:10B120001F208DF8302040F2022640F2075240F2F4
:10B1300024658DF81E308DF827308DF83130ADF84C
:10B1400008600223ADF82450ADF82820ADF838206F
:10B15000224E8DF80730032508228DF812308DF825
:10B1600033308DF83B30089605238DF82B508DF841
:10B170002C2067F07F074FF411660A2540228DF8D6
:10B180001530ADF82E608DF8345001A98DF8069079
:10B190008DF80E908DF826908DF83A808DF82A70F3
:10B1A00007268DF83C2044F2020542228DF84030FB
:10B1B0008DF841408DF83F60ADF842500BF00EF92C
:10B1C000422013B0BDE8F083002013B0BDE8F08347
:10B1D00042207047686900202001052424020605EA
:10B1E00070B50368184A5B6882B093428DF8071007
:10B1F00021D10546407DFF2823D000F0C9FC0DF188
:10B20000070601243146224688B1687D00F088FD9A
:10B21000241A02D1012002B070BD064409F046FF95
:10B22000687D00F0B5FC314622460028EDD1C4F11E
:10B23000010002B070BD01220DF10701984702B074
:10B2400070BD002002B070BD55B00200002A00F0B1
:10B2500097802DE9F0434B4991F81C9191F81D71AD
:10B2600091F81E8193B01D46064608F1010309F1CD
:10B2700002001446BA1C81F81C0181F81D2181F8D6
:10B280001E3101A8422200210BF0D0F8412D73D9C4
:10B2900032798DF814207A1C204662F07F0440F643
:10B2A0000832ADF8042040F2094540F20122ADF821
:10B2B0000C50ADF810202425334A8DF81650069214
:10B2C00009F1010304220125DBB28DF81C508DF831
:10B2D0001F208DF8302040F2022640F2075240F243
:10B2E00024658DF81E308DF827308DF83130ADF89B
:10B2F00008600223ADF82450ADF82820ADF83820BE
:10B30000224E8DF80730032508228DF812308DF873
:10B3100033308DF83B30089605238DF82B508DF88F
:10B320002C2067F07F074FF411660A2540228DF824
:10B330001530ADF82E608DF8345001A98DF80690C7
:10B340008DF80E908DF826908DF83A808DF82A7041
:10B3500007268DF83C2044F2020542228DF8403049
:10B360008DF841408DF83F60ADF842500BF036F853
:10B37000422013B0BDE8F083002013B0BDE8F08395
:10B380004220704768690020200105242402060538
:10B39000437DFF2B02D10A4B1A7802B1704710B5DA
:10B3A00000F1100442750749204601221A7000F08E
:10B3B000D7F921460448BDE8104000F0DFB800BFCF
:10B3C0006469002038B203006869002001B900B147
:10B3D000704700B583B0694600F0F0FB009BB3F501
:10B3E000966F02D003B05DF804FB00F07FFBF9E735
:10B3F00030B4084B084A4FF47F4102F1080500249D
:10B4000030324FF47A709982C3E901401D601A61AD
:10B4100030BC70474C69002048B203000378002B11
:10B4200000F09280F0B50546002004462E4603E069
:10B4300001342B5D2E19C3B103F14002D2B2012AAF
:10B44000F6D9F42BF4D81A0610D40122A3F55846E5
:10B45000B6F5006FECD31444202806D021F8103044
:10B460002B5D01302E19002BE6D1F0BD03F0E00278
:10B47000C02A52D003F0F002E02A61D003F0F802B3
:10B48000F02AD5D103F007030427727802F0C00C2C
:10B49000BCF1800FCCD196F802C00CF0C00E02F0C7
:10B4A0003F02BEF1800F42EA8313C1D10CF03F0C82
:10B4B000032F4CEA83132AD0F27802F0C006802EC4
:10B4C000B6D102F03F0242EA8313A3F58032B2F50F
:10B4D000801F38BF0427ABD2A3F55842B2F5006FE6
:10B4E000A6D3B3F5803F3C44B6D31E28BDDCA3F5FC
:10B4F000803342009E0A0A44C3F30903A6F520568E
:10B50000A3F5105321F810605380023091E7A3F5A2
:10B510000062B2F5784FDFD38AE7727802F0C00696
:10B52000802E03F01F0383D102F03F0242EA83130F
:10B53000A3F18002B2F5F06FBFF47AAF022285E783
:10B5400003F00F030327A0E71846704790F8503127
:10B550000B2B0CD871B110B403F148025C1C80F8BD
:10B5600050415DF8044B40F8221018467047002304
:10B57000184670470B461846704700BF70B5044622
:10B580000E68B4F81821B4F81A31656936689B1A48
:10B5900008469BB294F81C112A44B04758B1B4F83D
:10B5A0001831626903449BB2A4F81831538094F8AF
:10B5B0001C311371012070BD2DE9F043264DDFF8D9
:10B5C000A890AC4604468846BCE80F0089B003AF9B
:10B5D0000FC703AE0FCE05F1140E25460FC59EE82A
:10B5E0000700DCF800303B806B4636682E8003C3D2
:10B5F0006B4603CB012504F118034FF48076636199
:10B60000A061E16184F8202004F59870C4F81891D5
:10B610002022A4F81C61002184F81E510AF006FFC4
:10B620000E4E0F48A571042240F2EF2340F2094765
:10B630000021C4E94A0184F85021A3804FF4E1318C
:10B64000C4E948760748FFF7A3FE404600F03CFAFD
:10B65000284609B0BDE8F083A4B203007CB2030021
:10B6600084B203004C690020090000012DE9F04775
:10B67000D0F82C0188B00E4630B10231FFF7CEFE73
:10B68000C0B208B0BDE8F087684600F031FA8646DF
:10B69000F8B1431E06F10409DBB2114DE84609EB8F
:10B6A000830904AC95E80F0018F8017B84E80F00CB
:10B6B00007F00F0C0DF1200AD4440AEB17171CF801
:10B6C00010CC17F8103CA6F804C073800436B145BE
:10B6D000E8D14FEA4E00C0B208B0BDE8F08700BF25
:10B6E00090B203000048704768690020014B586918
:10B6F000704700BF6869002010B5B0B103281CD0A6
:10B70000154C94F85031834223D9483004F5AA717E
:10B7100054F82000FFF782FEC3B201335B0043F40C
:10B7200040730E48A4F8523110BD0B4CD4F82031B0
:10B73000A4F854314FF44173F3E70849A1F5A97413
:10B740002046FFF793FF431C5B0043F440739BB21A
:10B75000E7E7002010BD00BF68690020BA6A00203A
:10B7600010B504460248FFF7F1FE207110BD00BF7E
:10B770006869002010B5134C236882B003B31868C1
:10B7800051B905F0A5FF236893F90400012102B027
:10B79000BDE810400AF046B80B4B00934FF480739D
:10B7A000ADF8043002AB13E9060005F02FFF236863
:10B7B00093F90400002102B0BDE810400AF032B84D
:10B7C00002B010BDFC6A002080BA8C0104480068F9
:10B7D00028B108B5006805F081FF012008BD704759
:10B7E000FC6A0020084B1B6863B119B1074B40226B
:10B7F0001A607047054B4022C3F88020BFF34F8F7B
:10B80000BFF36F8F704700BFFC6A002000E100E0CB
:10B81000024B53F8200000B1C0687047006B002055
:10B8200030B4094CBDF8085054F8204044B12469A4
:10B8300034B10846A44611461A462B4630BC604730
:10B84000002030BC704700BF006B002030B4084CB3
:10B85000BDF8085054F8204044B1646934B108463A
:10B86000A44611461A462B4630BC604730BC704790
:10B87000006B0020024B186808B190F86000704718
:10B88000086B00202DE9F843234C2568002D40D09B
:10B890001E462C2303FB00530446D3F82090884611
:10B8A0001746B9F1000F30D048460BF077FB082857
:10B8B000024628BF08222C2000FB0454D4E9095476
:10B8C000DFF85CC0154B002D08BF65464946404671
:10B8D000002C08BF1C460AF081FD28460BF05EFBD9
:10B8E00010280246294628BF102238460AF076FD65
:10B8F00020460BF053FB042802462146304628BF61
:10B900000422BDE8F8430AF069BDDFF81890082268
:10B91000D1E7BDE8F88300BF086B0020E0B2030068
:10B92000D0B20300C4B2030070B5104E3368CBB17F
:10B930002C2404FB0034054662691AB19047336831
:10B9400084F832002C2202FB053393F832400CB10C
:10B95000204670BD284623463A22022101F094F881
:10B96000204670BD1C46204670BD00BF086B0020FD
:10B97000074B1B6853B110B42C2404FB0030C46A7D
:10B98000038E0C605DF8044B13807047704700BF56
:10B99000086B002008B520220023052101F074F86F
:10B9A0004FF0FF3008BD00BF30B4084C256855B1DA
:10B9B0000446084611461A462C2303FB0454E36947
:10B9C0000BB130BC1847012030BC7047086B002019
:10B9D00030B4094C029A25684DB104460846194610
:10B9E0002C2303FB0454A3680BB130BC18474FF061
:10B9F000FF3030BC704700BF086B002030B4094CEA
:10BA0000029A25684DB10446084619462C2303FBCB
:10BA10000454E3680BB130BC18474FF0FF3030BC22
:10BA2000704700BF086B0020044B1B682BB12C2211
:10BA300002FB0030036903B118477047086B002010
:10BA4000054B1B682BB12C2202FB0030836903B12C
:10BA500018470120704700BF086B002005F0FAB9B5
:10BA600000B5154B83B0402283F8272301A9012399
:10BA70000020ADF8043002F087FF4FF0804300242F
:10BA8000D3F838548DF80040684608F0F9FF0B4BA6
:10BA9000019301A809F020F809F02AF8EB0707D470
:10BAA00000214FF0FF3002F0FDFFFFF779FAF7E7D2
:10BAB000204605F0CFF9F3E700E100E05DBA0200AF
:10BAC000002004F02DBE00BF00B5002383B0032288
:10BAD000CDE9002303490448C82207F04FFD03B015
